{
  "contractName": "ChildContract",
  "abi": [
    {
      "inputs": [
        {
          "internalType": "string",
          "name": "_groupName",
          "type": "string"
        },
        {
          "internalType": "address",
          "name": "_groupOwnerAddress",
          "type": "address"
        },
        {
          "internalType": "string",
          "name": "_permissions",
          "type": "string"
        },
        {
          "internalType": "string[]",
          "name": "_organizations",
          "type": "string[]"
        },
        {
          "internalType": "string[]",
          "name": "_countries",
          "type": "string[]"
        }
      ],
      "stateMutability": "nonpayable",
      "type": "constructor"
    },
    {
      "anonymous": false,
      "inputs": [
        {
          "indexed": false,
          "internalType": "string",
          "name": "message",
          "type": "string"
        }
      ],
      "name": "Success",
      "type": "event"
    },
    {
      "inputs": [
        {
          "internalType": "uint256",
          "name": "",
          "type": "uint256"
        }
      ],
      "name": "addedFileDetails",
      "outputs": [
        {
          "internalType": "string",
          "name": "IPFSHash",
          "type": "string"
        },
        {
          "internalType": "string",
          "name": "name",
          "type": "string"
        }
      ],
      "stateMutability": "view",
      "type": "function"
    },
    {
      "inputs": [],
      "name": "contractDetails",
      "outputs": [
        {
          "internalType": "string",
          "name": "groupName",
          "type": "string"
        },
        {
          "internalType": "address",
          "name": "groupOwnerAddress",
          "type": "address"
        },
        {
          "internalType": "string",
          "name": "permissions",
          "type": "string"
        }
      ],
      "stateMutability": "view",
      "type": "function"
    },
    {
      "inputs": [],
      "name": "groupOwner",
      "outputs": [
        {
          "internalType": "address",
          "name": "",
          "type": "address"
        }
      ],
      "stateMutability": "view",
      "type": "function"
    },
    {
      "inputs": [],
      "name": "getChildContractDetails",
      "outputs": [
        {
          "components": [
            {
              "internalType": "string",
              "name": "groupName",
              "type": "string"
            },
            {
              "internalType": "address",
              "name": "groupOwnerAddress",
              "type": "address"
            },
            {
              "internalType": "string",
              "name": "permissions",
              "type": "string"
            },
            {
              "internalType": "string[]",
              "name": "organizations",
              "type": "string[]"
            },
            {
              "internalType": "string[]",
              "name": "countries",
              "type": "string[]"
            }
          ],
          "internalType": "struct ChildContract.ContractDetails",
          "name": "",
          "type": "tuple"
        }
      ],
      "stateMutability": "view",
      "type": "function"
    },
    {
      "inputs": [
        {
          "internalType": "address",
          "name": "eoaAddress",
          "type": "address"
        },
        {
          "internalType": "uint256",
          "name": "accessFrom",
          "type": "uint256"
        },
        {
          "internalType": "uint256",
          "name": "accessTo",
          "type": "uint256"
        }
      ],
      "name": "setUserAccess",
      "outputs": [],
      "stateMutability": "nonpayable",
      "type": "function"
    },
    {
      "inputs": [
        {
          "internalType": "address",
          "name": "eoaAddress",
          "type": "address"
        }
      ],
      "name": "getUserAccess",
      "outputs": [
        {
          "internalType": "uint256",
          "name": "",
          "type": "uint256"
        },
        {
          "internalType": "uint256",
          "name": "",
          "type": "uint256"
        }
      ],
      "stateMutability": "view",
      "type": "function"
    },
    {
      "inputs": [
        {
          "components": [
            {
              "internalType": "address",
              "name": "eoaAddress",
              "type": "address"
            },
            {
              "internalType": "uint256",
              "name": "accessFrom",
              "type": "uint256"
            },
            {
              "internalType": "uint256",
              "name": "accessTo",
              "type": "uint256"
            }
          ],
          "internalType": "struct ChildContract.UserAccess[]",
          "name": "users",
          "type": "tuple[]"
        }
      ],
      "name": "associateUsersToGroup",
      "outputs": [],
      "stateMutability": "nonpayable",
      "type": "function"
    },
    {
      "inputs": [
        {
          "internalType": "address",
          "name": "userAddress",
          "type": "address"
        }
      ],
      "name": "isUserAssociated",
      "outputs": [
        {
          "internalType": "bool",
          "name": "",
          "type": "bool"
        }
      ],
      "stateMutability": "view",
      "type": "function"
    },
    {
      "inputs": [
        {
          "components": [
            {
              "internalType": "string",
              "name": "IPFSHash",
              "type": "string"
            },
            {
              "internalType": "string",
              "name": "name",
              "type": "string"
            }
          ],
          "internalType": "struct ChildContract.FileDetails[]",
          "name": "fileDetails",
          "type": "tuple[]"
        }
      ],
      "name": "addFilesToGroup",
      "outputs": [],
      "stateMutability": "nonpayable",
      "type": "function"
    },
    {
      "inputs": [],
      "name": "getAddedFileDetails",
      "outputs": [
        {
          "components": [
            {
              "internalType": "string",
              "name": "IPFSHash",
              "type": "string"
            },
            {
              "internalType": "string",
              "name": "name",
              "type": "string"
            }
          ],
          "internalType": "struct ChildContract.FileDetails[]",
          "name": "",
          "type": "tuple[]"
        }
      ],
      "stateMutability": "view",
      "type": "function"
    },
    {
      "inputs": [
        {
          "internalType": "string",
          "name": "ipfsHash",
          "type": "string"
        }
      ],
      "name": "isIPFSHashShared",
      "outputs": [
        {
          "internalType": "bool",
          "name": "",
          "type": "bool"
        }
      ],
      "stateMutability": "view",
      "type": "function"
    }
  ],
  "bytecode": "0x60806040523480156200001157600080fd5b506040516200290f3803806200290f83398181016040528101906200003791906200055a565b6040518060a001604052808681526020018573ffffffffffffffffffffffffffffffffffffffff16815260200184815260200183815260200182815250600460008201518160000190816200008d9190620008a9565b5060208201518160010160006101000a81548173ffffffffffffffffffffffffffffffffffffffff021916908373ffffffffffffffffffffffffffffffffffffffff1602179055506040820151816002019081620000ec9190620008a9565b5060608201518160030190805190602001906200010b92919062000179565b5060808201518160040190805190602001906200012a92919062000179565b50905050336000806101000a81548173ffffffffffffffffffffffffffffffffffffffff021916908373ffffffffffffffffffffffffffffffffffffffff160217905550505050505062000990565b828054828255906000526020600020908101928215620001c6579160200282015b82811115620001c5578251829081620001b49190620008a9565b50916020019190600101906200019a565b5b509050620001d59190620001d9565b5090565b5b80821115620001fd5760008181620001f3919062000201565b50600101620001da565b5090565b5080546200020f9062000698565b6000825580601f1062000223575062000244565b601f01602090049060005260206000209081019062000243919062000247565b5b50565b5b808211156200026257600081600090555060010162000248565b5090565b6000604051905090565b600080fd5b600080fd5b600080fd5b600080fd5b6000601f19601f8301169050919050565b7f4e487b7100000000000000000000000000000000000000000000000000000000600052604160045260246000fd5b620002cf8262000284565b810181811067ffffffffffffffff82111715620002f157620002f062000295565b5b80604052505050565b60006200030662000266565b9050620003148282620002c4565b919050565b600067ffffffffffffffff82111562000337576200033662000295565b5b620003428262000284565b9050602081019050919050565b60005b838110156200036f57808201518184015260208101905062000352565b60008484015250505050565b6000620003926200038c8462000319565b620002fa565b905082815260208101848484011115620003b157620003b06200027f565b5b620003be8482856200034f565b509392505050565b600082601f830112620003de57620003dd6200027a565b5b8151620003f08482602086016200037b565b91505092915050565b600073ffffffffffffffffffffffffffffffffffffffff82169050919050565b60006200042682620003f9565b9050919050565b620004388162000419565b81146200044457600080fd5b50565b60008151905062000458816200042d565b92915050565b600067ffffffffffffffff8211156200047c576200047b62000295565b5b602082029050602081019050919050565b600080fd5b6000620004a9620004a3846200045e565b620002fa565b90508083825260208201905060208402830185811115620004cf57620004ce6200048d565b5b835b818110156200051d57805167ffffffffffffffff811115620004f857620004f76200027a565b5b808601620005078982620003c6565b85526020850194505050602081019050620004d1565b5050509392505050565b600082601f8301126200053f576200053e6200027a565b5b81516200055184826020860162000492565b91505092915050565b600080600080600060a0868803121562000579576200057862000270565b5b600086015167ffffffffffffffff8111156200059a576200059962000275565b5b620005a888828901620003c6565b9550506020620005bb8882890162000447565b945050604086015167ffffffffffffffff811115620005df57620005de62000275565b5b620005ed88828901620003c6565b935050606086015167ffffffffffffffff81111562000611576200061062000275565b5b6200061f8882890162000527565b925050608086015167ffffffffffffffff81111562000643576200064262000275565b5b620006518882890162000527565b9150509295509295909350565b600081519050919050565b7f4e487b7100000000000000000000000000000000000000000000000000000000600052602260045260246000fd5b60006002820490506001821680620006b157607f821691505b602082108103620006c757620006c662000669565b5b50919050565b60008190508160005260206000209050919050565b60006020601f8301049050919050565b600082821b905092915050565b600060088302620007317fffffffffffffffffffffffffffffffffffffffffffffffffffffffffffffffff82620006f2565b6200073d8683620006f2565b95508019841693508086168417925050509392505050565b6000819050919050565b6000819050919050565b60006200078a620007846200077e8462000755565b6200075f565b62000755565b9050919050565b6000819050919050565b620007a68362000769565b620007be620007b58262000791565b848454620006ff565b825550505050565b600090565b620007d5620007c6565b620007e28184846200079b565b505050565b5b818110156200080a57620007fe600082620007cb565b600181019050620007e8565b5050565b601f82111562000859576200082381620006cd565b6200082e84620006e2565b810160208510156200083e578190505b620008566200084d85620006e2565b830182620007e7565b50505b505050565b600082821c905092915050565b60006200087e600019846008026200085e565b1980831691505092915050565b60006200089983836200086b565b9150826002028217905092915050565b620008b4826200065e565b67ffffffffffffffff811115620008d057620008cf62000295565b5b620008dc825462000698565b620008e98282856200080e565b600060209050601f8311600181146200092157600084156200090c578287015190505b6200091885826200088b565b86555062000988565b601f1984166200093186620006cd565b60005b828110156200095b5784890151825560018201915060208501945060208101905062000934565b868310156200097b578489015162000977601f8916826200086b565b8355505b6001600288020188555050505b505050505050565b611f6f80620009a06000396000f3fe608060405234801561001057600080fd5b50600436106100a95760003560e01c8063c995498511610071578063c995498514610159578063dd59be1414610175578063e0a160f9146101a6578063e3e21307146101c2578063f4d914c5146101f2578063fb11a14a1461020e576100a9565b806310c584bc146100ae57806339571d6e146100cc5780633ecc6589146100ec57806340aef2a41461010a5780635d1f8ad21461013b575b600080fd5b6100b661023e565b6040516100c3919061109a565b60405180910390f35b6100d46103c1565b6040516100e393929190611147565b60405180910390f35b6100f4610509565b60405161010191906112e8565b60405180910390f35b610124600480360381019061011f919061134a565b61084f565b604051610132929190611390565b60405180910390f35b6101436108e1565b60405161015091906113b9565b60405180910390f35b610173600480360381019061016e9190611681565b610905565b005b61018f600480360381019061018a91906116f6565b610ac7565b60405161019d929190611723565b60405180910390f35b6101c060048036038101906101bb919061175a565b610c0b565b005b6101dc60048036038101906101d7919061134a565b610cde565b6040516101e991906117c8565b60405180910390f35b61020c6004803603810190610207919061183e565b610d34565b005b6102286004803603810190610223919061188b565b610e8a565b60405161023591906117c8565b60405180910390f35b60606003805480602002602001604051908101604052809291908181526020016000905b828210156103b8578382906000526020600020906002020160405180604001604052908160008201805461029590611903565b80601f01602080910402602001604051908101604052809291908181526020018280546102c190611903565b801561030e5780601f106102e35761010080835404028352916020019161030e565b820191906000526020600020905b8154815290600101906020018083116102f157829003601f168201915b5050505050815260200160018201805461032790611903565b80601f016020809104026020016040519081016040528092919081815260200182805461035390611903565b80156103a05780601f10610375576101008083540402835291602001916103a0565b820191906000526020600020905b81548152906001019060200180831161038357829003601f168201915b50505050508152505081526020019060010190610262565b50505050905090565b60048060000180546103d290611903565b80601f01602080910402602001604051908101604052809291908181526020018280546103fe90611903565b801561044b5780601f106104205761010080835404028352916020019161044b565b820191906000526020600020905b81548152906001019060200180831161042e57829003601f168201915b5050505050908060010160009054906101000a900473ffffffffffffffffffffffffffffffffffffffff169080600201805461048690611903565b80601f01602080910402602001604051908101604052809291908181526020018280546104b290611903565b80156104ff5780601f106104d4576101008083540402835291602001916104ff565b820191906000526020600020905b8154815290600101906020018083116104e257829003601f168201915b5050505050905083565b610511610ebf565b60046040518060a001604052908160008201805461052e90611903565b80601f016020809104026020016040519081016040528092919081815260200182805461055a90611903565b80156105a75780601f1061057c576101008083540402835291602001916105a7565b820191906000526020600020905b81548152906001019060200180831161058a57829003601f168201915b505050505081526020016001820160009054906101000a900473ffffffffffffffffffffffffffffffffffffffff1673ffffffffffffffffffffffffffffffffffffffff1673ffffffffffffffffffffffffffffffffffffffff16815260200160028201805461061690611903565b80601f016020809104026020016040519081016040528092919081815260200182805461064290611903565b801561068f5780601f106106645761010080835404028352916020019161068f565b820191906000526020600020905b81548152906001019060200180831161067257829003601f168201915b5050505050815260200160038201805480602002602001604051908101604052809291908181526020016000905b828210156107695783829060005260206000200180546106dc90611903565b80601f016020809104026020016040519081016040528092919081815260200182805461070890611903565b80156107555780601f1061072a57610100808354040283529160200191610755565b820191906000526020600020905b81548152906001019060200180831161073857829003601f168201915b5050505050815260200190600101906106bd565b50505050815260200160048201805480602002602001604051908101604052809291908181526020016000905b828210156108425783829060005260206000200180546107b590611903565b80601f01602080910402602001604051908101604052809291908181526020018280546107e190611903565b801561082e5780601f106108035761010080835404028352916020019161082e565b820191906000526020600020905b81548152906001019060200180831161081157829003601f168201915b505050505081526020019060010190610796565b5050505081525050905090565b600080600960008473ffffffffffffffffffffffffffffffffffffffff1673ffffffffffffffffffffffffffffffffffffffff16815260200190815260200160002060010154600960008573ffffffffffffffffffffffffffffffffffffffff1673ffffffffffffffffffffffffffffffffffffffff1681526020019081526020016000206002015491509150915091565b60008054906101000a900473ffffffffffffffffffffffffffffffffffffffff1681565b60005b8151811015610ac357600082828151811061092657610925611934565b5b60200260200101519050600081600001519050600081511161097d576040517f08c379a0000000000000000000000000000000000000000000000000000000008152600401610974906119af565b60405180910390fd5b60018160405161098d9190611a0b565b908152602001604051809103902060009054906101000a900460ff16156109e9576040517f08c379a00000000000000000000000000000000000000000000000000000000081526004016109e090611a94565b60405180910390fd5b600180826040516109fa9190611a0b565b908152602001604051809103902060006101000a81548160ff02191690831515021790555060038290806001815401808255809150506001900390600052602060002090600202016000909190919091506000820151816000019081610a609190611c60565b506020820151816001019081610a769190611c60565b5050507f166b96a382dc3abc86ba052ca9c020cfd7022d2d3059e868918a3d20779e41cc604051610aa690611d7e565b60405180910390a150508080610abb90611dcd565b915050610908565b5050565b60038181548110610ad757600080fd5b9060005260206000209060020201600091509050806000018054610afa90611903565b80601f0160208091040260200160405190810160405280929190818152602001828054610b2690611903565b8015610b735780601f10610b4857610100808354040283529160200191610b73565b820191906000526020600020905b815481529060010190602001808311610b5657829003601f168201915b505050505090806001018054610b8890611903565b80601f0160208091040260200160405190810160405280929190818152602001828054610bb490611903565b8015610c015780601f10610bd657610100808354040283529160200191610c01565b820191906000526020600020905b815481529060010190602001808311610be457829003601f168201915b5050505050905082565b60405180606001604052808473ffffffffffffffffffffffffffffffffffffffff16815260200183815260200182815250600960008573ffffffffffffffffffffffffffffffffffffffff1673ffffffffffffffffffffffffffffffffffffffff16815260200190815260200160002060008201518160000160006101000a81548173ffffffffffffffffffffffffffffffffffffffff021916908373ffffffffffffffffffffffffffffffffffffffff1602179055506020820151816001015560408201518160020155905050505050565b6000600260008373ffffffffffffffffffffffffffffffffffffffff1673ffffffffffffffffffffffffffffffffffffffff16815260200190815260200160002060009054906101000a900460ff169050919050565b60008054906101000a900473ffffffffffffffffffffffffffffffffffffffff1673ffffffffffffffffffffffffffffffffffffffff163373ffffffffffffffffffffffffffffffffffffffff1614610dc2576040517f08c379a0000000000000000000000000000000000000000000000000000000008152600401610db990611e87565b60405180910390fd5b60005b82829050811015610e5057610e3d838383818110610de657610de5611934565b5b9050606002016000016020810190610dfe919061134a565b848484818110610e1157610e10611934565b5b90506060020160200135858585818110610e2e57610e2d611934565b5b90506060020160400135610c0b565b8080610e4890611dcd565b915050610dc5565b507f166b96a382dc3abc86ba052ca9c020cfd7022d2d3059e868918a3d20779e41cc604051610e7e90611f19565b60405180910390a15050565b6000600182604051610e9c9190611a0b565b908152602001604051809103902060009054906101000a900460ff169050919050565b6040518060a0016040528060608152602001600073ffffffffffffffffffffffffffffffffffffffff1681526020016060815260200160608152602001606081525090565b600081519050919050565b600082825260208201905092915050565b6000819050602082019050919050565b600081519050919050565b600082825260208201905092915050565b60005b83811015610f6a578082015181840152602081019050610f4f565b60008484015250505050565b6000601f19601f8301169050919050565b6000610f9282610f30565b610f9c8185610f3b565b9350610fac818560208601610f4c565b610fb581610f76565b840191505092915050565b60006040830160008301518482036000860152610fdd8282610f87565b91505060208301518482036020860152610ff78282610f87565b9150508091505092915050565b60006110108383610fc0565b905092915050565b6000602082019050919050565b600061103082610f04565b61103a8185610f0f565b93508360208202850161104c85610f20565b8060005b8581101561108857848403895281516110698582611004565b945061107483611018565b925060208a01995050600181019050611050565b50829750879550505050505092915050565b600060208201905081810360008301526110b48184611025565b905092915050565b600082825260208201905092915050565b60006110d882610f30565b6110e281856110bc565b93506110f2818560208601610f4c565b6110fb81610f76565b840191505092915050565b600073ffffffffffffffffffffffffffffffffffffffff82169050919050565b600061113182611106565b9050919050565b61114181611126565b82525050565b6000606082019050818103600083015261116181866110cd565b90506111706020830185611138565b818103604083015261118281846110cd565b9050949350505050565b61119581611126565b82525050565b600081519050919050565b600082825260208201905092915050565b6000819050602082019050919050565b60006111d38383610f87565b905092915050565b6000602082019050919050565b60006111f38261119b565b6111fd81856111a6565b93508360208202850161120f856111b7565b8060005b8581101561124b578484038952815161122c85826111c7565b9450611237836111db565b925060208a01995050600181019050611213565b50829750879550505050505092915050565b600060a083016000830151848203600086015261127a8282610f87565b915050602083015161128f602086018261118c565b50604083015184820360408601526112a78282610f87565b915050606083015184820360608601526112c182826111e8565b915050608083015184820360808601526112db82826111e8565b9150508091505092915050565b60006020820190508181036000830152611302818461125d565b905092915050565b6000604051905090565b600080fd5b600080fd5b61132781611126565b811461133257600080fd5b50565b6000813590506113448161131e565b92915050565b6000602082840312156113605761135f611314565b5b600061136e84828501611335565b91505092915050565b6000819050919050565b61138a81611377565b82525050565b60006040820190506113a56000830185611381565b6113b26020830184611381565b9392505050565b60006020820190506113ce6000830184611138565b92915050565b600080fd5b7f4e487b7100000000000000000000000000000000000000000000000000000000600052604160045260246000fd5b61141182610f76565b810181811067ffffffffffffffff821117156114305761142f6113d9565b5b80604052505050565b600061144361130a565b905061144f8282611408565b919050565b600067ffffffffffffffff82111561146f5761146e6113d9565b5b602082029050602081019050919050565b600080fd5b600080fd5b600080fd5b600080fd5b600067ffffffffffffffff8211156114af576114ae6113d9565b5b6114b882610f76565b9050602081019050919050565b82818337600083830152505050565b60006114e76114e284611494565b611439565b9050828152602081018484840111156115035761150261148f565b5b61150e8482856114c5565b509392505050565b600082601f83011261152b5761152a6113d4565b5b813561153b8482602086016114d4565b91505092915050565b60006040828403121561155a57611559611485565b5b6115646040611439565b9050600082013567ffffffffffffffff8111156115845761158361148a565b5b61159084828501611516565b600083015250602082013567ffffffffffffffff8111156115b4576115b361148a565b5b6115c084828501611516565b60208301525092915050565b60006115df6115da84611454565b611439565b9050808382526020820190506020840283018581111561160257611601611480565b5b835b8181101561164957803567ffffffffffffffff811115611627576116266113d4565b5b8086016116348982611544565b85526020850194505050602081019050611604565b5050509392505050565b600082601f830112611668576116676113d4565b5b81356116788482602086016115cc565b91505092915050565b60006020828403121561169757611696611314565b5b600082013567ffffffffffffffff8111156116b5576116b4611319565b5b6116c184828501611653565b91505092915050565b6116d381611377565b81146116de57600080fd5b50565b6000813590506116f0816116ca565b92915050565b60006020828403121561170c5761170b611314565b5b600061171a848285016116e1565b91505092915050565b6000604082019050818103600083015261173d81856110cd565b9050818103602083015261175181846110cd565b90509392505050565b60008060006060848603121561177357611772611314565b5b600061178186828701611335565b9350506020611792868287016116e1565b92505060406117a3868287016116e1565b9150509250925092565b60008115159050919050565b6117c2816117ad565b82525050565b60006020820190506117dd60008301846117b9565b92915050565b600080fd5b60008083601f8401126117fe576117fd6113d4565b5b8235905067ffffffffffffffff81111561181b5761181a6117e3565b5b60208301915083606082028301111561183757611836611480565b5b9250929050565b6000806020838503121561185557611854611314565b5b600083013567ffffffffffffffff81111561187357611872611319565b5b61187f858286016117e8565b92509250509250929050565b6000602082840312156118a1576118a0611314565b5b600082013567ffffffffffffffff8111156118bf576118be611319565b5b6118cb84828501611516565b91505092915050565b7f4e487b7100000000000000000000000000000000000000000000000000000000600052602260045260246000fd5b6000600282049050600182168061191b57607f821691505b60208210810361192e5761192d6118d4565b5b50919050565b7f4e487b7100000000000000000000000000000000000000000000000000000000600052603260045260246000fd5b7f496e76616c696420495046532068617368000000000000000000000000000000600082015250565b60006119996011836110bc565b91506119a482611963565b602082019050919050565b600060208201905081810360008301526119c88161198c565b9050919050565b600081905092915050565b60006119e582610f30565b6119ef81856119cf565b93506119ff818560208601610f4c565b80840191505092915050565b6000611a1782846119da565b915081905092915050565b7f49504653206861736820616c726561647920736861726564207769746820746860008201527f697320636f6e7472616374000000000000000000000000000000000000000000602082015250565b6000611a7e602b836110bc565b9150611a8982611a22565b604082019050919050565b60006020820190508181036000830152611aad81611a71565b9050919050565b60008190508160005260206000209050919050565b60006020601f8301049050919050565b600082821b905092915050565b600060088302611b167fffffffffffffffffffffffffffffffffffffffffffffffffffffffffffffffff82611ad9565b611b208683611ad9565b95508019841693508086168417925050509392505050565b6000819050919050565b6000611b5d611b58611b5384611377565b611b38565b611377565b9050919050565b6000819050919050565b611b7783611b42565b611b8b611b8382611b64565b848454611ae6565b825550505050565b600090565b611ba0611b93565b611bab818484611b6e565b505050565b5b81811015611bcf57611bc4600082611b98565b600181019050611bb1565b5050565b601f821115611c1457611be581611ab4565b611bee84611ac9565b81016020851015611bfd578190505b611c11611c0985611ac9565b830182611bb0565b50505b505050565b600082821c905092915050565b6000611c3760001984600802611c19565b1980831691505092915050565b6000611c508383611c26565b9150826002028217905092915050565b611c6982610f30565b67ffffffffffffffff811115611c8257611c816113d9565b5b611c8c8254611903565b611c97828285611bd3565b600060209050601f831160018114611cca5760008415611cb8578287015190505b611cc28582611c44565b865550611d2a565b601f198416611cd886611ab4565b60005b82811015611d0057848901518255600182019150602085019450602081019050611cdb565b86831015611d1d5784890151611d19601f891682611c26565b8355505b6001600288020188555050505b505050505050565b7f5472616e73616374696f6e207375636365737366756c00000000000000000000600082015250565b6000611d686016836110bc565b9150611d7382611d32565b602082019050919050565b60006020820190508181036000830152611d9781611d5b565b9050919050565b7f4e487b7100000000000000000000000000000000000000000000000000000000600052601160045260246000fd5b6000611dd882611377565b91507fffffffffffffffffffffffffffffffffffffffffffffffffffffffffffffffff8203611e0a57611e09611d9e565b5b600182019050919050565b7f4f6e6c792067726f7570206f776e65722063616e20706572666f726d2074686960008201527f73206f7065726174696f6e000000000000000000000000000000000000000000602082015250565b6000611e71602b836110bc565b9150611e7c82611e15565b604082019050919050565b60006020820190508181036000830152611ea081611e64565b9050919050565b7f5573657273207375636365737366756c6c7920616464656420746f207468652060008201527f67726f7570000000000000000000000000000000000000000000000000000000602082015250565b6000611f036025836110bc565b9150611f0e82611ea7565b604082019050919050565b60006020820190508181036000830152611f3281611ef6565b905091905056fea2646970667358221220b501a68297820c91f45430bf5fc9fe56ddcfcd1a82006b37cebef7684bfb5c8f64736f6c63430008130033",
  "immutableReferences": {},
  "source": "// SPDX-License-Identifier: MIT\r\npragma solidity >=0.7.0 <0.9.0;\r\n\r\ncontract ChildContract {\r\n    struct ContractDetails {\r\n        string groupName;\r\n        address groupOwnerAddress;\r\n        string permissions;\r\n        string[] organizations;\r\n        string[] countries;\r\n    }\r\n\r\n    struct FileDetails {\r\n        string IPFSHash;\r\n        string name;\r\n    }\r\n\r\n    address public groupOwner;\r\n\r\n    mapping(string => bool) sharedIPFSHashes;\r\n    mapping(address => bool) userToContract;\r\n    FileDetails[] public addedFileDetails;\r\n    ContractDetails public contractDetails;\r\n    struct UserAccess {\r\n        address eoaAddress;\r\n        uint accessFrom;\r\n        uint accessTo;\r\n        // Add more fields as needed\r\n    }\r\n    \r\n    mapping(address => UserAccess) userToGroupAccess; // User to group access mapping\r\n\r\n    event Success(string message);\r\n\r\n    constructor(\r\n        string memory _groupName,\r\n        address _groupOwnerAddress,\r\n        string memory _permissions,\r\n        string[] memory _organizations,\r\n        string[] memory _countries\r\n    ) {\r\n        contractDetails = ContractDetails({\r\n            groupName: _groupName,\r\n            groupOwnerAddress: _groupOwnerAddress,\r\n            permissions: _permissions,\r\n            organizations: _organizations,\r\n            countries: _countries\r\n        });\r\n\r\n        groupOwner = msg.sender; // Set the group owner as the contract deployer\r\n    }\r\n\r\n     modifier onlyAssociatedUser() {\r\n        require(userToContract[msg.sender], \"User is not allowed to interact with this contract\");\r\n        _;\r\n    }\r\n\r\n    modifier onlyGroupOwner {\r\n        require(msg.sender == groupOwner, \"Only group owner can perform this operation\");\r\n        _;\r\n    }\r\n\r\n    function getChildContractDetails() public view returns (ContractDetails memory) {\r\n        return contractDetails;\r\n    }\r\n\r\n    function setUserAccess(address eoaAddress, uint accessFrom, uint accessTo) public {\r\n        userToGroupAccess[eoaAddress] = UserAccess(eoaAddress, accessFrom, accessTo);\r\n    }\r\n    \r\n    function getUserAccess(address eoaAddress) public view returns (uint, uint) {\r\n        return (\r\n            userToGroupAccess[eoaAddress].accessFrom,\r\n            userToGroupAccess[eoaAddress].accessTo\r\n        );\r\n    }\r\n\r\n    function associateUsersToGroup(UserAccess[] calldata users) public onlyGroupOwner {\r\n        for (uint i = 0; i < users.length; i++) {\r\n            setUserAccess(users[i].eoaAddress, users[i].accessFrom, users[i].accessTo);\r\n        }\r\n        emit Success(\"Users successfully added to the group\");\r\n    }\r\n\r\n    function isUserAssociated(address userAddress) public view returns (bool) {\r\n        return userToContract[userAddress];\r\n    }\r\n\r\n    function addFilesToGroup(FileDetails[] memory fileDetails) public {\r\n        for (uint256 i = 0; i < fileDetails.length; i++) {\r\n            FileDetails memory fDetail = fileDetails[i];\r\n            string memory IPFSHash = fDetail.IPFSHash;\r\n            require(bytes(IPFSHash).length > 0, \"Invalid IPFS hash\");\r\n            require(!sharedIPFSHashes[IPFSHash], \"IPFS hash already shared with this contract\");\r\n            sharedIPFSHashes[IPFSHash] = true;\r\n            addedFileDetails.push(fDetail);\r\n            emit Success(\"Transaction successful\");\r\n        }\r\n    }\r\n\r\n    function getAddedFileDetails() public view returns (FileDetails[] memory) {\r\n        return addedFileDetails;\r\n    }\r\n\r\n    function isIPFSHashShared(string memory ipfsHash) public view returns (bool) {\r\n        return sharedIPFSHashes[ipfsHash];\r\n    }\r\n}\r\n",
  "sourcePath": "C:\\Users\\sheej\\OneDrive\\Desktop\\Thesis\\Thesis\\contracts\\ChildContract.sol",
  "compiler": {
    "name": "solc",
    "version": "0.8.19+commit.7dd6d404.Emscripten.clang"
  },
  "schemaVersion": "3.4.16",
  "updatedAt": "2023-11-05T19:18:43.337Z",
  "devdoc": {
    "kind": "dev",
    "methods": {},
    "version": 1
  },
  "userdoc": {
    "kind": "user",
    "methods": {},
    "version": 1
  }
}