{
  "contractName": "ChildContract",
  "abi": [
    {
      "inputs": [
        {
          "internalType": "string",
          "name": "_userAttribute",
          "type": "string"
        },
        {
          "internalType": "address",
          "name": "_dataOwnerAddress",
          "type": "address"
        },
        {
          "internalType": "string",
          "name": "_permissions",
          "type": "string"
        },
        {
          "internalType": "uint256",
          "name": "_accessFrom",
          "type": "uint256"
        },
        {
          "internalType": "uint256",
          "name": "_accessTo",
          "type": "uint256"
        }
      ],
      "stateMutability": "nonpayable",
      "type": "constructor"
    },
    {
      "anonymous": false,
      "inputs": [
        {
          "indexed": false,
          "internalType": "string",
          "name": "reason",
          "type": "string"
        }
      ],
      "name": "success",
      "type": "event"
    },
    {
      "inputs": [],
      "name": "accessFrom",
      "outputs": [
        {
          "internalType": "uint256",
          "name": "",
          "type": "uint256"
        }
      ],
      "stateMutability": "view",
      "type": "function"
    },
    {
      "inputs": [],
      "name": "accessTo",
      "outputs": [
        {
          "internalType": "uint256",
          "name": "",
          "type": "uint256"
        }
      ],
      "stateMutability": "view",
      "type": "function"
    },
    {
      "inputs": [
        {
          "internalType": "uint256",
          "name": "",
          "type": "uint256"
        }
      ],
      "name": "addedFileDetails",
      "outputs": [
        {
          "internalType": "string",
          "name": "IPFSHash",
          "type": "string"
        },
        {
          "internalType": "string",
          "name": "name",
          "type": "string"
        }
      ],
      "stateMutability": "view",
      "type": "function"
    },
    {
      "inputs": [],
      "name": "dataOwnerAddress",
      "outputs": [
        {
          "internalType": "address",
          "name": "",
          "type": "address"
        }
      ],
      "stateMutability": "view",
      "type": "function"
    },
    {
      "inputs": [],
      "name": "permissions",
      "outputs": [
        {
          "internalType": "string",
          "name": "",
          "type": "string"
        }
      ],
      "stateMutability": "view",
      "type": "function"
    },
    {
      "inputs": [
        {
          "internalType": "string",
          "name": "",
          "type": "string"
        }
      ],
      "name": "sharedIPFSHashes",
      "outputs": [
        {
          "internalType": "bool",
          "name": "",
          "type": "bool"
        }
      ],
      "stateMutability": "view",
      "type": "function"
    },
    {
      "inputs": [],
      "name": "userAttribute",
      "outputs": [
        {
          "internalType": "string",
          "name": "",
          "type": "string"
        }
      ],
      "stateMutability": "view",
      "type": "function"
    },
    {
      "inputs": [
        {
          "internalType": "address",
          "name": "",
          "type": "address"
        }
      ],
      "name": "userToContract",
      "outputs": [
        {
          "internalType": "bool",
          "name": "",
          "type": "bool"
        }
      ],
      "stateMutability": "view",
      "type": "function"
    },
    {
      "inputs": [],
      "name": "getContractDetails",
      "outputs": [
        {
          "internalType": "string",
          "name": "",
          "type": "string"
        },
        {
          "internalType": "address",
          "name": "",
          "type": "address"
        },
        {
          "internalType": "string",
          "name": "",
          "type": "string"
        },
        {
          "internalType": "uint256",
          "name": "",
          "type": "uint256"
        },
        {
          "internalType": "uint256",
          "name": "",
          "type": "uint256"
        }
      ],
      "stateMutability": "view",
      "type": "function"
    },
    {
      "inputs": [
        {
          "internalType": "address[]",
          "name": "userAddresses",
          "type": "address[]"
        }
      ],
      "name": "associateUsersToGroup",
      "outputs": [],
      "stateMutability": "nonpayable",
      "type": "function"
    },
    {
      "inputs": [
        {
          "internalType": "address",
          "name": "userAddress",
          "type": "address"
        }
      ],
      "name": "isUserAssociated",
      "outputs": [
        {
          "internalType": "bool",
          "name": "",
          "type": "bool"
        }
      ],
      "stateMutability": "view",
      "type": "function"
    },
    {
      "inputs": [
        {
          "components": [
            {
              "internalType": "string",
              "name": "IPFSHash",
              "type": "string"
            },
            {
              "internalType": "string",
              "name": "name",
              "type": "string"
            }
          ],
          "internalType": "struct ChildContract.FileDetails[]",
          "name": "fileDetails",
          "type": "tuple[]"
        }
      ],
      "name": "addFilesToGroup",
      "outputs": [],
      "stateMutability": "nonpayable",
      "type": "function"
    },
    {
      "inputs": [],
      "name": "getAddedFileDetails",
      "outputs": [
        {
          "components": [
            {
              "internalType": "string",
              "name": "IPFSHash",
              "type": "string"
            },
            {
              "internalType": "string",
              "name": "name",
              "type": "string"
            }
          ],
          "internalType": "struct ChildContract.FileDetails[]",
          "name": "",
          "type": "tuple[]"
        }
      ],
      "stateMutability": "view",
      "type": "function"
    },
    {
      "inputs": [
        {
          "internalType": "string",
          "name": "ipfsHash",
          "type": "string"
        }
      ],
      "name": "isIPFSHashShared",
      "outputs": [
        {
          "internalType": "bool",
          "name": "",
          "type": "bool"
        }
      ],
      "stateMutability": "view",
      "type": "function"
    }
  ],
  "bytecode": "0x60806040523480156200001157600080fd5b50604051620021a1380380620021a18339818101604052810190620000379190620002e8565b8460009081620000489190620005ef565b5083600160006101000a81548173ffffffffffffffffffffffffffffffffffffffff021916908373ffffffffffffffffffffffffffffffffffffffff16021790555082600290816200009b9190620005ef565b5081600381905550806004819055505050505050620006d6565b6000604051905090565b600080fd5b600080fd5b600080fd5b600080fd5b6000601f19601f8301169050919050565b7f4e487b7100000000000000000000000000000000000000000000000000000000600052604160045260246000fd5b6200011e82620000d3565b810181811067ffffffffffffffff8211171562000140576200013f620000e4565b5b80604052505050565b600062000155620000b5565b905062000163828262000113565b919050565b600067ffffffffffffffff821115620001865762000185620000e4565b5b6200019182620000d3565b9050602081019050919050565b60005b83811015620001be578082015181840152602081019050620001a1565b60008484015250505050565b6000620001e1620001db8462000168565b62000149565b9050828152602081018484840111156200020057620001ff620000ce565b5b6200020d8482856200019e565b509392505050565b600082601f8301126200022d576200022c620000c9565b5b81516200023f848260208601620001ca565b91505092915050565b600073ffffffffffffffffffffffffffffffffffffffff82169050919050565b6000620002758262000248565b9050919050565b620002878162000268565b81146200029357600080fd5b50565b600081519050620002a7816200027c565b92915050565b6000819050919050565b620002c281620002ad565b8114620002ce57600080fd5b50565b600081519050620002e281620002b7565b92915050565b600080600080600060a08688031215620003075762000306620000bf565b5b600086015167ffffffffffffffff811115620003285762000327620000c4565b5b620003368882890162000215565b9550506020620003498882890162000296565b945050604086015167ffffffffffffffff8111156200036d576200036c620000c4565b5b6200037b8882890162000215565b93505060606200038e88828901620002d1565b9250506080620003a188828901620002d1565b9150509295509295909350565b600081519050919050565b7f4e487b7100000000000000000000000000000000000000000000000000000000600052602260045260246000fd5b600060028204905060018216806200040157607f821691505b602082108103620004175762000416620003b9565b5b50919050565b60008190508160005260206000209050919050565b60006020601f8301049050919050565b600082821b905092915050565b600060088302620004817fffffffffffffffffffffffffffffffffffffffffffffffffffffffffffffffff8262000442565b6200048d868362000442565b95508019841693508086168417925050509392505050565b6000819050919050565b6000620004d0620004ca620004c484620002ad565b620004a5565b620002ad565b9050919050565b6000819050919050565b620004ec83620004af565b62000504620004fb82620004d7565b8484546200044f565b825550505050565b600090565b6200051b6200050c565b62000528818484620004e1565b505050565b5b8181101562000550576200054460008262000511565b6001810190506200052e565b5050565b601f8211156200059f5762000569816200041d565b620005748462000432565b8101602085101562000584578190505b6200059c620005938562000432565b8301826200052d565b50505b505050565b600082821c905092915050565b6000620005c460001984600802620005a4565b1980831691505092915050565b6000620005df8383620005b1565b9150826002028217905092915050565b620005fa82620003ae565b67ffffffffffffffff811115620006165762000615620000e4565b5b620006228254620003e8565b6200062f82828562000554565b600060209050601f83116001811462000667576000841562000652578287015190505b6200065e8582620005d1565b865550620006ce565b601f19841662000677866200041d565b60005b82811015620006a1578489015182556001820191506020850194506020810190506200067a565b86831015620006c15784890151620006bd601f891682620005b1565b8355505b6001600288020188555050505b505050505050565b611abb80620006e66000396000f3fe608060405234801561001057600080fd5b50600436106100ea5760003560e01c8063bc4340031161008c578063e3e2130711610066578063e3e2130714610240578063f21c9aec14610270578063f5bf19111461028e578063fb11a14a146102be576100ea565b8063bc434003146101d5578063c9954985146101f3578063dd59be141461020f576100ea565b806322c3846e116100c857806322c3846e146101475780639d1b26e9146101775780639dfc911714610195578063ab8c71c0146101b7576100ea565b8063086b377a146100ef57806310c584bc1461010b5780631922cde614610129575b600080fd5b61010960048036038101906101049190610e10565b6102ee565b005b61011361042d565b6040516101209190610fde565b60405180910390f35b6101316105b0565b60405161013e919061100f565b60405180910390f35b610161600480360381019061015c91906110df565b6105d6565b60405161016e9190611143565b60405180910390f35b61017f61060c565b60405161018c91906111a8565b60405180910390f35b61019d61069a565b6040516101ae9594939291906111e3565b60405180910390f35b6101bf6107f9565b6040516101cc91906111a8565b60405180910390f35b6101dd610887565b6040516101ea9190611244565b60405180910390f35b61020d600480360381019061020891906113d2565b61088d565b005b61022960048036038101906102249190611447565b610a50565b604051610237929190611474565b60405180910390f35b61025a600480360381019061025591906114ab565b610b94565b6040516102679190611143565b60405180910390f35b610278610bea565b6040516102859190611244565b60405180910390f35b6102a860048036038101906102a391906114ab565b610bf0565b6040516102b59190611143565b60405180910390f35b6102d860048036038101906102d391906110df565b610c10565b6040516102e59190611143565b60405180910390f35b60005b815181101561042957600082828151811061030f5761030e6114d8565b5b60200260200101519050600073ffffffffffffffffffffffffffffffffffffffff168173ffffffffffffffffffffffffffffffffffffffff1603610388576040517f08c379a000000000000000000000000000000000000000000000000000000000815260040161037f90611553565b60405180910390fd5b6001600560008373ffffffffffffffffffffffffffffffffffffffff1673ffffffffffffffffffffffffffffffffffffffff16815260200190815260200160002060006101000a81548160ff0219169083151502179055507f68f068b2f0d02fca99bc8285b62fce8668fe16b7c6a810351ea25bff358c0dd860405161040d906115bf565b60405180910390a15080806104219061160e565b9150506102f1565b5050565b60606007805480602002602001604051908101604052809291908181526020016000905b828210156105a7578382906000526020600020906002020160405180604001604052908160008201805461048490611685565b80601f01602080910402602001604051908101604052809291908181526020018280546104b090611685565b80156104fd5780601f106104d2576101008083540402835291602001916104fd565b820191906000526020600020905b8154815290600101906020018083116104e057829003601f168201915b5050505050815260200160018201805461051690611685565b80601f016020809104026020016040519081016040528092919081815260200182805461054290611685565b801561058f5780601f106105645761010080835404028352916020019161058f565b820191906000526020600020905b81548152906001019060200180831161057257829003601f168201915b50505050508152505081526020019060010190610451565b50505050905090565b600160009054906101000a900473ffffffffffffffffffffffffffffffffffffffff1681565b6006818051602081018201805184825260208301602085012081835280955050505050506000915054906101000a900460ff1681565b6000805461061990611685565b80601f016020809104026020016040519081016040528092919081815260200182805461064590611685565b80156106925780601f1061066757610100808354040283529160200191610692565b820191906000526020600020905b81548152906001019060200180831161067557829003601f168201915b505050505081565b6060600060606000806000600160009054906101000a900473ffffffffffffffffffffffffffffffffffffffff1660026003546004548480546106dc90611685565b80601f016020809104026020016040519081016040528092919081815260200182805461070890611685565b80156107555780601f1061072a57610100808354040283529160200191610755565b820191906000526020600020905b81548152906001019060200180831161073857829003601f168201915b5050505050945082805461076890611685565b80601f016020809104026020016040519081016040528092919081815260200182805461079490611685565b80156107e15780601f106107b6576101008083540402835291602001916107e1565b820191906000526020600020905b8154815290600101906020018083116107c457829003601f168201915b50505050509250945094509450945094509091929394565b6002805461080690611685565b80601f016020809104026020016040519081016040528092919081815260200182805461083290611685565b801561087f5780601f106108545761010080835404028352916020019161087f565b820191906000526020600020905b81548152906001019060200180831161086257829003601f168201915b505050505081565b60035481565b60005b8151811015610a4c5760008282815181106108ae576108ad6114d8565b5b602002602001015190506000816000015190506000815111610905576040517f08c379a00000000000000000000000000000000000000000000000000000000081526004016108fc90611702565b60405180910390fd5b600681604051610915919061175e565b908152602001604051809103902060009054906101000a900460ff1615610971576040517f08c379a0000000000000000000000000000000000000000000000000000000008152600401610968906117e7565b60405180910390fd5b6001600682604051610983919061175e565b908152602001604051809103902060006101000a81548160ff021916908315150217905550600782908060018154018082558091505060019003906000526020600020906002020160009091909190915060008201518160000190816109e991906119b3565b5060208201518160010190816109ff91906119b3565b5050507f68f068b2f0d02fca99bc8285b62fce8668fe16b7c6a810351ea25bff358c0dd8604051610a2f906115bf565b60405180910390a150508080610a449061160e565b915050610890565b5050565b60078181548110610a6057600080fd5b9060005260206000209060020201600091509050806000018054610a8390611685565b80601f0160208091040260200160405190810160405280929190818152602001828054610aaf90611685565b8015610afc5780601f10610ad157610100808354040283529160200191610afc565b820191906000526020600020905b815481529060010190602001808311610adf57829003601f168201915b505050505090806001018054610b1190611685565b80601f0160208091040260200160405190810160405280929190818152602001828054610b3d90611685565b8015610b8a5780601f10610b5f57610100808354040283529160200191610b8a565b820191906000526020600020905b815481529060010190602001808311610b6d57829003601f168201915b5050505050905082565b6000600560008373ffffffffffffffffffffffffffffffffffffffff1673ffffffffffffffffffffffffffffffffffffffff16815260200190815260200160002060009054906101000a900460ff169050919050565b60045481565b60056020528060005260406000206000915054906101000a900460ff1681565b6000600682604051610c22919061175e565b908152602001604051809103902060009054906101000a900460ff169050919050565b6000604051905090565b600080fd5b600080fd5b600080fd5b6000601f19601f8301169050919050565b7f4e487b7100000000000000000000000000000000000000000000000000000000600052604160045260246000fd5b610ca782610c5e565b810181811067ffffffffffffffff82111715610cc657610cc5610c6f565b5b80604052505050565b6000610cd9610c45565b9050610ce58282610c9e565b919050565b600067ffffffffffffffff821115610d0557610d04610c6f565b5b602082029050602081019050919050565b600080fd5b600073ffffffffffffffffffffffffffffffffffffffff82169050919050565b6000610d4682610d1b565b9050919050565b610d5681610d3b565b8114610d6157600080fd5b50565b600081359050610d7381610d4d565b92915050565b6000610d8c610d8784610cea565b610ccf565b90508083825260208201905060208402830185811115610daf57610dae610d16565b5b835b81811015610dd85780610dc48882610d64565b845260208401935050602081019050610db1565b5050509392505050565b600082601f830112610df757610df6610c59565b5b8135610e07848260208601610d79565b91505092915050565b600060208284031215610e2657610e25610c4f565b5b600082013567ffffffffffffffff811115610e4457610e43610c54565b5b610e5084828501610de2565b91505092915050565b600081519050919050565b600082825260208201905092915050565b6000819050602082019050919050565b600081519050919050565b600082825260208201905092915050565b60005b83811015610ebf578082015181840152602081019050610ea4565b60008484015250505050565b6000610ed682610e85565b610ee08185610e90565b9350610ef0818560208601610ea1565b610ef981610c5e565b840191505092915050565b60006040830160008301518482036000860152610f218282610ecb565b91505060208301518482036020860152610f3b8282610ecb565b9150508091505092915050565b6000610f548383610f04565b905092915050565b6000602082019050919050565b6000610f7482610e59565b610f7e8185610e64565b935083602082028501610f9085610e75565b8060005b85811015610fcc5784840389528151610fad8582610f48565b9450610fb883610f5c565b925060208a01995050600181019050610f94565b50829750879550505050505092915050565b60006020820190508181036000830152610ff88184610f69565b905092915050565b61100981610d3b565b82525050565b60006020820190506110246000830184611000565b92915050565b600080fd5b600067ffffffffffffffff82111561104a57611049610c6f565b5b61105382610c5e565b9050602081019050919050565b82818337600083830152505050565b600061108261107d8461102f565b610ccf565b90508281526020810184848401111561109e5761109d61102a565b5b6110a9848285611060565b509392505050565b600082601f8301126110c6576110c5610c59565b5b81356110d684826020860161106f565b91505092915050565b6000602082840312156110f5576110f4610c4f565b5b600082013567ffffffffffffffff81111561111357611112610c54565b5b61111f848285016110b1565b91505092915050565b60008115159050919050565b61113d81611128565b82525050565b60006020820190506111586000830184611134565b92915050565b600082825260208201905092915050565b600061117a82610e85565b611184818561115e565b9350611194818560208601610ea1565b61119d81610c5e565b840191505092915050565b600060208201905081810360008301526111c2818461116f565b905092915050565b6000819050919050565b6111dd816111ca565b82525050565b600060a08201905081810360008301526111fd818861116f565b905061120c6020830187611000565b818103604083015261121e818661116f565b905061122d60608301856111d4565b61123a60808301846111d4565b9695505050505050565b600060208201905061125960008301846111d4565b92915050565b600067ffffffffffffffff82111561127a57611279610c6f565b5b602082029050602081019050919050565b600080fd5b600080fd5b6000604082840312156112ab576112aa61128b565b5b6112b56040610ccf565b9050600082013567ffffffffffffffff8111156112d5576112d4611290565b5b6112e1848285016110b1565b600083015250602082013567ffffffffffffffff81111561130557611304611290565b5b611311848285016110b1565b60208301525092915050565b600061133061132b8461125f565b610ccf565b9050808382526020820190506020840283018581111561135357611352610d16565b5b835b8181101561139a57803567ffffffffffffffff81111561137857611377610c59565b5b8086016113858982611295565b85526020850194505050602081019050611355565b5050509392505050565b600082601f8301126113b9576113b8610c59565b5b81356113c984826020860161131d565b91505092915050565b6000602082840312156113e8576113e7610c4f565b5b600082013567ffffffffffffffff81111561140657611405610c54565b5b611412848285016113a4565b91505092915050565b611424816111ca565b811461142f57600080fd5b50565b6000813590506114418161141b565b92915050565b60006020828403121561145d5761145c610c4f565b5b600061146b84828501611432565b91505092915050565b6000604082019050818103600083015261148e818561116f565b905081810360208301526114a2818461116f565b90509392505050565b6000602082840312156114c1576114c0610c4f565b5b60006114cf84828501610d64565b91505092915050565b7f4e487b7100000000000000000000000000000000000000000000000000000000600052603260045260246000fd5b7f496e76616c696420757365722061646472657373000000000000000000000000600082015250565b600061153d60148361115e565b915061154882611507565b602082019050919050565b6000602082019050818103600083015261156c81611530565b9050919050565b7f5472616e73616374696f6e207375636365737366756c00000000000000000000600082015250565b60006115a960168361115e565b91506115b482611573565b602082019050919050565b600060208201905081810360008301526115d88161159c565b9050919050565b7f4e487b7100000000000000000000000000000000000000000000000000000000600052601160045260246000fd5b6000611619826111ca565b91507fffffffffffffffffffffffffffffffffffffffffffffffffffffffffffffffff820361164b5761164a6115df565b5b600182019050919050565b7f4e487b7100000000000000000000000000000000000000000000000000000000600052602260045260246000fd5b6000600282049050600182168061169d57607f821691505b6020821081036116b0576116af611656565b5b50919050565b7f496e76616c696420495046532068617368000000000000000000000000000000600082015250565b60006116ec60118361115e565b91506116f7826116b6565b602082019050919050565b6000602082019050818103600083015261171b816116df565b9050919050565b600081905092915050565b600061173882610e85565b6117428185611722565b9350611752818560208601610ea1565b80840191505092915050565b600061176a828461172d565b915081905092915050565b7f49504653206861736820616c726561647920736861726564207769746820746860008201527f697320636f6e7472616374000000000000000000000000000000000000000000602082015250565b60006117d1602b8361115e565b91506117dc82611775565b604082019050919050565b60006020820190508181036000830152611800816117c4565b9050919050565b60008190508160005260206000209050919050565b60006020601f8301049050919050565b600082821b905092915050565b6000600883026118697fffffffffffffffffffffffffffffffffffffffffffffffffffffffffffffffff8261182c565b611873868361182c565b95508019841693508086168417925050509392505050565b6000819050919050565b60006118b06118ab6118a6846111ca565b61188b565b6111ca565b9050919050565b6000819050919050565b6118ca83611895565b6118de6118d6826118b7565b848454611839565b825550505050565b600090565b6118f36118e6565b6118fe8184846118c1565b505050565b5b81811015611922576119176000826118eb565b600181019050611904565b5050565b601f8211156119675761193881611807565b6119418461181c565b81016020851015611950578190505b61196461195c8561181c565b830182611903565b50505b505050565b600082821c905092915050565b600061198a6000198460080261196c565b1980831691505092915050565b60006119a38383611979565b9150826002028217905092915050565b6119bc82610e85565b67ffffffffffffffff8111156119d5576119d4610c6f565b5b6119df8254611685565b6119ea828285611926565b600060209050601f831160018114611a1d5760008415611a0b578287015190505b611a158582611997565b865550611a7d565b601f198416611a2b86611807565b60005b82811015611a5357848901518255600182019150602085019450602081019050611a2e565b86831015611a705784890151611a6c601f891682611979565b8355505b6001600288020188555050505b50505050505056fea26469706673582212207777554c9a945643aaa2ed401d7654e6618443ba12fd489218fdf47e8477609464736f6c63430008130033",
  "immutableReferences": {},
  "source": "// SPDX-License-Identifier: MIT\r\npragma solidity >=0.7.0 <0.9.0;\r\n\r\ncontract ChildContract {\r\n\r\n    string public userAttribute;\r\n    address public dataOwnerAddress;\r\n    string public permissions;\r\n    uint256 public accessFrom;\r\n    uint256 public accessTo;\r\n\r\n    struct FileDetails {\r\n        string IPFSHash;\r\n        string name;\r\n    }\r\n\r\n    // Mapping to store user EOA addresses to this child contract address\r\n    mapping(address => bool) public userToContract;\r\n    // Mapping to store IPFS hashes of the files shared with this contract\r\n    mapping(string => bool) public sharedIPFSHashes;\r\n    // Define the storage array to store FileDetails objects\r\n    FileDetails[] public addedFileDetails;\r\n\r\n    event success (string reason);\r\n\r\n\r\n\r\n    constructor(\r\n        string memory _userAttribute,\r\n        address _dataOwnerAddress,\r\n        string memory _permissions,\r\n        uint256 _accessFrom,\r\n        uint256 _accessTo\r\n    ) {\r\n        userAttribute = _userAttribute;\r\n        dataOwnerAddress = _dataOwnerAddress;\r\n        permissions = _permissions;\r\n        accessFrom = _accessFrom;\r\n        accessTo = _accessTo;\r\n    }\r\n\r\n    function getContractDetails() public view returns (\r\n        string memory,\r\n        address,\r\n        string memory,\r\n        uint256,\r\n        uint256\r\n    ) {\r\n        return (\r\n            userAttribute,\r\n            dataOwnerAddress,\r\n            permissions,\r\n            accessFrom,\r\n            accessTo\r\n        );\r\n    }\r\n\r\n    // Function to associate a specific EOA address with this contract\r\n   \r\n\r\n   function associateUsersToGroup(address[] memory userAddresses) public {\r\n    for (uint256 i = 0; i < userAddresses.length; i++) {\r\n        address userAddress = userAddresses[i];\r\n        require(userAddress != address(0), \"Invalid user address\");\r\n        userToContract[userAddress] = true;\r\n        emit success(\"Transaction successful\");\r\n    }\r\n   }\r\n\r\n    function isUserAssociated(address userAddress) public view returns (bool) {\r\n        return userToContract[userAddress];\r\n    }\r\n\r\n    function addFilesToGroup(FileDetails[] memory fileDetails) public {\r\n        for (uint256 i = 0; i < fileDetails.length; i++) {\r\n            FileDetails memory fDetail = fileDetails[i];\r\n            string memory IPFSHash = fDetail.IPFSHash;\r\n            require(bytes(IPFSHash).length > 0, \"Invalid IPFS hash\");\r\n            require(!sharedIPFSHashes[IPFSHash], \"IPFS hash already shared with this contract\");\r\n            sharedIPFSHashes[IPFSHash] = true;\r\n            addedFileDetails.push(fDetail);\r\n            emit success(\"Transaction successful\");\r\n        }\r\n    }\r\n\r\n    // Function to get all IPFS hashes within this contract\r\n    function getAddedFileDetails() public view returns (FileDetails[] memory) {\r\n        return addedFileDetails;\r\n    }\r\n\r\n    // Function to check if an IPFS hash is shared\r\n    function isIPFSHashShared(string memory ipfsHash) public view returns (bool) {\r\n        return sharedIPFSHashes[ipfsHash];\r\n    }\r\n}\r\n",
  "sourcePath": "C:\\Users\\sheej\\OneDrive\\Desktop\\Thesis\\Thesis\\contracts\\ChildContract.sol",
  "compiler": {
    "name": "solc",
    "version": "0.8.19+commit.7dd6d404.Emscripten.clang"
  },
  "schemaVersion": "3.4.16",
  "updatedAt": "2023-10-26T11:00:45.718Z",
  "devdoc": {
    "kind": "dev",
    "methods": {},
    "version": 1
  },
  "userdoc": {
    "kind": "user",
    "methods": {},
    "version": 1
  }
}