{
  "contractName": "ChildContract",
  "abi": [
    {
      "inputs": [],
      "stateMutability": "nonpayable",
      "type": "constructor"
    },
    {
      "inputs": [],
      "name": "parentContract",
      "outputs": [
        {
          "internalType": "address",
          "name": "",
          "type": "address"
        }
      ],
      "stateMutability": "view",
      "type": "function"
    },
    {
      "inputs": [
        {
          "internalType": "address",
          "name": "",
          "type": "address"
        }
      ],
      "name": "userPolicies",
      "outputs": [
        {
          "internalType": "bool",
          "name": "hasAccess",
          "type": "bool"
        },
        {
          "internalType": "string",
          "name": "accessType",
          "type": "string"
        },
        {
          "internalType": "uint256",
          "name": "accessFrom",
          "type": "uint256"
        },
        {
          "internalType": "uint256",
          "name": "accessTo",
          "type": "uint256"
        }
      ],
      "stateMutability": "view",
      "type": "function"
    },
    {
      "inputs": [
        {
          "internalType": "address",
          "name": "userAddress",
          "type": "address"
        },
        {
          "internalType": "bool",
          "name": "hasAccess",
          "type": "bool"
        },
        {
          "internalType": "string",
          "name": "accessType",
          "type": "string"
        },
        {
          "internalType": "uint256",
          "name": "accessFrom",
          "type": "uint256"
        },
        {
          "internalType": "uint256",
          "name": "accessTo",
          "type": "uint256"
        }
      ],
      "name": "setPolicy",
      "outputs": [],
      "stateMutability": "nonpayable",
      "type": "function"
    },
    {
      "inputs": [
        {
          "internalType": "address",
          "name": "userAddress",
          "type": "address"
        }
      ],
      "name": "getPolicy",
      "outputs": [
        {
          "components": [
            {
              "internalType": "bool",
              "name": "hasAccess",
              "type": "bool"
            },
            {
              "internalType": "string",
              "name": "accessType",
              "type": "string"
            },
            {
              "internalType": "uint256",
              "name": "accessFrom",
              "type": "uint256"
            },
            {
              "internalType": "uint256",
              "name": "accessTo",
              "type": "uint256"
            }
          ],
          "internalType": "struct ChildContract.PolicyData",
          "name": "",
          "type": "tuple"
        }
      ],
      "stateMutability": "view",
      "type": "function"
    },
    {
      "inputs": [
        {
          "internalType": "address",
          "name": "userAddress",
          "type": "address"
        }
      ],
      "name": "validateAccess",
      "outputs": [
        {
          "internalType": "bool",
          "name": "",
          "type": "bool"
        }
      ],
      "stateMutability": "view",
      "type": "function"
    }
  ],
  "bytecode": "0x608060405234801561000f575f80fd5b50335f806101000a81548173ffffffffffffffffffffffffffffffffffffffff021916908373ffffffffffffffffffffffffffffffffffffffff160217905550610dfd8061005c5f395ff3fe608060405234801561000f575f80fd5b5060043610610055575f3560e01c8063230b9da3146100595780633791dc6a146100775780635c7db409146100a75780637790e501146100c357806387a22944146100f3575b5f80fd5b610061610126565b60405161006e91906105d9565b60405180910390f35b610091600480360381019061008c919061062d565b610149565b60405161009e9190610774565b60405180910390f35b6100c160048036038101906100bc9190610914565b61025d565b005b6100dd60048036038101906100d8919061062d565b6103a0565b6040516100ea91906109b6565b60405180910390f35b61010d6004803603810190610108919061062d565b6104b5565b60405161011d9493929190610a26565b60405180910390f35b5f8054906101000a900473ffffffffffffffffffffffffffffffffffffffff1681565b610151610573565b60015f8373ffffffffffffffffffffffffffffffffffffffff1673ffffffffffffffffffffffffffffffffffffffff1681526020019081526020015f206040518060800160405290815f82015f9054906101000a900460ff161515151581526020016001820180546101c290610a9d565b80601f01602080910402602001604051908101604052809291908181526020018280546101ee90610a9d565b80156102395780601f1061021057610100808354040283529160200191610239565b820191905f5260205f20905b81548152906001019060200180831161021c57829003601f168201915b50505050508152602001600282015481526020016003820154815250509050919050565b5f8054906101000a900473ffffffffffffffffffffffffffffffffffffffff1673ffffffffffffffffffffffffffffffffffffffff163373ffffffffffffffffffffffffffffffffffffffff16146102ea576040517f08c379a00000000000000000000000000000000000000000000000000000000081526004016102e190610b3d565b60405180910390fd5b5f604051806080016040528086151581526020018581526020018481526020018381525090508060015f8873ffffffffffffffffffffffffffffffffffffffff1673ffffffffffffffffffffffffffffffffffffffff1681526020019081526020015f205f820151815f015f6101000a81548160ff02191690831515021790555060208201518160010190816103809190610cf8565b506040820151816002015560608201518160030155905050505050505050565b5f8060015f8473ffffffffffffffffffffffffffffffffffffffff1673ffffffffffffffffffffffffffffffffffffffff1681526020019081526020015f206040518060800160405290815f82015f9054906101000a900460ff1615151515815260200160018201805461041390610a9d565b80601f016020809104026020016040519081016040528092919081815260200182805461043f90610a9d565b801561048a5780601f106104615761010080835404028352916020019161048a565b820191905f5260205f20905b81548152906001019060200180831161046d57829003601f168201915b50505050508152602001600282015481526020016003820154815250509050805f0151915050919050565b6001602052805f5260405f205f91509050805f015f9054906101000a900460ff16908060010180546104e690610a9d565b80601f016020809104026020016040519081016040528092919081815260200182805461051290610a9d565b801561055d5780601f106105345761010080835404028352916020019161055d565b820191905f5260205f20905b81548152906001019060200180831161054057829003601f168201915b5050505050908060020154908060030154905084565b60405180608001604052805f15158152602001606081526020015f81526020015f81525090565b5f73ffffffffffffffffffffffffffffffffffffffff82169050919050565b5f6105c38261059a565b9050919050565b6105d3816105b9565b82525050565b5f6020820190506105ec5f8301846105ca565b92915050565b5f604051905090565b5f80fd5b5f80fd5b61060c816105b9565b8114610616575f80fd5b50565b5f8135905061062781610603565b92915050565b5f60208284031215610642576106416105fb565b5b5f61064f84828501610619565b91505092915050565b5f8115159050919050565b61066c81610658565b82525050565b5f81519050919050565b5f82825260208201905092915050565b5f5b838110156106a957808201518184015260208101905061068e565b5f8484015250505050565b5f601f19601f8301169050919050565b5f6106ce82610672565b6106d8818561067c565b93506106e881856020860161068c565b6106f1816106b4565b840191505092915050565b5f819050919050565b61070e816106fc565b82525050565b5f608083015f8301516107295f860182610663565b506020830151848203602086015261074182826106c4565b91505060408301516107566040860182610705565b5060608301516107696060860182610705565b508091505092915050565b5f6020820190508181035f83015261078c8184610714565b905092915050565b61079d81610658565b81146107a7575f80fd5b50565b5f813590506107b881610794565b92915050565b5f80fd5b5f80fd5b7f4e487b71000000000000000000000000000000000000000000000000000000005f52604160045260245ffd5b6107fc826106b4565b810181811067ffffffffffffffff8211171561081b5761081a6107c6565b5b80604052505050565b5f61082d6105f2565b905061083982826107f3565b919050565b5f67ffffffffffffffff821115610858576108576107c6565b5b610861826106b4565b9050602081019050919050565b828183375f83830152505050565b5f61088e6108898461083e565b610824565b9050828152602081018484840111156108aa576108a96107c2565b5b6108b584828561086e565b509392505050565b5f82601f8301126108d1576108d06107be565b5b81356108e184826020860161087c565b91505092915050565b6108f3816106fc565b81146108fd575f80fd5b50565b5f8135905061090e816108ea565b92915050565b5f805f805f60a0868803121561092d5761092c6105fb565b5b5f61093a88828901610619565b955050602061094b888289016107aa565b945050604086013567ffffffffffffffff81111561096c5761096b6105ff565b5b610978888289016108bd565b935050606061098988828901610900565b925050608061099a88828901610900565b9150509295509295909350565b6109b081610658565b82525050565b5f6020820190506109c95f8301846109a7565b92915050565b5f82825260208201905092915050565b5f6109e982610672565b6109f381856109cf565b9350610a0381856020860161068c565b610a0c816106b4565b840191505092915050565b610a20816106fc565b82525050565b5f608082019050610a395f8301876109a7565b8181036020830152610a4b81866109df565b9050610a5a6040830185610a17565b610a676060830184610a17565b95945050505050565b7f4e487b71000000000000000000000000000000000000000000000000000000005f52602260045260245ffd5b5f6002820490506001821680610ab457607f821691505b602082108103610ac757610ac6610a70565b5b50919050565b7f4f6e6c792074686520706172656e7420636f6e74726163742063616e2063616c5f8201527f6c20746869732066756e6374696f6e0000000000000000000000000000000000602082015250565b5f610b27602f836109cf565b9150610b3282610acd565b604082019050919050565b5f6020820190508181035f830152610b5481610b1b565b9050919050565b5f819050815f5260205f209050919050565b5f6020601f8301049050919050565b5f82821b905092915050565b5f60088302610bb77fffffffffffffffffffffffffffffffffffffffffffffffffffffffffffffffff82610b7c565b610bc18683610b7c565b95508019841693508086168417925050509392505050565b5f819050919050565b5f610bfc610bf7610bf2846106fc565b610bd9565b6106fc565b9050919050565b5f819050919050565b610c1583610be2565b610c29610c2182610c03565b848454610b88565b825550505050565b5f90565b610c3d610c31565b610c48818484610c0c565b505050565b5b81811015610c6b57610c605f82610c35565b600181019050610c4e565b5050565b601f821115610cb057610c8181610b5b565b610c8a84610b6d565b81016020851015610c99578190505b610cad610ca585610b6d565b830182610c4d565b50505b505050565b5f82821c905092915050565b5f610cd05f1984600802610cb5565b1980831691505092915050565b5f610ce88383610cc1565b9150826002028217905092915050565b610d0182610672565b67ffffffffffffffff811115610d1a57610d196107c6565b5b610d248254610a9d565b610d2f828285610c6f565b5f60209050601f831160018114610d60575f8415610d4e578287015190505b610d588582610cdd565b865550610dbf565b601f198416610d6e86610b5b565b5f5b82811015610d9557848901518255600182019150602085019450602081019050610d70565b86831015610db25784890151610dae601f891682610cc1565b8355505b6001600288020188555050505b50505050505056fea264697066735822122022b9035c03d8c358d2a1664a9ba2d189ed9f97a09a01a978c80a57173757a1c164736f6c63430008150033",
  "immutableReferences": {},
  "source": "// SPDX-License-Identifier: MIT\r\npragma solidity ^0.8.6;\r\n\r\ncontract ChildContract {\r\n    address public parentContract;\r\n    \r\n    // Define a struct to store policy data\r\n    struct PolicyData {\r\n        bool hasAccess;\r\n        string accessType;\r\n        uint256 accessFrom;\r\n        uint256 accessTo;\r\n    }\r\n    \r\n    // Mapping to store policy data for each user\r\n    mapping(address => PolicyData) public userPolicies;\r\n\r\n    constructor() {\r\n        parentContract = msg.sender;\r\n    }\r\n\r\n    modifier onlyParentContract() {\r\n        require(msg.sender == parentContract, \"Only the parent contract can call this function\");\r\n        _;\r\n    }\r\n\r\n    function setPolicy(\r\n        address userAddress,\r\n        bool hasAccess,\r\n        string memory accessType,\r\n        uint256 accessFrom,\r\n        uint256 accessTo\r\n    ) public onlyParentContract {\r\n        PolicyData memory policy = PolicyData({\r\n            hasAccess: hasAccess,\r\n            accessType: accessType,\r\n            accessFrom: accessFrom,\r\n            accessTo: accessTo\r\n        });\r\n\r\n        userPolicies[userAddress] = policy;\r\n    }\r\n\r\n    function getPolicy(address userAddress) public view returns (PolicyData memory) {\r\n        return userPolicies[userAddress];\r\n    }\r\n\r\n    function validateAccess(address userAddress) public view returns (bool) {\r\n        PolicyData memory policy = userPolicies[userAddress];\r\n\r\n        // Validate the policy based on specific conditions\r\n        // Here, you would implement your access validation logic\r\n\r\n        // For simplicity, always grant access if hasAccess is true\r\n        return policy.hasAccess;\r\n    }\r\n}\r\n",
  "sourcePath": "C:\\Users\\sheej\\OneDrive\\Desktop\\Thesis\\Thesis\\contracts\\ChildContract.sol",
  "compiler": {
    "name": "solc",
    "version": "0.8.21+commit.d9974bed.Emscripten.clang"
  },
  "schemaVersion": "3.4.16",
  "updatedAt": "2023-10-03T11:46:47.562Z",
  "devdoc": {
    "kind": "dev",
    "methods": {},
    "version": 1
  },
  "userdoc": {
    "kind": "user",
    "methods": {},
    "version": 1
  }
}