{
  "contractName": "ChildContract",
  "abi": [
    {
      "inputs": [
        {
          "internalType": "string",
          "name": "_userAttribute",
          "type": "string"
        },
        {
          "internalType": "address",
          "name": "_dataOwnerAddress",
          "type": "address"
        },
        {
          "internalType": "string",
          "name": "_permissions",
          "type": "string"
        },
        {
          "internalType": "uint256",
          "name": "_accessFrom",
          "type": "uint256"
        },
        {
          "internalType": "uint256",
          "name": "_accessTo",
          "type": "uint256"
        },
        {
          "internalType": "string",
          "name": "_assetCID",
          "type": "string"
        },
        {
          "internalType": "string",
          "name": "_assetName",
          "type": "string"
        }
      ],
      "stateMutability": "nonpayable",
      "type": "constructor"
    },
    {
      "anonymous": false,
      "inputs": [
        {
          "indexed": false,
          "internalType": "string",
          "name": "reason",
          "type": "string"
        }
      ],
      "name": "success",
      "type": "event"
    },
    {
      "inputs": [],
      "name": "accessFrom",
      "outputs": [
        {
          "internalType": "uint256",
          "name": "",
          "type": "uint256"
        }
      ],
      "stateMutability": "view",
      "type": "function"
    },
    {
      "inputs": [],
      "name": "accessTo",
      "outputs": [
        {
          "internalType": "uint256",
          "name": "",
          "type": "uint256"
        }
      ],
      "stateMutability": "view",
      "type": "function"
    },
    {
      "inputs": [],
      "name": "assetCID",
      "outputs": [
        {
          "internalType": "string",
          "name": "",
          "type": "string"
        }
      ],
      "stateMutability": "view",
      "type": "function"
    },
    {
      "inputs": [],
      "name": "assetName",
      "outputs": [
        {
          "internalType": "string",
          "name": "",
          "type": "string"
        }
      ],
      "stateMutability": "view",
      "type": "function"
    },
    {
      "inputs": [],
      "name": "dataOwnerAddress",
      "outputs": [
        {
          "internalType": "address",
          "name": "",
          "type": "address"
        }
      ],
      "stateMutability": "view",
      "type": "function"
    },
    {
      "inputs": [],
      "name": "permissions",
      "outputs": [
        {
          "internalType": "string",
          "name": "",
          "type": "string"
        }
      ],
      "stateMutability": "view",
      "type": "function"
    },
    {
      "inputs": [],
      "name": "userAttribute",
      "outputs": [
        {
          "internalType": "string",
          "name": "",
          "type": "string"
        }
      ],
      "stateMutability": "view",
      "type": "function"
    },
    {
      "inputs": [
        {
          "internalType": "address",
          "name": "",
          "type": "address"
        }
      ],
      "name": "userToContract",
      "outputs": [
        {
          "internalType": "bool",
          "name": "",
          "type": "bool"
        }
      ],
      "stateMutability": "view",
      "type": "function"
    },
    {
      "inputs": [],
      "name": "getContractDetails",
      "outputs": [
        {
          "internalType": "string",
          "name": "",
          "type": "string"
        },
        {
          "internalType": "address",
          "name": "",
          "type": "address"
        },
        {
          "internalType": "string",
          "name": "",
          "type": "string"
        },
        {
          "internalType": "uint256",
          "name": "",
          "type": "uint256"
        },
        {
          "internalType": "uint256",
          "name": "",
          "type": "uint256"
        },
        {
          "internalType": "string",
          "name": "",
          "type": "string"
        },
        {
          "internalType": "string",
          "name": "",
          "type": "string"
        }
      ],
      "stateMutability": "view",
      "type": "function"
    },
    {
      "inputs": [
        {
          "internalType": "address",
          "name": "userAddress",
          "type": "address"
        }
      ],
      "name": "associateUserToContract",
      "outputs": [],
      "stateMutability": "nonpayable",
      "type": "function"
    },
    {
      "inputs": [
        {
          "internalType": "address",
          "name": "userAddress",
          "type": "address"
        }
      ],
      "name": "isUserAssociated",
      "outputs": [
        {
          "internalType": "bool",
          "name": "",
          "type": "bool"
        }
      ],
      "stateMutability": "view",
      "type": "function"
    }
  ],
  "bytecode": "0x60806040523480156200001157600080fd5b50604051620013c7380380620013c783398181016040528101906200003791906200030e565b86600090816200004891906200067e565b5085600160006101000a81548173ffffffffffffffffffffffffffffffffffffffff021916908373ffffffffffffffffffffffffffffffffffffffff16021790555084600290816200009b91906200067e565b5083600381905550826004819055508160059081620000bb91906200067e565b508060069081620000cd91906200067e565b505050505050505062000765565b6000604051905090565b600080fd5b600080fd5b600080fd5b600080fd5b6000601f19601f8301169050919050565b7f4e487b7100000000000000000000000000000000000000000000000000000000600052604160045260246000fd5b6200014482620000f9565b810181811067ffffffffffffffff821117156200016657620001656200010a565b5b80604052505050565b60006200017b620000db565b905062000189828262000139565b919050565b600067ffffffffffffffff821115620001ac57620001ab6200010a565b5b620001b782620000f9565b9050602081019050919050565b60005b83811015620001e4578082015181840152602081019050620001c7565b60008484015250505050565b60006200020762000201846200018e565b6200016f565b905082815260208101848484011115620002265762000225620000f4565b5b62000233848285620001c4565b509392505050565b600082601f830112620002535762000252620000ef565b5b815162000265848260208601620001f0565b91505092915050565b600073ffffffffffffffffffffffffffffffffffffffff82169050919050565b60006200029b826200026e565b9050919050565b620002ad816200028e565b8114620002b957600080fd5b50565b600081519050620002cd81620002a2565b92915050565b6000819050919050565b620002e881620002d3565b8114620002f457600080fd5b50565b6000815190506200030881620002dd565b92915050565b600080600080600080600060e0888a03121562000330576200032f620000e5565b5b600088015167ffffffffffffffff811115620003515762000350620000ea565b5b6200035f8a828b016200023b565b9750506020620003728a828b01620002bc565b965050604088015167ffffffffffffffff811115620003965762000395620000ea565b5b620003a48a828b016200023b565b9550506060620003b78a828b01620002f7565b9450506080620003ca8a828b01620002f7565b93505060a088015167ffffffffffffffff811115620003ee57620003ed620000ea565b5b620003fc8a828b016200023b565b92505060c088015167ffffffffffffffff81111562000420576200041f620000ea565b5b6200042e8a828b016200023b565b91505092959891949750929550565b600081519050919050565b7f4e487b7100000000000000000000000000000000000000000000000000000000600052602260045260246000fd5b600060028204905060018216806200049057607f821691505b602082108103620004a657620004a562000448565b5b50919050565b60008190508160005260206000209050919050565b60006020601f8301049050919050565b600082821b905092915050565b600060088302620005107fffffffffffffffffffffffffffffffffffffffffffffffffffffffffffffffff82620004d1565b6200051c8683620004d1565b95508019841693508086168417925050509392505050565b6000819050919050565b60006200055f620005596200055384620002d3565b62000534565b620002d3565b9050919050565b6000819050919050565b6200057b836200053e565b620005936200058a8262000566565b848454620004de565b825550505050565b600090565b620005aa6200059b565b620005b781848462000570565b505050565b5b81811015620005df57620005d3600082620005a0565b600181019050620005bd565b5050565b601f8211156200062e57620005f881620004ac565b6200060384620004c1565b8101602085101562000613578190505b6200062b6200062285620004c1565b830182620005bc565b50505b505050565b600082821c905092915050565b6000620006536000198460080262000633565b1980831691505092915050565b60006200066e838362000640565b9150826002028217905092915050565b62000689826200043d565b67ffffffffffffffff811115620006a557620006a46200010a565b5b620006b1825462000477565b620006be828285620005e3565b600060209050601f831160018114620006f65760008415620006e1578287015190505b620006ed858262000660565b8655506200075d565b601f1984166200070686620004ac565b60005b82811015620007305784890151825560018201915060208501945060208101905062000709565b868310156200075057848901516200074c601f89168262000640565b8355505b6001600288020188555050505b505050505050565b610c5280620007756000396000f3fe608060405234801561001057600080fd5b50600436106100a95760003560e01c8063bc43400311610071578063bc4340031461014a578063c9230c5d14610168578063df8c718814610186578063e3e21307146101a2578063f21c9aec146101d2578063f5bf1911146101f0576100a9565b806307aa178a146100ae5780631922cde6146100cc5780639d1b26e9146100ea5780639dfc911714610108578063ab8c71c01461012c575b600080fd5b6100b6610220565b6040516100c39190610913565b60405180910390f35b6100d46102ae565b6040516100e19190610976565b60405180910390f35b6100f26102d4565b6040516100ff9190610913565b60405180910390f35b610110610362565b60405161012397969594939291906109aa565b60405180910390f35b6101346105e6565b6040516101419190610913565b60405180910390f35b610152610674565b60405161015f9190610a35565b60405180910390f35b61017061067a565b60405161017d9190610913565b60405180910390f35b6101a0600480360381019061019b9190610a81565b610708565b005b6101bc60048036038101906101b79190610a81565b610807565b6040516101c99190610ac9565b60405180910390f35b6101da61085d565b6040516101e79190610a35565b60405180910390f35b61020a60048036038101906102059190610a81565b610863565b6040516102179190610ac9565b60405180910390f35b6005805461022d90610b13565b80601f016020809104026020016040519081016040528092919081815260200182805461025990610b13565b80156102a65780601f1061027b576101008083540402835291602001916102a6565b820191906000526020600020905b81548152906001019060200180831161028957829003601f168201915b505050505081565b600160009054906101000a900473ffffffffffffffffffffffffffffffffffffffff1681565b600080546102e190610b13565b80601f016020809104026020016040519081016040528092919081815260200182805461030d90610b13565b801561035a5780601f1061032f5761010080835404028352916020019161035a565b820191906000526020600020905b81548152906001019060200180831161033d57829003601f168201915b505050505081565b6060600060606000806060806000600160009054906101000a900473ffffffffffffffffffffffffffffffffffffffff166002600354600454600560068680546103ab90610b13565b80601f01602080910402602001604051908101604052809291908181526020018280546103d790610b13565b80156104245780601f106103f957610100808354040283529160200191610424565b820191906000526020600020905b81548152906001019060200180831161040757829003601f168201915b5050505050965084805461043790610b13565b80601f016020809104026020016040519081016040528092919081815260200182805461046390610b13565b80156104b05780601f10610485576101008083540402835291602001916104b0565b820191906000526020600020905b81548152906001019060200180831161049357829003601f168201915b505050505094508180546104c390610b13565b80601f01602080910402602001604051908101604052809291908181526020018280546104ef90610b13565b801561053c5780601f106105115761010080835404028352916020019161053c565b820191906000526020600020905b81548152906001019060200180831161051f57829003601f168201915b5050505050915080805461054f90610b13565b80601f016020809104026020016040519081016040528092919081815260200182805461057b90610b13565b80156105c85780601f1061059d576101008083540402835291602001916105c8565b820191906000526020600020905b8154815290600101906020018083116105ab57829003601f168201915b50505050509050965096509650965096509650965090919293949596565b600280546105f390610b13565b80601f016020809104026020016040519081016040528092919081815260200182805461061f90610b13565b801561066c5780601f106106415761010080835404028352916020019161066c565b820191906000526020600020905b81548152906001019060200180831161064f57829003601f168201915b505050505081565b60035481565b6006805461068790610b13565b80601f01602080910402602001604051908101604052809291908181526020018280546106b390610b13565b80156107005780601f106106d557610100808354040283529160200191610700565b820191906000526020600020905b8154815290600101906020018083116106e357829003601f168201915b505050505081565b600073ffffffffffffffffffffffffffffffffffffffff168173ffffffffffffffffffffffffffffffffffffffff1603610777576040517f08c379a000000000000000000000000000000000000000000000000000000000815260040161076e90610b90565b60405180910390fd5b6001600760008373ffffffffffffffffffffffffffffffffffffffff1673ffffffffffffffffffffffffffffffffffffffff16815260200190815260200160002060006101000a81548160ff0219169083151502179055507f68f068b2f0d02fca99bc8285b62fce8668fe16b7c6a810351ea25bff358c0dd86040516107fc90610bfc565b60405180910390a150565b6000600760008373ffffffffffffffffffffffffffffffffffffffff1673ffffffffffffffffffffffffffffffffffffffff16815260200190815260200160002060009054906101000a900460ff169050919050565b60045481565b60076020528060005260406000206000915054906101000a900460ff1681565b600081519050919050565b600082825260208201905092915050565b60005b838110156108bd5780820151818401526020810190506108a2565b60008484015250505050565b6000601f19601f8301169050919050565b60006108e582610883565b6108ef818561088e565b93506108ff81856020860161089f565b610908816108c9565b840191505092915050565b6000602082019050818103600083015261092d81846108da565b905092915050565b600073ffffffffffffffffffffffffffffffffffffffff82169050919050565b600061096082610935565b9050919050565b61097081610955565b82525050565b600060208201905061098b6000830184610967565b92915050565b6000819050919050565b6109a481610991565b82525050565b600060e08201905081810360008301526109c4818a6108da565b90506109d36020830189610967565b81810360408301526109e581886108da565b90506109f4606083018761099b565b610a01608083018661099b565b81810360a0830152610a1381856108da565b905081810360c0830152610a2781846108da565b905098975050505050505050565b6000602082019050610a4a600083018461099b565b92915050565b600080fd5b610a5e81610955565b8114610a6957600080fd5b50565b600081359050610a7b81610a55565b92915050565b600060208284031215610a9757610a96610a50565b5b6000610aa584828501610a6c565b91505092915050565b60008115159050919050565b610ac381610aae565b82525050565b6000602082019050610ade6000830184610aba565b92915050565b7f4e487b7100000000000000000000000000000000000000000000000000000000600052602260045260246000fd5b60006002820490506001821680610b2b57607f821691505b602082108103610b3e57610b3d610ae4565b5b50919050565b7f496e76616c696420757365722061646472657373000000000000000000000000600082015250565b6000610b7a60148361088e565b9150610b8582610b44565b602082019050919050565b60006020820190508181036000830152610ba981610b6d565b9050919050565b7f5472616e73616374696f6e207375636365737366756c00000000000000000000600082015250565b6000610be660168361088e565b9150610bf182610bb0565b602082019050919050565b60006020820190508181036000830152610c1581610bd9565b905091905056fea26469706673582212204caf31d31ac257ecf38adcf0d1e5e90bf454f20613b4288252695cbabf30a9f064736f6c63430008130033",
  "immutableReferences": {},
  "source": "// SPDX-License-Identifier: MIT\r\npragma solidity >=0.7.0 <0.9.0;\r\n\r\ncontract ChildContract {\r\n\r\n    string public userAttribute;\r\n    address public dataOwnerAddress;\r\n    string public permissions;\r\n    uint256 public accessFrom;\r\n    uint256 public accessTo;\r\n    string public assetCID;\r\n    string public assetName;\r\n\r\n    // Mapping to store user EOA addresses to this child contract address\r\n    mapping(address => bool) public userToContract;\r\n    event success (string reason);\r\n\r\n    constructor(\r\n        string memory _userAttribute,\r\n        address _dataOwnerAddress,\r\n        string memory _permissions,\r\n        uint256 _accessFrom,\r\n        uint256 _accessTo,\r\n        string memory _assetCID,\r\n        string memory _assetName\r\n    ) {\r\n        userAttribute = _userAttribute;\r\n        dataOwnerAddress = _dataOwnerAddress;\r\n        permissions = _permissions;\r\n        accessFrom = _accessFrom;\r\n        accessTo = _accessTo;\r\n        assetCID = _assetCID;\r\n        assetName = _assetName;\r\n    }\r\n\r\n    function getContractDetails() public view returns (\r\n        string memory,\r\n        address,\r\n        string memory,\r\n        uint256,\r\n        uint256,\r\n        string memory,\r\n        string memory\r\n    ) {\r\n        return (\r\n            userAttribute,\r\n            dataOwnerAddress,\r\n            permissions,\r\n            accessFrom,\r\n            accessTo,\r\n            assetCID,\r\n            assetName\r\n        );\r\n    }\r\n\r\n    // Function to associate a specific EOA address with this contract\r\n   \r\n\r\n    function associateUserToContract(address userAddress) public {\r\n        require(userAddress != address(0), \"Invalid user address\");\r\n        userToContract[userAddress] = true;\r\n        emit success(\"Transaction successful\");\r\n    }\r\n\r\n    function isUserAssociated(address userAddress) public view returns (bool) {\r\n        return userToContract[userAddress];\r\n    }\r\n}\r\n",
  "sourcePath": "C:\\Users\\sheej\\OneDrive\\Desktop\\Thesis\\Thesis\\contracts\\ChildContract.sol",
  "compiler": {
    "name": "solc",
    "version": "0.8.19+commit.7dd6d404.Emscripten.clang"
  },
  "schemaVersion": "3.4.16",
  "updatedAt": "2023-10-19T12:38:41.146Z",
  "devdoc": {
    "kind": "dev",
    "methods": {},
    "version": 1
  },
  "userdoc": {
    "kind": "user",
    "methods": {},
    "version": 1
  }
}