{
  "contractName": "EnforceableSmartContract",
  "abi": [
    {
      "inputs": [
        {
          "internalType": "address",
          "name": "_dataRequester",
          "type": "address"
        },
        {
          "internalType": "string",
          "name": "_permission",
          "type": "string"
        },
        {
          "internalType": "uint256",
          "name": "_startTime",
          "type": "uint256"
        },
        {
          "internalType": "uint256",
          "name": "_endTime",
          "type": "uint256"
        }
      ],
      "stateMutability": "nonpayable",
      "type": "constructor"
    },
    {
      "inputs": [],
      "name": "dataRequester",
      "outputs": [
        {
          "internalType": "address",
          "name": "",
          "type": "address"
        }
      ],
      "stateMutability": "view",
      "type": "function"
    },
    {
      "inputs": [],
      "name": "endTime",
      "outputs": [
        {
          "internalType": "uint256",
          "name": "",
          "type": "uint256"
        }
      ],
      "stateMutability": "view",
      "type": "function"
    },
    {
      "inputs": [],
      "name": "permission",
      "outputs": [
        {
          "internalType": "string",
          "name": "",
          "type": "string"
        }
      ],
      "stateMutability": "view",
      "type": "function"
    },
    {
      "inputs": [],
      "name": "startTime",
      "outputs": [
        {
          "internalType": "uint256",
          "name": "",
          "type": "uint256"
        }
      ],
      "stateMutability": "view",
      "type": "function"
    },
    {
      "inputs": [],
      "name": "enforcePermission",
      "outputs": [
        {
          "internalType": "bool",
          "name": "",
          "type": "bool"
        }
      ],
      "stateMutability": "view",
      "type": "function"
    }
  ],
  "bytecode": "0x608060405234801562000010575f80fd5b5060405162000a2d38038062000a2d8339818101604052810190620000369190620002bd565b835f806101000a81548173ffffffffffffffffffffffffffffffffffffffff021916908373ffffffffffffffffffffffffffffffffffffffff160217905550826001908162000086919062000579565b508160028190555080600381905550505050506200065d565b5f604051905090565b5f80fd5b5f80fd5b5f73ffffffffffffffffffffffffffffffffffffffff82169050919050565b5f620000db82620000b0565b9050919050565b620000ed81620000cf565b8114620000f8575f80fd5b50565b5f815190506200010b81620000e2565b92915050565b5f80fd5b5f80fd5b5f601f19601f8301169050919050565b7f4e487b71000000000000000000000000000000000000000000000000000000005f52604160045260245ffd5b620001618262000119565b810181811067ffffffffffffffff8211171562000183576200018262000129565b5b80604052505050565b5f620001976200009f565b9050620001a5828262000156565b919050565b5f67ffffffffffffffff821115620001c757620001c662000129565b5b620001d28262000119565b9050602081019050919050565b5f5b83811015620001fe578082015181840152602081019050620001e1565b5f8484015250505050565b5f6200021f6200021984620001aa565b6200018c565b9050828152602081018484840111156200023e576200023d62000115565b5b6200024b848285620001df565b509392505050565b5f82601f8301126200026a576200026962000111565b5b81516200027c84826020860162000209565b91505092915050565b5f819050919050565b620002998162000285565b8114620002a4575f80fd5b50565b5f81519050620002b7816200028e565b92915050565b5f805f8060808587031215620002d857620002d7620000a8565b5b5f620002e787828801620000fb565b945050602085015167ffffffffffffffff8111156200030b576200030a620000ac565b5b620003198782880162000253565b93505060406200032c87828801620002a7565b92505060606200033f87828801620002a7565b91505092959194509250565b5f81519050919050565b7f4e487b71000000000000000000000000000000000000000000000000000000005f52602260045260245ffd5b5f60028204905060018216806200039a57607f821691505b602082108103620003b057620003af62000355565b5b50919050565b5f819050815f5260205f209050919050565b5f6020601f8301049050919050565b5f82821b905092915050565b5f60088302620004147fffffffffffffffffffffffffffffffffffffffffffffffffffffffffffffffff82620003d7565b620004208683620003d7565b95508019841693508086168417925050509392505050565b5f819050919050565b5f620004616200045b620004558462000285565b62000438565b62000285565b9050919050565b5f819050919050565b6200047c8362000441565b620004946200048b8262000468565b848454620003e3565b825550505050565b5f90565b620004aa6200049c565b620004b781848462000471565b505050565b5b81811015620004de57620004d25f82620004a0565b600181019050620004bd565b5050565b601f8211156200052d57620004f781620003b6565b6200050284620003c8565b8101602085101562000512578190505b6200052a6200052185620003c8565b830182620004bc565b50505b505050565b5f82821c905092915050565b5f6200054f5f198460080262000532565b1980831691505092915050565b5f6200056983836200053e565b9150826002028217905092915050565b62000584826200034b565b67ffffffffffffffff811115620005a0576200059f62000129565b5b620005ac825462000382565b620005b9828285620004e2565b5f60209050601f831160018114620005ef575f8415620005da578287015190505b620005e685826200055c565b86555062000655565b601f198416620005ff86620003b6565b5f5b82811015620006285784890151825560018201915060208501945060208101905062000601565b8683101562000648578489015162000644601f8916826200053e565b8355505b6001600288020188555050505b505050505050565b6103c2806200066b5f395ff3fe608060405234801561000f575f80fd5b5060043610610055575f3560e01c80632ac756e3146100595780633197cbb61461007757806378e9792514610095578063e799c438146100b3578063f3b0c8b7146100d1575b5f80fd5b6100616100ef565b60405161006e9190610208565b60405180910390f35b61007f610112565b60405161008c9190610239565b60405180910390f35b61009d610118565b6040516100aa9190610239565b60405180910390f35b6100bb61011e565b6040516100c8919061026c565b60405180910390f35b6100d961013d565b6040516100e6919061030f565b60405180910390f35b5f8054906101000a900473ffffffffffffffffffffffffffffffffffffffff1681565b60035481565b60025481565b5f80429050600254811015801561013757506003548111155b91505090565b6001805461014a9061035c565b80601f01602080910402602001604051908101604052809291908181526020018280546101769061035c565b80156101c15780601f10610198576101008083540402835291602001916101c1565b820191905f5260205f20905b8154815290600101906020018083116101a457829003601f168201915b505050505081565b5f73ffffffffffffffffffffffffffffffffffffffff82169050919050565b5f6101f2826101c9565b9050919050565b610202816101e8565b82525050565b5f60208201905061021b5f8301846101f9565b92915050565b5f819050919050565b61023381610221565b82525050565b5f60208201905061024c5f83018461022a565b92915050565b5f8115159050919050565b61026681610252565b82525050565b5f60208201905061027f5f83018461025d565b92915050565b5f81519050919050565b5f82825260208201905092915050565b5f5b838110156102bc5780820151818401526020810190506102a1565b5f8484015250505050565b5f601f19601f8301169050919050565b5f6102e182610285565b6102eb818561028f565b93506102fb81856020860161029f565b610304816102c7565b840191505092915050565b5f6020820190508181035f83015261032781846102d7565b905092915050565b7f4e487b71000000000000000000000000000000000000000000000000000000005f52602260045260245ffd5b5f600282049050600182168061037357607f821691505b6020821081036103865761038561032f565b5b5091905056fea2646970667358221220155aa800849f09f5d768493ce8b1231cf11cbce1e5e7000b44361dd22eb814ba64736f6c63430008150033",
  "immutableReferences": {},
  "source": "// SPDX-License-Identifier: MIT\r\npragma solidity ^0.8.6;\r\n\r\ncontract EnforceableSmartContract {\r\n    address public dataRequester;\r\n    string public permission;\r\n    uint256 public startTime;\r\n    uint256 public endTime;\r\n\r\n    constructor(address _dataRequester, string memory _permission, uint256 _startTime, uint256 _endTime) {\r\n        dataRequester = _dataRequester;\r\n        permission = _permission;\r\n        startTime = _startTime;\r\n        endTime = _endTime;\r\n    }\r\n\r\n    function enforcePermission() public view returns (bool) {\r\n        uint256 currentTime = block.timestamp;\r\n        return (currentTime >= startTime && currentTime <= endTime);\r\n    }\r\n}\r\n",
  "sourcePath": "C:\\Users\\sheej\\OneDrive\\Desktop\\Thesis\\Thesis\\contracts\\EnforceablePolicy.sol",
  "compiler": {
    "name": "solc",
    "version": "0.8.21+commit.d9974bed.Emscripten.clang"
  },
  "schemaVersion": "3.4.16",
  "updatedAt": "2023-09-19T10:52:10.641Z",
  "devdoc": {
    "kind": "dev",
    "methods": {},
    "version": 1
  },
  "userdoc": {
    "kind": "user",
    "methods": {},
    "version": 1
  }
}