{
  "contractName": "FileContract",
  "abi": [
    {
      "inputs": [
        {
          "internalType": "string",
          "name": "_fileName",
          "type": "string"
        },
        {
          "internalType": "string",
          "name": "_ipfsHash",
          "type": "string"
        },
        {
          "internalType": "address",
          "name": "_owner",
          "type": "address"
        }
      ],
      "stateMutability": "nonpayable",
      "type": "constructor"
    },
    {
      "inputs": [],
      "name": "fileName",
      "outputs": [
        {
          "internalType": "string",
          "name": "",
          "type": "string"
        }
      ],
      "stateMutability": "view",
      "type": "function"
    },
    {
      "inputs": [],
      "name": "ipfsHash",
      "outputs": [
        {
          "internalType": "string",
          "name": "",
          "type": "string"
        }
      ],
      "stateMutability": "view",
      "type": "function"
    },
    {
      "inputs": [],
      "name": "owner",
      "outputs": [
        {
          "internalType": "address",
          "name": "",
          "type": "address"
        }
      ],
      "stateMutability": "view",
      "type": "function"
    }
  ],
  "bytecode": "0x60806040523480156200001157600080fd5b50604051620009ff380380620009ff83398181016040528101906200003791906200029d565b826000908162000048919062000582565b5081600190816200005a919062000582565b5080600260006101000a81548173ffffffffffffffffffffffffffffffffffffffff021916908373ffffffffffffffffffffffffffffffffffffffff16021790555050505062000669565b6000604051905090565b600080fd5b600080fd5b600080fd5b600080fd5b6000601f19601f8301169050919050565b7f4e487b7100000000000000000000000000000000000000000000000000000000600052604160045260246000fd5b6200010e82620000c3565b810181811067ffffffffffffffff8211171562000130576200012f620000d4565b5b80604052505050565b600062000145620000a5565b905062000153828262000103565b919050565b600067ffffffffffffffff821115620001765762000175620000d4565b5b6200018182620000c3565b9050602081019050919050565b60005b83811015620001ae57808201518184015260208101905062000191565b60008484015250505050565b6000620001d1620001cb8462000158565b62000139565b905082815260208101848484011115620001f057620001ef620000be565b5b620001fd8482856200018e565b509392505050565b600082601f8301126200021d576200021c620000b9565b5b81516200022f848260208601620001ba565b91505092915050565b600073ffffffffffffffffffffffffffffffffffffffff82169050919050565b6000620002658262000238565b9050919050565b620002778162000258565b81146200028357600080fd5b50565b60008151905062000297816200026c565b92915050565b600080600060608486031215620002b957620002b8620000af565b5b600084015167ffffffffffffffff811115620002da57620002d9620000b4565b5b620002e88682870162000205565b935050602084015167ffffffffffffffff8111156200030c576200030b620000b4565b5b6200031a8682870162000205565b92505060406200032d8682870162000286565b9150509250925092565b600081519050919050565b7f4e487b7100000000000000000000000000000000000000000000000000000000600052602260045260246000fd5b600060028204905060018216806200038a57607f821691505b602082108103620003a0576200039f62000342565b5b50919050565b60008190508160005260206000209050919050565b60006020601f8301049050919050565b600082821b905092915050565b6000600883026200040a7fffffffffffffffffffffffffffffffffffffffffffffffffffffffffffffffff82620003cb565b620004168683620003cb565b95508019841693508086168417925050509392505050565b6000819050919050565b6000819050919050565b6000620004636200045d62000457846200042e565b62000438565b6200042e565b9050919050565b6000819050919050565b6200047f8362000442565b620004976200048e826200046a565b848454620003d8565b825550505050565b600090565b620004ae6200049f565b620004bb81848462000474565b505050565b5b81811015620004e357620004d7600082620004a4565b600181019050620004c1565b5050565b601f8211156200053257620004fc81620003a6565b6200050784620003bb565b8101602085101562000517578190505b6200052f6200052685620003bb565b830182620004c0565b50505b505050565b600082821c905092915050565b6000620005576000198460080262000537565b1980831691505092915050565b600062000572838362000544565b9150826002028217905092915050565b6200058d8262000337565b67ffffffffffffffff811115620005a957620005a8620000d4565b5b620005b5825462000371565b620005c2828285620004e7565b600060209050601f831160018114620005fa5760008415620005e5578287015190505b620005f1858262000564565b86555062000661565b601f1984166200060a86620003a6565b60005b8281101562000634578489015182556001820191506020850194506020810190506200060d565b8683101562000654578489015162000650601f89168262000544565b8355505b6001600288020188555050505b505050505050565b61038680620006796000396000f3fe608060405234801561001057600080fd5b50600436106100415760003560e01c80637fb6c4fa146100465780638da5cb5b14610064578063c623674f14610082575b600080fd5b61004e6100a0565b60405161005b9190610272565b60405180910390f35b61006c61012e565b60405161007991906102d5565b60405180910390f35b61008a610154565b6040516100979190610272565b60405180910390f35b600080546100ad9061031f565b80601f01602080910402602001604051908101604052809291908181526020018280546100d99061031f565b80156101265780601f106100fb57610100808354040283529160200191610126565b820191906000526020600020905b81548152906001019060200180831161010957829003601f168201915b505050505081565b600260009054906101000a900473ffffffffffffffffffffffffffffffffffffffff1681565b600180546101619061031f565b80601f016020809104026020016040519081016040528092919081815260200182805461018d9061031f565b80156101da5780601f106101af576101008083540402835291602001916101da565b820191906000526020600020905b8154815290600101906020018083116101bd57829003601f168201915b505050505081565b600081519050919050565b600082825260208201905092915050565b60005b8381101561021c578082015181840152602081019050610201565b60008484015250505050565b6000601f19601f8301169050919050565b6000610244826101e2565b61024e81856101ed565b935061025e8185602086016101fe565b61026781610228565b840191505092915050565b6000602082019050818103600083015261028c8184610239565b905092915050565b600073ffffffffffffffffffffffffffffffffffffffff82169050919050565b60006102bf82610294565b9050919050565b6102cf816102b4565b82525050565b60006020820190506102ea60008301846102c6565b92915050565b7f4e487b7100000000000000000000000000000000000000000000000000000000600052602260045260246000fd5b6000600282049050600182168061033757607f821691505b60208210810361034a576103496102f0565b5b5091905056fea2646970667358221220137f4c6abcda1441015bafdd9d4a371c877c3628f1fb353694d3a911dd7542db64736f6c63430008130033",
  "immutableReferences": {},
  "source": "// SPDX-License-Identifier: MIT\r\npragma solidity >=0.7.0 <0.9.0;\r\n\r\ncontract FileContract {\r\n    string public fileName;\r\n    string public ipfsHash;\r\n\r\n    address public owner;\r\n\r\n    constructor(string memory _fileName, string memory _ipfsHash, address _owner) {\r\n        fileName = _fileName;\r\n        ipfsHash = _ipfsHash;\r\n        owner = _owner;\r\n    }\r\n}\r\n\r\n",
  "sourcePath": "C:\\Users\\sheej\\OneDrive\\Desktop\\Thesis\\Thesis\\contracts\\FileContract.sol",
  "compiler": {
    "name": "solc",
    "version": "0.8.19+commit.7dd6d404.Emscripten.clang"
  },
  "schemaVersion": "3.4.16",
  "updatedAt": "2023-11-05T19:18:43.350Z",
  "devdoc": {
    "kind": "dev",
    "methods": {},
    "version": 1
  },
  "userdoc": {
    "kind": "user",
    "methods": {},
    "version": 1
  }
}