{
  "contractName": "PolicyManager",
  "abi": [
    {
      "inputs": [],
      "stateMutability": "nonpayable",
      "type": "constructor"
    },
    {
      "anonymous": false,
      "inputs": [
        {
          "indexed": true,
          "internalType": "string",
          "name": "attribute",
          "type": "string"
        },
        {
          "indexed": false,
          "internalType": "address",
          "name": "childContract",
          "type": "address"
        }
      ],
      "name": "ChildContractCreated",
      "type": "event"
    },
    {
      "anonymous": false,
      "inputs": [
        {
          "indexed": false,
          "internalType": "string",
          "name": "msg",
          "type": "string"
        }
      ],
      "name": "success",
      "type": "event"
    },
    {
      "inputs": [
        {
          "internalType": "uint256",
          "name": "",
          "type": "uint256"
        }
      ],
      "name": "deployedContracts",
      "outputs": [
        {
          "internalType": "address",
          "name": "contractAddress",
          "type": "address"
        },
        {
          "internalType": "string",
          "name": "assetName",
          "type": "string"
        }
      ],
      "stateMutability": "view",
      "type": "function",
      "constant": true
    },
    {
      "inputs": [],
      "name": "owner",
      "outputs": [
        {
          "internalType": "address",
          "name": "",
          "type": "address"
        }
      ],
      "stateMutability": "view",
      "type": "function",
      "constant": true
    },
    {
      "inputs": [
        {
          "internalType": "string",
          "name": "_userAttribute",
          "type": "string"
        },
        {
          "internalType": "address",
          "name": "_dataOwnerAddress",
          "type": "address"
        },
        {
          "internalType": "string",
          "name": "_permissions",
          "type": "string"
        },
        {
          "internalType": "uint256",
          "name": "_accessFrom",
          "type": "uint256"
        },
        {
          "internalType": "uint256",
          "name": "_accessTo",
          "type": "uint256"
        },
        {
          "internalType": "string",
          "name": "_assetCID",
          "type": "string"
        },
        {
          "internalType": "string",
          "name": "_assetName",
          "type": "string"
        }
      ],
      "name": "createChildContract",
      "outputs": [],
      "stateMutability": "nonpayable",
      "type": "function"
    },
    {
      "inputs": [
        {
          "internalType": "address",
          "name": "_userAddress",
          "type": "address"
        }
      ],
      "name": "getPolicyCount",
      "outputs": [],
      "stateMutability": "nonpayable",
      "type": "function"
    },
    {
      "inputs": [],
      "name": "getDeployedContractsCount",
      "outputs": [
        {
          "internalType": "uint256",
          "name": "",
          "type": "uint256"
        }
      ],
      "stateMutability": "view",
      "type": "function",
      "constant": true
    },
    {
      "inputs": [
        {
          "internalType": "uint256",
          "name": "index",
          "type": "uint256"
        }
      ],
      "name": "getContractMetadata",
      "outputs": [
        {
          "internalType": "address",
          "name": "",
          "type": "address"
        },
        {
          "internalType": "string",
          "name": "",
          "type": "string"
        }
      ],
      "stateMutability": "view",
      "type": "function",
      "constant": true
    }
  ],
  "bytecode": "0x608060405234801561001057600080fd5b50336000806101000a81548173ffffffffffffffffffffffffffffffffffffffff021916908373ffffffffffffffffffffffffffffffffffffffff16021790555061267e806100606000396000f3fe60806040523480156200001157600080fd5b50600436106200006a5760003560e01c806342bbf7aa146200006f5780635f4b9b4f146200008f5780635fc7f33414620000af5780638da5cb5b14620000d157806397c8fbc814620000f35780639ad1ee10146200012a575b600080fd5b6200008d600480360381019062000087919062000a00565b62000161565b005b620000ad6004803603810190620000a7919062000b2f565b62000494565b005b620000b962000540565b604051620000c8919062000b72565b60405180910390f35b620000db6200054d565b604051620000ea919062000ba0565b60405180910390f35b6200011160048036038101906200010b919062000bbd565b62000571565b6040516200012192919062000c78565b60405180910390f35b62000148600480360381019062000142919062000bbd565b620006f7565b6040516200015892919062000c78565b60405180910390f35b600073ffffffffffffffffffffffffffffffffffffffff168673ffffffffffffffffffffffffffffffffffffffff1603620001d3576040517f08c379a0000000000000000000000000000000000000000000000000000000008152600401620001ca9062000cfc565b60405180910390fd5b60008054906101000a900473ffffffffffffffffffffffffffffffffffffffff1673ffffffffffffffffffffffffffffffffffffffff168673ffffffffffffffffffffffffffffffffffffffff161462000264576040517f08c379a00000000000000000000000000000000000000000000000000000000081526004016200025b9062000d94565b60405180910390fd5b828410620002a9576040517f08c379a0000000000000000000000000000000000000000000000000000000008152600401620002a09062000e2c565b60405180910390fd5b600187604051620002bb919062000e90565b908152602001604051809103902085604051620002d9919062000e90565b908152602001604051809103902082604051620002f7919062000e90565b908152602001604051809103902060009054906101000a900460ff161562000356576040517f08c379a00000000000000000000000000000000000000000000000000000000081526004016200034d9062000f45565b60405180910390fd5b6000878787878787876040516200036d90620007dc565b6200037f979695949392919062000f67565b604051809103906000f0801580156200039c573d6000803e3d6000fd5b5090506002819080600181540180825580915050600190039060005260206000200160009091909190916101000a81548173ffffffffffffffffffffffffffffffffffffffff021916908373ffffffffffffffffffffffffffffffffffffffff1602179055508760405162000412919062000e90565b60405180910390207f550dac6993e962fb8c25a025712b36ae55d105880de2b57da803bd9831dffc13826040516200044b919062000ba0565b60405180910390a27f68f068b2f0d02fca99bc8285b62fce8668fe16b7c6a810351ea25bff358c0dd8604051620004829062001076565b60405180910390a15050505050505050565b600073ffffffffffffffffffffffffffffffffffffffff168173ffffffffffffffffffffffffffffffffffffffff160362000506576040517f08c379a0000000000000000000000000000000000000000000000000000000008152600401620004fd90620010e8565b60405180910390fd5b7f68f068b2f0d02fca99bc8285b62fce8668fe16b7c6a810351ea25bff358c0dd860405162000535906200115a565b60405180910390a150565b6000600380549050905090565b60008054906101000a900473ffffffffffffffffffffffffffffffffffffffff1681565b600060606003805490508310620005bf576040517f08c379a0000000000000000000000000000000000000000000000000000000008152600401620005b690620011cc565b60405180910390fd5b600060038481548110620005d857620005d7620011ee565b5b90600052602060002090600202016040518060400160405290816000820160009054906101000a900473ffffffffffffffffffffffffffffffffffffffff1673ffffffffffffffffffffffffffffffffffffffff1673ffffffffffffffffffffffffffffffffffffffff16815260200160018201805462000659906200124c565b80601f016020809104026020016040519081016040528092919081815260200182805462000687906200124c565b8015620006d85780601f10620006ac57610100808354040283529160200191620006d8565b820191906000526020600020905b815481529060010190602001808311620006ba57829003601f168201915b5050505050815250509050806000015181602001519250925050915091565b600381815481106200070857600080fd5b90600052602060002090600202016000915090508060000160009054906101000a900473ffffffffffffffffffffffffffffffffffffffff169080600101805462000753906200124c565b80601f016020809104026020016040519081016040528092919081815260200182805462000781906200124c565b8015620007d25780601f10620007a657610100808354040283529160200191620007d2565b820191906000526020600020905b815481529060010190602001808311620007b457829003601f168201915b5050505050905082565b6113c7806200128283390190565b6000604051905090565b600080fd5b600080fd5b600080fd5b600080fd5b6000601f19601f8301169050919050565b7f4e487b7100000000000000000000000000000000000000000000000000000000600052604160045260246000fd5b620008538262000808565b810181811067ffffffffffffffff8211171562000875576200087462000819565b5b80604052505050565b60006200088a620007ea565b905062000898828262000848565b919050565b600067ffffffffffffffff821115620008bb57620008ba62000819565b5b620008c68262000808565b9050602081019050919050565b82818337600083830152505050565b6000620008f9620008f3846200089d565b6200087e565b90508281526020810184848401111562000918576200091762000803565b5b62000925848285620008d3565b509392505050565b600082601f830112620009455762000944620007fe565b5b813562000957848260208601620008e2565b91505092915050565b600073ffffffffffffffffffffffffffffffffffffffff82169050919050565b60006200098d8262000960565b9050919050565b6200099f8162000980565b8114620009ab57600080fd5b50565b600081359050620009bf8162000994565b92915050565b6000819050919050565b620009da81620009c5565b8114620009e657600080fd5b50565b600081359050620009fa81620009cf565b92915050565b600080600080600080600060e0888a03121562000a225762000a21620007f4565b5b600088013567ffffffffffffffff81111562000a435762000a42620007f9565b5b62000a518a828b016200092d565b975050602062000a648a828b01620009ae565b965050604088013567ffffffffffffffff81111562000a885762000a87620007f9565b5b62000a968a828b016200092d565b955050606062000aa98a828b01620009e9565b945050608062000abc8a828b01620009e9565b93505060a088013567ffffffffffffffff81111562000ae05762000adf620007f9565b5b62000aee8a828b016200092d565b92505060c088013567ffffffffffffffff81111562000b125762000b11620007f9565b5b62000b208a828b016200092d565b91505092959891949750929550565b60006020828403121562000b485762000b47620007f4565b5b600062000b5884828501620009ae565b91505092915050565b62000b6c81620009c5565b82525050565b600060208201905062000b89600083018462000b61565b92915050565b62000b9a8162000980565b82525050565b600060208201905062000bb7600083018462000b8f565b92915050565b60006020828403121562000bd65762000bd5620007f4565b5b600062000be684828501620009e9565b91505092915050565b600081519050919050565b600082825260208201905092915050565b60005b8381101562000c2b57808201518184015260208101905062000c0e565b60008484015250505050565b600062000c448262000bef565b62000c50818562000bfa565b935062000c6281856020860162000c0b565b62000c6d8162000808565b840191505092915050565b600060408201905062000c8f600083018562000b8f565b818103602083015262000ca3818462000c37565b90509392505050565b7f496e76616c69642064617461206f776e65722061646472657373000000000000600082015250565b600062000ce4601a8362000bfa565b915062000cf18262000cac565b602082019050919050565b6000602082019050818103600083015262000d178162000cd5565b9050919050565b7f4f6e6c79206f776e65722063616e20696e766f6b6520746865206368696c642060008201527f636f6e7472616374206372656174696f6e000000000000000000000000000000602082015250565b600062000d7c60318362000bfa565b915062000d898262000d1e565b604082019050919050565b6000602082019050818103600083015262000daf8162000d6d565b9050919050565b7f496e76616c6964206163636573732074696d652c2061636365737346726f6d2060008201527f73686f756c64206265206c657373207468616e20616363657373546f00000000602082015250565b600062000e14603c8362000bfa565b915062000e218262000db6565b604082019050919050565b6000602082019050818103600083015262000e478162000e05565b9050919050565b600081905092915050565b600062000e668262000bef565b62000e72818562000e4e565b935062000e8481856020860162000c0b565b80840191505092915050565b600062000e9e828462000e59565b915081905092915050565b7f506f6c69637920436f6e747261637420616c726561647920657869737473206660008201527f6f722074686973206174747269627574652c20737065636966696320746f207460208201527f6869732061737365740000000000000000000000000000000000000000000000604082015250565b600062000f2d60498362000bfa565b915062000f3a8262000ea9565b606082019050919050565b6000602082019050818103600083015262000f608162000f1e565b9050919050565b600060e082019050818103600083015262000f83818a62000c37565b905062000f94602083018962000b8f565b818103604083015262000fa8818862000c37565b905062000fb9606083018762000b61565b62000fc8608083018662000b61565b81810360a083015262000fdc818562000c37565b905081810360c083015262000ff2818462000c37565b905098975050505050505050565b7f5573657220506f6c69637920446566696e6974696f6e7320726567697374657260008201527f6564207375636365737366756c6c792121000000000000000000000000000000602082015250565b60006200105e60318362000bfa565b91506200106b8262001000565b604082019050919050565b6000602082019050818103600083015262001091816200104f565b9050919050565b7f496e76616c696420757365722061646472657373000000000000000000000000600082015250565b6000620010d060148362000bfa565b9150620010dd8262001098565b602082019050919050565b600060208201905081810360008301526200110381620010c1565b9050919050565b7f506f6c69637920636f756e742c206164647265737320666f756e640000000000600082015250565b600062001142601b8362000bfa565b91506200114f826200110a565b602082019050919050565b60006020820190508181036000830152620011758162001133565b9050919050565b7f496e76616c696420696e64657800000000000000000000000000000000000000600082015250565b6000620011b4600d8362000bfa565b9150620011c1826200117c565b602082019050919050565b60006020820190508181036000830152620011e781620011a5565b9050919050565b7f4e487b7100000000000000000000000000000000000000000000000000000000600052603260045260246000fd5b7f4e487b7100000000000000000000000000000000000000000000000000000000600052602260045260246000fd5b600060028204905060018216806200126557607f821691505b6020821081036200127b576200127a6200121d565b5b5091905056fe60806040523480156200001157600080fd5b50604051620013c7380380620013c783398181016040528101906200003791906200030e565b86600090816200004891906200067e565b5085600160006101000a81548173ffffffffffffffffffffffffffffffffffffffff021916908373ffffffffffffffffffffffffffffffffffffffff16021790555084600290816200009b91906200067e565b5083600381905550826004819055508160059081620000bb91906200067e565b508060069081620000cd91906200067e565b505050505050505062000765565b6000604051905090565b600080fd5b600080fd5b600080fd5b600080fd5b6000601f19601f8301169050919050565b7f4e487b7100000000000000000000000000000000000000000000000000000000600052604160045260246000fd5b6200014482620000f9565b810181811067ffffffffffffffff821117156200016657620001656200010a565b5b80604052505050565b60006200017b620000db565b905062000189828262000139565b919050565b600067ffffffffffffffff821115620001ac57620001ab6200010a565b5b620001b782620000f9565b9050602081019050919050565b60005b83811015620001e4578082015181840152602081019050620001c7565b60008484015250505050565b60006200020762000201846200018e565b6200016f565b905082815260208101848484011115620002265762000225620000f4565b5b62000233848285620001c4565b509392505050565b600082601f830112620002535762000252620000ef565b5b815162000265848260208601620001f0565b91505092915050565b600073ffffffffffffffffffffffffffffffffffffffff82169050919050565b60006200029b826200026e565b9050919050565b620002ad816200028e565b8114620002b957600080fd5b50565b600081519050620002cd81620002a2565b92915050565b6000819050919050565b620002e881620002d3565b8114620002f457600080fd5b50565b6000815190506200030881620002dd565b92915050565b600080600080600080600060e0888a03121562000330576200032f620000e5565b5b600088015167ffffffffffffffff811115620003515762000350620000ea565b5b6200035f8a828b016200023b565b9750506020620003728a828b01620002bc565b965050604088015167ffffffffffffffff811115620003965762000395620000ea565b5b620003a48a828b016200023b565b9550506060620003b78a828b01620002f7565b9450506080620003ca8a828b01620002f7565b93505060a088015167ffffffffffffffff811115620003ee57620003ed620000ea565b5b620003fc8a828b016200023b565b92505060c088015167ffffffffffffffff81111562000420576200041f620000ea565b5b6200042e8a828b016200023b565b91505092959891949750929550565b600081519050919050565b7f4e487b7100000000000000000000000000000000000000000000000000000000600052602260045260246000fd5b600060028204905060018216806200049057607f821691505b602082108103620004a657620004a562000448565b5b50919050565b60008190508160005260206000209050919050565b60006020601f8301049050919050565b600082821b905092915050565b600060088302620005107fffffffffffffffffffffffffffffffffffffffffffffffffffffffffffffffff82620004d1565b6200051c8683620004d1565b95508019841693508086168417925050509392505050565b6000819050919050565b60006200055f620005596200055384620002d3565b62000534565b620002d3565b9050919050565b6000819050919050565b6200057b836200053e565b620005936200058a8262000566565b848454620004de565b825550505050565b600090565b620005aa6200059b565b620005b781848462000570565b505050565b5b81811015620005df57620005d3600082620005a0565b600181019050620005bd565b5050565b601f8211156200062e57620005f881620004ac565b6200060384620004c1565b8101602085101562000613578190505b6200062b6200062285620004c1565b830182620005bc565b50505b505050565b600082821c905092915050565b6000620006536000198460080262000633565b1980831691505092915050565b60006200066e838362000640565b9150826002028217905092915050565b62000689826200043d565b67ffffffffffffffff811115620006a557620006a46200010a565b5b620006b1825462000477565b620006be828285620005e3565b600060209050601f831160018114620006f65760008415620006e1578287015190505b620006ed858262000660565b8655506200075d565b601f1984166200070686620004ac565b60005b82811015620007305784890151825560018201915060208501945060208101905062000709565b868310156200075057848901516200074c601f89168262000640565b8355505b6001600288020188555050505b505050505050565b610c5280620007756000396000f3fe608060405234801561001057600080fd5b50600436106100a95760003560e01c8063bc43400311610071578063bc4340031461014a578063c9230c5d14610168578063df8c718814610186578063e3e21307146101a2578063f21c9aec146101d2578063f5bf1911146101f0576100a9565b806307aa178a146100ae5780631922cde6146100cc5780639d1b26e9146100ea5780639dfc911714610108578063ab8c71c01461012c575b600080fd5b6100b6610220565b6040516100c39190610913565b60405180910390f35b6100d46102ae565b6040516100e19190610976565b60405180910390f35b6100f26102d4565b6040516100ff9190610913565b60405180910390f35b610110610362565b60405161012397969594939291906109aa565b60405180910390f35b6101346105e6565b6040516101419190610913565b60405180910390f35b610152610674565b60405161015f9190610a35565b60405180910390f35b61017061067a565b60405161017d9190610913565b60405180910390f35b6101a0600480360381019061019b9190610a81565b610708565b005b6101bc60048036038101906101b79190610a81565b610807565b6040516101c99190610ac9565b60405180910390f35b6101da61085d565b6040516101e79190610a35565b60405180910390f35b61020a60048036038101906102059190610a81565b610863565b6040516102179190610ac9565b60405180910390f35b6005805461022d90610b13565b80601f016020809104026020016040519081016040528092919081815260200182805461025990610b13565b80156102a65780601f1061027b576101008083540402835291602001916102a6565b820191906000526020600020905b81548152906001019060200180831161028957829003601f168201915b505050505081565b600160009054906101000a900473ffffffffffffffffffffffffffffffffffffffff1681565b600080546102e190610b13565b80601f016020809104026020016040519081016040528092919081815260200182805461030d90610b13565b801561035a5780601f1061032f5761010080835404028352916020019161035a565b820191906000526020600020905b81548152906001019060200180831161033d57829003601f168201915b505050505081565b6060600060606000806060806000600160009054906101000a900473ffffffffffffffffffffffffffffffffffffffff166002600354600454600560068680546103ab90610b13565b80601f01602080910402602001604051908101604052809291908181526020018280546103d790610b13565b80156104245780601f106103f957610100808354040283529160200191610424565b820191906000526020600020905b81548152906001019060200180831161040757829003601f168201915b5050505050965084805461043790610b13565b80601f016020809104026020016040519081016040528092919081815260200182805461046390610b13565b80156104b05780601f10610485576101008083540402835291602001916104b0565b820191906000526020600020905b81548152906001019060200180831161049357829003601f168201915b505050505094508180546104c390610b13565b80601f01602080910402602001604051908101604052809291908181526020018280546104ef90610b13565b801561053c5780601f106105115761010080835404028352916020019161053c565b820191906000526020600020905b81548152906001019060200180831161051f57829003601f168201915b5050505050915080805461054f90610b13565b80601f016020809104026020016040519081016040528092919081815260200182805461057b90610b13565b80156105c85780601f1061059d576101008083540402835291602001916105c8565b820191906000526020600020905b8154815290600101906020018083116105ab57829003601f168201915b50505050509050965096509650965096509650965090919293949596565b600280546105f390610b13565b80601f016020809104026020016040519081016040528092919081815260200182805461061f90610b13565b801561066c5780601f106106415761010080835404028352916020019161066c565b820191906000526020600020905b81548152906001019060200180831161064f57829003601f168201915b505050505081565b60035481565b6006805461068790610b13565b80601f01602080910402602001604051908101604052809291908181526020018280546106b390610b13565b80156107005780601f106106d557610100808354040283529160200191610700565b820191906000526020600020905b8154815290600101906020018083116106e357829003601f168201915b505050505081565b600073ffffffffffffffffffffffffffffffffffffffff168173ffffffffffffffffffffffffffffffffffffffff1603610777576040517f08c379a000000000000000000000000000000000000000000000000000000000815260040161076e90610b90565b60405180910390fd5b6001600760008373ffffffffffffffffffffffffffffffffffffffff1673ffffffffffffffffffffffffffffffffffffffff16815260200190815260200160002060006101000a81548160ff0219169083151502179055507f68f068b2f0d02fca99bc8285b62fce8668fe16b7c6a810351ea25bff358c0dd86040516107fc90610bfc565b60405180910390a150565b6000600760008373ffffffffffffffffffffffffffffffffffffffff1673ffffffffffffffffffffffffffffffffffffffff16815260200190815260200160002060009054906101000a900460ff169050919050565b60045481565b60076020528060005260406000206000915054906101000a900460ff1681565b600081519050919050565b600082825260208201905092915050565b60005b838110156108bd5780820151818401526020810190506108a2565b60008484015250505050565b6000601f19601f8301169050919050565b60006108e582610883565b6108ef818561088e565b93506108ff81856020860161089f565b610908816108c9565b840191505092915050565b6000602082019050818103600083015261092d81846108da565b905092915050565b600073ffffffffffffffffffffffffffffffffffffffff82169050919050565b600061096082610935565b9050919050565b61097081610955565b82525050565b600060208201905061098b6000830184610967565b92915050565b6000819050919050565b6109a481610991565b82525050565b600060e08201905081810360008301526109c4818a6108da565b90506109d36020830189610967565b81810360408301526109e581886108da565b90506109f4606083018761099b565b610a01608083018661099b565b81810360a0830152610a1381856108da565b905081810360c0830152610a2781846108da565b905098975050505050505050565b6000602082019050610a4a600083018461099b565b92915050565b600080fd5b610a5e81610955565b8114610a6957600080fd5b50565b600081359050610a7b81610a55565b92915050565b600060208284031215610a9757610a96610a50565b5b6000610aa584828501610a6c565b91505092915050565b60008115159050919050565b610ac381610aae565b82525050565b6000602082019050610ade6000830184610aba565b92915050565b7f4e487b7100000000000000000000000000000000000000000000000000000000600052602260045260246000fd5b60006002820490506001821680610b2b57607f821691505b602082108103610b3e57610b3d610ae4565b5b50919050565b7f496e76616c696420757365722061646472657373000000000000000000000000600082015250565b6000610b7a60148361088e565b9150610b8582610b44565b602082019050919050565b60006020820190508181036000830152610ba981610b6d565b9050919050565b7f5472616e73616374696f6e207375636365737366756c00000000000000000000600082015250565b6000610be660168361088e565b9150610bf182610bb0565b602082019050919050565b60006020820190508181036000830152610c1581610bd9565b905091905056fea26469706673582212204caf31d31ac257ecf38adcf0d1e5e90bf454f20613b4288252695cbabf30a9f064736f6c63430008130033a26469706673582212203a11741ea4b85f13ab63b5e1fa8591395ba835362bb32d4c4e9ac76fd394693264736f6c63430008130033",
  "immutableReferences": {},
  "source": "// SPDX-License-Identifier: MIT\r\npragma solidity >=0.7.0 <0.9.0;\r\n\r\nimport \"./ChildContract.sol\";\r\n\r\n\r\ncontract PolicyManager {\r\n\r\n    address public owner;\r\n    // mapping(address => address) public userToChildContract;\r\n    mapping(string => mapping(string => mapping(string => bool))) private attributeToAssetToContractExists;\r\n    ChildContract[] policies;\r\n\r\n    // Array to store metadata about the deployed contracts\r\n    struct ContractMetadata {\r\n        address contractAddress;\r\n        string assetName;\r\n    }\r\n  \r\n    ContractMetadata[] public deployedContracts;\r\n\r\n    event ChildContractCreated(string indexed attribute, address childContract);\r\n\r\n    constructor() {\r\n        owner = msg.sender;\r\n    }\r\n\r\n    event success(string msg);\r\n\r\n    function createChildContract(\r\n        string memory _userAttribute,\r\n        address _dataOwnerAddress,\r\n        string memory _permissions,\r\n        uint256 _accessFrom,\r\n        uint256 _accessTo,\r\n        string memory _assetCID,\r\n        string memory _assetName\r\n    ) external {\r\n\r\n        // Log additional information about the parameters\r\n    // emit LogParameters(_userAddress, _dataOwnerAddress, _permissions, _accessFrom, _accessTo, _assetCID);\r\n\r\n        require(_dataOwnerAddress != address(0), \"Invalid data owner address\");\r\n        require(_dataOwnerAddress == owner, \"Only owner can invoke the child contract creation\");\r\n        require(_accessFrom < _accessTo, \"Invalid access time, accessFrom should be less than accessTo\");\r\n        // Check if a child contract already exists for this user and permissions\r\n        require(!attributeToAssetToContractExists[_userAttribute][_permissions][_assetCID], \"Policy Contract already exists for this attribute, specific to this asset\");\r\n        \r\n        ChildContract childContract = new ChildContract(_userAttribute,\r\n            _dataOwnerAddress,\r\n            _permissions,\r\n            _accessFrom,\r\n            _accessTo,\r\n            _assetCID,\r\n            _assetName);\r\n\r\n        policies.push(childContract);\r\n\r\n        // Add metadata about the deployed contract\r\n        //  deployedContracts.push(ContractMetadata({\r\n        //     contractAddress: address(childContract),\r\n        //     assetName: _assetName\r\n        // }));\r\n\r\n        // console.log(\"Child contract address: %s\", address(childContract));\r\n        // attributeToAssetToContractExists[_userAttribute][_permissions][_assetCID] = true;\r\n\r\n        emit ChildContractCreated(_userAttribute, address(childContract));\r\n        emit success('User Policy Definitions registered successfully!!');\r\n        // return address(childContract);\r\n    }\r\n\r\n    // function validateAccess(string memory _userAttribute) public view returns (bool) {\r\n    //     require(_userAddress != address(0), \"Invalid user address\");\r\n\r\n    //     address childContractAddress = attributeToAssetToContractExists[_userAttribute];\r\n    //     require(childContractAddress != address(0), \"Child contract not found\");\r\n\r\n    //     return ChildContract(childContractAddress).validateAccess();\r\n    // }\r\n\r\n    function getPolicyCount(address _userAddress) public {\r\n        require(_userAddress != address(0), \"Invalid user address\");\r\n        emit success(\"Policy count, address found\");\r\n    }\r\n\r\n    function getDeployedContractsCount() public view returns (uint256) {\r\n        return deployedContracts.length;\r\n    }\r\n\r\n    function getContractMetadata(uint256 index) public view returns (address, string memory) {\r\n        require(index < deployedContracts.length, \"Invalid index\");\r\n        ContractMetadata memory metadata = deployedContracts[index];\r\n        return (metadata.contractAddress, metadata.assetName);\r\n    }\r\n\r\n    // New function to retrieve metadata about deployed contracts\r\n    // function getContractMetadata(uint256 index) public view returns (address, string memory) {\r\n    //     require(index < deployedContracts.length, \"Invalid index\");\r\n    //     return (deployedContracts[index].childContract, deployedContracts[index].assetName);\r\n    // }\r\n}\r\n\r\n\r\n",
  "sourcePath": "C:\\Users\\sheej\\OneDrive\\Desktop\\Thesis\\Thesis\\contracts\\PolicyManager.sol",
  "compiler": {
    "name": "solc",
    "version": "0.8.19+commit.7dd6d404.Emscripten.clang"
  },
  "schemaVersion": "3.4.16",
  "updatedAt": "2023-10-19T12:38:42.017Z",
  "networkType": "ethereum",
  "devdoc": {
    "kind": "dev",
    "methods": {},
    "version": 1
  },
  "userdoc": {
    "kind": "user",
    "methods": {},
    "version": 1
  }
}