{
  "contractName": "PolicyManager",
  "abi": [
    {
      "inputs": [],
      "stateMutability": "nonpayable",
      "type": "constructor"
    },
    {
      "anonymous": false,
      "inputs": [
        {
          "indexed": true,
          "internalType": "address",
          "name": "creator",
          "type": "address"
        },
        {
          "indexed": false,
          "internalType": "address",
          "name": "smartContractAddress",
          "type": "address"
        },
        {
          "indexed": true,
          "internalType": "address",
          "name": "dataRequester",
          "type": "address"
        },
        {
          "indexed": false,
          "internalType": "string",
          "name": "permission",
          "type": "string"
        },
        {
          "indexed": false,
          "internalType": "uint256",
          "name": "access_from",
          "type": "uint256"
        },
        {
          "indexed": false,
          "internalType": "uint256",
          "name": "access_to",
          "type": "uint256"
        }
      ],
      "name": "NewSmartContract",
      "type": "event"
    },
    {
      "anonymous": false,
      "inputs": [
        {
          "indexed": false,
          "internalType": "string",
          "name": "msg",
          "type": "string"
        }
      ],
      "name": "success",
      "type": "event"
    },
    {
      "inputs": [
        {
          "internalType": "address",
          "name": "",
          "type": "address"
        }
      ],
      "name": "dataRequesterList",
      "outputs": [
        {
          "internalType": "bool",
          "name": "registered",
          "type": "bool"
        },
        {
          "internalType": "bool",
          "name": "hasAccess",
          "type": "bool"
        }
      ],
      "stateMutability": "view",
      "type": "function",
      "constant": true
    },
    {
      "inputs": [],
      "name": "owner",
      "outputs": [
        {
          "internalType": "address",
          "name": "",
          "type": "address"
        }
      ],
      "stateMutability": "view",
      "type": "function",
      "constant": true
    },
    {
      "inputs": [
        {
          "internalType": "uint256",
          "name": "",
          "type": "uint256"
        }
      ],
      "name": "userList",
      "outputs": [
        {
          "internalType": "address",
          "name": "userAddress",
          "type": "address"
        },
        {
          "internalType": "bool",
          "name": "hasAccess",
          "type": "bool"
        },
        {
          "internalType": "string",
          "name": "access_type",
          "type": "string"
        },
        {
          "internalType": "string",
          "name": "permissions",
          "type": "string"
        },
        {
          "internalType": "uint256",
          "name": "access_from",
          "type": "uint256"
        },
        {
          "internalType": "uint256",
          "name": "access_to",
          "type": "uint256"
        }
      ],
      "stateMutability": "view",
      "type": "function",
      "constant": true
    },
    {
      "inputs": [
        {
          "internalType": "address",
          "name": "",
          "type": "address"
        }
      ],
      "name": "users",
      "outputs": [
        {
          "internalType": "uint256",
          "name": "",
          "type": "uint256"
        }
      ],
      "stateMutability": "view",
      "type": "function",
      "constant": true
    },
    {
      "inputs": [
        {
          "internalType": "string",
          "name": "_permissions",
          "type": "string"
        },
        {
          "internalType": "uint256",
          "name": "_access_from",
          "type": "uint256"
        },
        {
          "internalType": "string",
          "name": "_accessType",
          "type": "string"
        },
        {
          "internalType": "uint256",
          "name": "_access_to",
          "type": "uint256"
        },
        {
          "internalType": "bool",
          "name": "_hasAccess",
          "type": "bool"
        },
        {
          "internalType": "address",
          "name": "_userAddress",
          "type": "address"
        }
      ],
      "name": "registerUsers",
      "outputs": [],
      "stateMutability": "nonpayable",
      "type": "function"
    }
  ],
  "bytecode": "0x608060405234801561000f575f80fd5b50335f806101000a81548173ffffffffffffffffffffffffffffffffffffffff021916908373ffffffffffffffffffffffffffffffffffffffff160217905550610ff28061005c5f395ff3fe608060405234801561000f575f80fd5b5060043610610055575f3560e01c80638da5cb5b146100595780639f4216e814610077578063a87430ba146100ac578063d178bdfe146100dc578063f56c283d146100f8575b5f80fd5b610061610129565b60405161006e91906106b3565b60405180910390f35b610091600480360381019061008c9190610710565b61014c565b6040516100a3969594939291906107ee565b60405180910390f35b6100c660048036038101906100c19190610885565b6102ca565b6040516100d391906108b0565b60405180910390f35b6100f660048036038101906100f19190610a1f565b6102df565b005b610112600480360381019061010d9190610885565b61063c565b604051610120929190610ae0565b60405180910390f35b5f8054906101000a900473ffffffffffffffffffffffffffffffffffffffff1681565b6002818154811061015b575f80fd5b905f5260205f2090600502015f91509050805f015f9054906101000a900473ffffffffffffffffffffffffffffffffffffffff1690805f0160149054906101000a900460ff16908060010180546101b190610b34565b80601f01602080910402602001604051908101604052809291908181526020018280546101dd90610b34565b80156102285780601f106101ff57610100808354040283529160200191610228565b820191905f5260205f20905b81548152906001019060200180831161020b57829003601f168201915b50505050509080600201805461023d90610b34565b80601f016020809104026020016040519081016040528092919081815260200182805461026990610b34565b80156102b45780601f1061028b576101008083540402835291602001916102b4565b820191905f5260205f20905b81548152906001019060200180831161029757829003601f168201915b5050505050908060030154908060040154905086565b6001602052805f5260405f205f915090505481565b5f8054906101000a900473ffffffffffffffffffffffffffffffffffffffff1673ffffffffffffffffffffffffffffffffffffffff163373ffffffffffffffffffffffffffffffffffffffff161461036c576040517f08c379a000000000000000000000000000000000000000000000000000000000815260040161036390610bae565b60405180910390fd5b5f8054906101000a900473ffffffffffffffffffffffffffffffffffffffff1673ffffffffffffffffffffffffffffffffffffffff168173ffffffffffffffffffffffffffffffffffffffff16036103f9576040517f08c379a00000000000000000000000000000000000000000000000000000000081526004016103f090610c16565b60405180910390fd5b5f60015f8373ffffffffffffffffffffffffffffffffffffffff1673ffffffffffffffffffffffffffffffffffffffff1681526020019081526020015f205414610478576040517f08c379a000000000000000000000000000000000000000000000000000000000815260040161046f90610ca4565b60405180910390fd5b5f6040518060c001604052808373ffffffffffffffffffffffffffffffffffffffff16815260200184151581526020018681526020018881526020018781526020018581525090505f600280549050036104e957600260018160018154018082558091505003905f5260205f209050505b60028054905060015f8473ffffffffffffffffffffffffffffffffffffffff1673ffffffffffffffffffffffffffffffffffffffff1681526020019081526020015f2081905550600281908060018154018082558091505060019003905f5260205f2090600502015f909190919091505f820151815f015f6101000a81548173ffffffffffffffffffffffffffffffffffffffff021916908373ffffffffffffffffffffffffffffffffffffffff1602179055506020820151815f0160146101000a81548160ff02191690831515021790555060408201518160010190816105d19190610e5f565b5060608201518160020190816105e79190610e5f565b506080820151816003015560a0820151816004015550507f68f068b2f0d02fca99bc8285b62fce8668fe16b7c6a810351ea25bff358c0dd860405161062b90610f9e565b60405180910390a150505050505050565b6003602052805f5260405f205f91509050805f015f9054906101000a900460ff1690805f0160019054906101000a900460ff16905082565b5f73ffffffffffffffffffffffffffffffffffffffff82169050919050565b5f61069d82610674565b9050919050565b6106ad81610693565b82525050565b5f6020820190506106c65f8301846106a4565b92915050565b5f604051905090565b5f80fd5b5f80fd5b5f819050919050565b6106ef816106dd565b81146106f9575f80fd5b50565b5f8135905061070a816106e6565b92915050565b5f60208284031215610725576107246106d5565b5b5f610732848285016106fc565b91505092915050565b5f8115159050919050565b61074f8161073b565b82525050565b5f81519050919050565b5f82825260208201905092915050565b5f5b8381101561078c578082015181840152602081019050610771565b5f8484015250505050565b5f601f19601f8301169050919050565b5f6107b182610755565b6107bb818561075f565b93506107cb81856020860161076f565b6107d481610797565b840191505092915050565b6107e8816106dd565b82525050565b5f60c0820190506108015f8301896106a4565b61080e6020830188610746565b818103604083015261082081876107a7565b9050818103606083015261083481866107a7565b905061084360808301856107df565b61085060a08301846107df565b979650505050505050565b61086481610693565b811461086e575f80fd5b50565b5f8135905061087f8161085b565b92915050565b5f6020828403121561089a576108996106d5565b5b5f6108a784828501610871565b91505092915050565b5f6020820190506108c35f8301846107df565b92915050565b5f80fd5b5f80fd5b7f4e487b71000000000000000000000000000000000000000000000000000000005f52604160045260245ffd5b61090782610797565b810181811067ffffffffffffffff82111715610926576109256108d1565b5b80604052505050565b5f6109386106cc565b905061094482826108fe565b919050565b5f67ffffffffffffffff821115610963576109626108d1565b5b61096c82610797565b9050602081019050919050565b828183375f83830152505050565b5f61099961099484610949565b61092f565b9050828152602081018484840111156109b5576109b46108cd565b5b6109c0848285610979565b509392505050565b5f82601f8301126109dc576109db6108c9565b5b81356109ec848260208601610987565b91505092915050565b6109fe8161073b565b8114610a08575f80fd5b50565b5f81359050610a19816109f5565b92915050565b5f805f805f8060c08789031215610a3957610a386106d5565b5b5f87013567ffffffffffffffff811115610a5657610a556106d9565b5b610a6289828a016109c8565b9650506020610a7389828a016106fc565b955050604087013567ffffffffffffffff811115610a9457610a936106d9565b5b610aa089828a016109c8565b9450506060610ab189828a016106fc565b9350506080610ac289828a01610a0b565b92505060a0610ad389828a01610871565b9150509295509295509295565b5f604082019050610af35f830185610746565b610b006020830184610746565b9392505050565b7f4e487b71000000000000000000000000000000000000000000000000000000005f52602260045260245ffd5b5f6002820490506001821680610b4b57607f821691505b602082108103610b5e57610b5d610b07565b5b50919050565b7f4f6e6c79206f776e65722063616e2072656769737465722055736572000000005f82015250565b5f610b98601c8361075f565b9150610ba382610b64565b602082019050919050565b5f6020820190508181035f830152610bc581610b8c565b9050919050565b7f4f776e65722063616e6e6f7420626520612075736572000000000000000000005f82015250565b5f610c0060168361075f565b9150610c0b82610bcc565b602082019050919050565b5f6020820190508181035f830152610c2d81610bf4565b9050919050565b7f446174612052657175657374657220616c7265616479207265676973746572655f8201527f6400000000000000000000000000000000000000000000000000000000000000602082015250565b5f610c8e60218361075f565b9150610c9982610c34565b604082019050919050565b5f6020820190508181035f830152610cbb81610c82565b9050919050565b5f819050815f5260205f209050919050565b5f6020601f8301049050919050565b5f82821b905092915050565b5f60088302610d1e7fffffffffffffffffffffffffffffffffffffffffffffffffffffffffffffffff82610ce3565b610d288683610ce3565b95508019841693508086168417925050509392505050565b5f819050919050565b5f610d63610d5e610d59846106dd565b610d40565b6106dd565b9050919050565b5f819050919050565b610d7c83610d49565b610d90610d8882610d6a565b848454610cef565b825550505050565b5f90565b610da4610d98565b610daf818484610d73565b505050565b5b81811015610dd257610dc75f82610d9c565b600181019050610db5565b5050565b601f821115610e1757610de881610cc2565b610df184610cd4565b81016020851015610e00578190505b610e14610e0c85610cd4565b830182610db4565b50505b505050565b5f82821c905092915050565b5f610e375f1984600802610e1c565b1980831691505092915050565b5f610e4f8383610e28565b9150826002028217905092915050565b610e6882610755565b67ffffffffffffffff811115610e8157610e806108d1565b5b610e8b8254610b34565b610e96828285610dd6565b5f60209050601f831160018114610ec7575f8415610eb5578287015190505b610ebf8582610e44565b865550610f26565b601f198416610ed586610cc2565b5f5b82811015610efc57848901518255600182019150602085019450602081019050610ed7565b86831015610f195784890151610f15601f891682610e28565b8355505b6001600288020188555050505b505050505050565b7f4461746120526571756573746572207375636365737366756c6c7920726567695f8201527f73746572656420616e642077686974656c697374656400000000000000000000602082015250565b5f610f8860368361075f565b9150610f9382610f2e565b604082019050919050565b5f6020820190508181035f830152610fb581610f7c565b905091905056fea2646970667358221220fa6ff0e8c187ea6254257a9f3c0cff0560126319bff9d8941a4a55c5c49cdc6c64736f6c63430008150033",
  "immutableReferences": {},
  "source": "// SPDX-License-Identifier: MIT\r\npragma solidity ^0.8.6;\r\n\r\nimport \"./ChildContract.sol\";\r\n\r\ncontract PolicyManager {\r\n\r\n    address public owner;\r\n\r\n    struct User {\r\n        address userAddress;\r\n        bool hasAccess;\r\n        string access_type;\r\n        string permissions;\r\n        uint256 access_from;\r\n        uint256 access_to;\r\n    }\r\n\r\n    mapping(address => uint) public users;\r\n    User[] public userList;\r\n\r\n    struct DataRequester {\r\n        bool registered;\r\n        bool hasAccess;\r\n    }\r\n\r\n    event success(string msg);\r\n\r\n    event NewSmartContract(\r\n        address indexed creator,\r\n        address smartContractAddress,\r\n        address indexed dataRequester,\r\n        string permission,\r\n        uint256 access_from,\r\n        uint256 access_to\r\n    );\r\n\r\n    mapping(address => DataRequester) public dataRequesterList;\r\n\r\n    constructor() {\r\n        owner = msg.sender;\r\n    }\r\n\r\n    function registerUsers(\r\n        string memory _permissions,\r\n        uint256 _access_from,\r\n        string memory _accessType,\r\n        uint256 _access_to,\r\n        bool _hasAccess,\r\n        address _userAddress\r\n    ) public {\r\n        require(msg.sender == owner, \"Only owner can register User\");\r\n        require(_userAddress != owner, \"Owner cannot be a user\");\r\n        require(users[_userAddress] == 0, \"Data Requester already registered\");\r\n        User memory user = User({\r\n            userAddress: _userAddress,\r\n            hasAccess: _hasAccess,\r\n            permissions: _permissions,\r\n            access_from: _access_from,\r\n            access_to: _access_to,\r\n            access_type: _accessType\r\n        });\r\n\r\n        if (userList.length == 0) {\r\n            userList.push(); // not pushing any user at location zero\r\n        }\r\n        users[_userAddress] = userList.length;\r\n        userList.push(user);\r\n        emit success(\"Data Requester successfully registered and whitelisted\");\r\n    }\r\n\r\n    // function spawnChildContract() public {\r\n    //     require(msg.sender == owner, \"Only owner can spawn child contract\");\r\n\r\n    //     ChildContract childContract = new ChildContract();\r\n\r\n    //     // You can further interact with the child contract if needed\r\n\r\n    //     emit NewSmartContract(msg.sender, address(childContract), address(0), \"\", 0, 0);\r\n    // }\r\n\r\n    //  function getChildContractPolicy(address childAddress, address userAddress) public view returns (ChildContract.PolicyData memory) {\r\n    //     return ChildContract(childAddress).getPolicy(userAddress);\r\n    // }\r\n\r\n    // function validateChildContractAccess(address childAddress, address userAddress) public view returns (bool) {\r\n    //     return ChildContract(childAddress).validateAccess(userAddress);\r\n    // }\r\n}\r\n",
  "sourcePath": "C:\\Users\\sheej\\OneDrive\\Desktop\\Thesis\\Thesis\\contracts\\PolicyManager.sol",
  "compiler": {
    "name": "solc",
    "version": "0.8.21+commit.d9974bed.Emscripten.clang"
  },
  "schemaVersion": "3.4.16",
  "updatedAt": "2023-10-03T11:46:47.910Z",
  "networkType": "ethereum",
  "devdoc": {
    "kind": "dev",
    "methods": {},
    "version": 1
  },
  "userdoc": {
    "kind": "user",
    "methods": {},
    "version": 1
  }
}