{
  "contractName": "PolicyManager",
  "abi": [
    {
      "anonymous": false,
      "inputs": [
        {
          "indexed": true,
          "internalType": "string",
          "name": "group",
          "type": "string"
        },
        {
          "indexed": false,
          "internalType": "address",
          "name": "childContract",
          "type": "address"
        },
        {
          "indexed": false,
          "internalType": "string",
          "name": "message",
          "type": "string"
        }
      ],
      "name": "GroupContractCreated",
      "type": "event"
    },
    {
      "inputs": [
        {
          "internalType": "string",
          "name": "_groupName",
          "type": "string"
        },
        {
          "internalType": "string",
          "name": "_permissions",
          "type": "string"
        },
        {
          "internalType": "string[]",
          "name": "_organizations",
          "type": "string[]"
        },
        {
          "internalType": "string[]",
          "name": "_countries",
          "type": "string[]"
        }
      ],
      "name": "createGroupContract",
      "outputs": [],
      "stateMutability": "nonpayable",
      "type": "function"
    },
    {
      "inputs": [
        {
          "internalType": "address",
          "name": "ownerAddress",
          "type": "address"
        }
      ],
      "name": "getGroupContractAddresses",
      "outputs": [
        {
          "internalType": "address[]",
          "name": "",
          "type": "address[]"
        }
      ],
      "stateMutability": "view",
      "type": "function",
      "constant": true
    }
  ],
  "bytecode": "0x608060405234801561001057600080fd5b5061369b806100206000396000f3fe60806040523480156200001157600080fd5b50600436106200003a5760003560e01c8063069764d5146200003f57806324d3d88c146200005f575b600080fd5b6200005d6004803603810190620000579190620005d8565b62000095565b005b6200007d60048036038101906200007791906200072b565b6200028a565b6040516200008c91906200082b565b60405180910390f35b600073ffffffffffffffffffffffffffffffffffffffff163373ffffffffffffffffffffffffffffffffffffffff160362000107576040517f08c379a0000000000000000000000000000000000000000000000000000000008152600401620000fe90620008b0565b60405180910390fd5b60008451116200014e576040517f08c379a0000000000000000000000000000000000000000000000000000000008152600401620001459062000922565b60405180910390fd5b60008433858585604051620001639062000358565b6200017395949392919062000aef565b604051809103906000f08015801562000190573d6000803e3d6000fd5b5090506000803373ffffffffffffffffffffffffffffffffffffffff1673ffffffffffffffffffffffffffffffffffffffff168152602001908152602001600020819080600181540180825580915050600190039060005260206000200160009091909190916101000a81548173ffffffffffffffffffffffffffffffffffffffff021916908373ffffffffffffffffffffffffffffffffffffffff1602179055508460405162000242919062000baa565b60405180910390207f0f97896a589a9acdf7fd3390056835f3151a8ba7287471ef8c09708a8fd7ff18826040516200027b919062000c39565b60405180910390a25050505050565b60606000808373ffffffffffffffffffffffffffffffffffffffff1673ffffffffffffffffffffffffffffffffffffffff1681526020019081526020016000208054806020026020016040519081016040528092919081815260200182805480156200034c57602002820191906000526020600020905b8160009054906101000a900473ffffffffffffffffffffffffffffffffffffffff1673ffffffffffffffffffffffffffffffffffffffff168152602001906001019080831162000301575b50505050509050919050565b6129fa8062000c6c83390190565b6000604051905090565b600080fd5b600080fd5b600080fd5b600080fd5b6000601f19601f8301169050919050565b7f4e487b7100000000000000000000000000000000000000000000000000000000600052604160045260246000fd5b620003cf8262000384565b810181811067ffffffffffffffff82111715620003f157620003f062000395565b5b80604052505050565b60006200040662000366565b9050620004148282620003c4565b919050565b600067ffffffffffffffff82111562000437576200043662000395565b5b620004428262000384565b9050602081019050919050565b82818337600083830152505050565b6000620004756200046f8462000419565b620003fa565b9050828152602081018484840111156200049457620004936200037f565b5b620004a18482856200044f565b509392505050565b600082601f830112620004c157620004c06200037a565b5b8135620004d38482602086016200045e565b91505092915050565b600067ffffffffffffffff821115620004fa57620004f962000395565b5b602082029050602081019050919050565b600080fd5b6000620005276200052184620004dc565b620003fa565b905080838252602082019050602084028301858111156200054d576200054c6200050b565b5b835b818110156200059b57803567ffffffffffffffff8111156200057657620005756200037a565b5b808601620005858982620004a9565b855260208501945050506020810190506200054f565b5050509392505050565b600082601f830112620005bd57620005bc6200037a565b5b8135620005cf84826020860162000510565b91505092915050565b60008060008060808587031215620005f557620005f462000370565b5b600085013567ffffffffffffffff81111562000616576200061562000375565b5b6200062487828801620004a9565b945050602085013567ffffffffffffffff81111562000648576200064762000375565b5b6200065687828801620004a9565b935050604085013567ffffffffffffffff8111156200067a576200067962000375565b5b6200068887828801620005a5565b925050606085013567ffffffffffffffff811115620006ac57620006ab62000375565b5b620006ba87828801620005a5565b91505092959194509250565b600073ffffffffffffffffffffffffffffffffffffffff82169050919050565b6000620006f382620006c6565b9050919050565b6200070581620006e6565b81146200071157600080fd5b50565b6000813590506200072581620006fa565b92915050565b60006020828403121562000744576200074362000370565b5b6000620007548482850162000714565b91505092915050565b600081519050919050565b600082825260208201905092915050565b6000819050602082019050919050565b6200079481620006e6565b82525050565b6000620007a8838362000789565b60208301905092915050565b6000602082019050919050565b6000620007ce826200075d565b620007da818562000768565b9350620007e78362000779565b8060005b838110156200081e5781516200080288826200079a565b97506200080f83620007b4565b925050600181019050620007eb565b5085935050505092915050565b60006020820190508181036000830152620008478184620007c1565b905092915050565b600082825260208201905092915050565b7f496e76616c69642064617461206f776e65722061646472657373000000000000600082015250565b600062000898601a836200084f565b9150620008a58262000860565b602082019050919050565b60006020820190508181036000830152620008cb8162000889565b9050919050565b7f47726f7570206e616d652063616e6e6f7420626520656d707479000000000000600082015250565b60006200090a601a836200084f565b91506200091782620008d2565b602082019050919050565b600060208201905081810360008301526200093d81620008fb565b9050919050565b600081519050919050565b60005b838110156200096f57808201518184015260208101905062000952565b60008484015250505050565b6000620009888262000944565b6200099481856200084f565b9350620009a68185602086016200094f565b620009b18162000384565b840191505092915050565b620009c781620006e6565b82525050565b600081519050919050565b600082825260208201905092915050565b6000819050602082019050919050565b600082825260208201905092915050565b600062000a178262000944565b62000a238185620009f9565b935062000a358185602086016200094f565b62000a408162000384565b840191505092915050565b600062000a59838362000a0a565b905092915050565b6000602082019050919050565b600062000a7b82620009cd565b62000a878185620009d8565b93508360208202850162000a9b85620009e9565b8060005b8581101562000add578484038952815162000abb858262000a4b565b945062000ac88362000a61565b925060208a0199505060018101905062000a9f565b50829750879550505050505092915050565b600060a082019050818103600083015262000b0b81886200097b565b905062000b1c6020830187620009bc565b818103604083015262000b3081866200097b565b9050818103606083015262000b46818562000a6e565b9050818103608083015262000b5c818462000a6e565b90509695505050505050565b600081905092915050565b600062000b808262000944565b62000b8c818562000b68565b935062000b9e8185602086016200094f565b80840191505092915050565b600062000bb8828462000b73565b915081905092915050565b7f47726f757020636f6e747261637420637265617465642073756363657373667560008201527f6c6c792121000000000000000000000000000000000000000000000000000000602082015250565b600062000c216025836200084f565b915062000c2e8262000bc3565b604082019050919050565b600060408201905062000c506000830184620009bc565b818103602083015262000c638162000c12565b90509291505056fe60806040523480156200001157600080fd5b50604051620029fa380380620029fa83398181016040528101906200003791906200051a565b6040518060a001604052808681526020018573ffffffffffffffffffffffffffffffffffffffff16815260200184815260200183815260200182815250600360008201518160000190816200008d919062000869565b5060208201518160010160006101000a81548173ffffffffffffffffffffffffffffffffffffffff021916908373ffffffffffffffffffffffffffffffffffffffff1602179055506040820151816002019081620000ec919062000869565b5060608201518160030190805190602001906200010b92919062000139565b5060808201518160040190805190602001906200012a92919062000139565b50905050505050505062000950565b82805482825590600052602060002090810192821562000186579160200282015b828111156200018557825182908162000174919062000869565b50916020019190600101906200015a565b5b50905062000195919062000199565b5090565b5b80821115620001bd5760008181620001b39190620001c1565b506001016200019a565b5090565b508054620001cf9062000658565b6000825580601f10620001e3575062000204565b601f01602090049060005260206000209081019062000203919062000207565b5b50565b5b808211156200022257600081600090555060010162000208565b5090565b6000604051905090565b600080fd5b600080fd5b600080fd5b600080fd5b6000601f19601f8301169050919050565b7f4e487b7100000000000000000000000000000000000000000000000000000000600052604160045260246000fd5b6200028f8262000244565b810181811067ffffffffffffffff82111715620002b157620002b062000255565b5b80604052505050565b6000620002c662000226565b9050620002d4828262000284565b919050565b600067ffffffffffffffff821115620002f757620002f662000255565b5b620003028262000244565b9050602081019050919050565b60005b838110156200032f57808201518184015260208101905062000312565b60008484015250505050565b6000620003526200034c84620002d9565b620002ba565b9050828152602081018484840111156200037157620003706200023f565b5b6200037e8482856200030f565b509392505050565b600082601f8301126200039e576200039d6200023a565b5b8151620003b08482602086016200033b565b91505092915050565b600073ffffffffffffffffffffffffffffffffffffffff82169050919050565b6000620003e682620003b9565b9050919050565b620003f881620003d9565b81146200040457600080fd5b50565b6000815190506200041881620003ed565b92915050565b600067ffffffffffffffff8211156200043c576200043b62000255565b5b602082029050602081019050919050565b600080fd5b60006200046962000463846200041e565b620002ba565b905080838252602082019050602084028301858111156200048f576200048e6200044d565b5b835b81811015620004dd57805167ffffffffffffffff811115620004b857620004b76200023a565b5b808601620004c7898262000386565b8552602085019450505060208101905062000491565b5050509392505050565b600082601f830112620004ff57620004fe6200023a565b5b81516200051184826020860162000452565b91505092915050565b600080600080600060a0868803121562000539576200053862000230565b5b600086015167ffffffffffffffff8111156200055a576200055962000235565b5b620005688882890162000386565b95505060206200057b8882890162000407565b945050604086015167ffffffffffffffff8111156200059f576200059e62000235565b5b620005ad8882890162000386565b935050606086015167ffffffffffffffff811115620005d157620005d062000235565b5b620005df88828901620004e7565b925050608086015167ffffffffffffffff81111562000603576200060262000235565b5b6200061188828901620004e7565b9150509295509295909350565b600081519050919050565b7f4e487b7100000000000000000000000000000000000000000000000000000000600052602260045260246000fd5b600060028204905060018216806200067157607f821691505b60208210810362000687576200068662000629565b5b50919050565b60008190508160005260206000209050919050565b60006020601f8301049050919050565b600082821b905092915050565b600060088302620006f17fffffffffffffffffffffffffffffffffffffffffffffffffffffffffffffffff82620006b2565b620006fd8683620006b2565b95508019841693508086168417925050509392505050565b6000819050919050565b6000819050919050565b60006200074a620007446200073e8462000715565b6200071f565b62000715565b9050919050565b6000819050919050565b620007668362000729565b6200077e620007758262000751565b848454620006bf565b825550505050565b600090565b6200079562000786565b620007a28184846200075b565b505050565b5b81811015620007ca57620007be6000826200078b565b600181019050620007a8565b5050565b601f8211156200081957620007e3816200068d565b620007ee84620006a2565b81016020851015620007fe578190505b620008166200080d85620006a2565b830182620007a7565b50505b505050565b600082821c905092915050565b60006200083e600019846008026200081e565b1980831691505092915050565b60006200085983836200082b565b9150826002028217905092915050565b62000874826200061e565b67ffffffffffffffff81111562000890576200088f62000255565b5b6200089c825462000658565b620008a9828285620007ce565b600060209050601f831160018114620008e15760008415620008cc578287015190505b620008d885826200084b565b86555062000948565b601f198416620008f1866200068d565b60005b828110156200091b57848901518255600182019150602085019450602081019050620008f4565b868310156200093b578489015162000937601f8916826200082b565b8355505b6001600288020188555050505b505050505050565b61209a80620009606000396000f3fe608060405234801561001057600080fd5b50600436106100b45760003560e01c8063c995498511610071578063c995498514610193578063dd59be14146101af578063e0a160f9146101e0578063f4d914c5146101fc578063f9185b1c14610218578063fb11a14a1461024a576100b4565b806304daf8fb146100b95780630a9832f4146100eb57806310c584bc1461011b57806339571d6e1461013957806340cfaf7e146101595780639dfc911714610175575b600080fd5b6100d360048036038101906100ce91906110be565b61027a565b6040516100e29392919061111f565b60405180910390f35b610105600480360381019061010091906110be565b61035f565b6040516101129190611156565b60405180910390f35b6101236103be565b6040516101309190611307565b60405180910390f35b610141610541565b60405161015093929190611382565b60405180910390f35b610173600480360381019061016e91906110be565b610689565b005b61017d610784565b60405161018a9190611523565b60405180910390f35b6101ad60048036038101906101a891906117f2565b610aca565b005b6101c960048036038101906101c49190611867565b610bdc565b6040516101d7929190611894565b60405180910390f35b6101fa60048036038101906101f591906118cb565b610d20565b005b61021660048036038101906102119190611a45565b610e4b565b005b610232600480360381019061022d91906110be565b610f9b565b6040516102419392919061111f565b60405180910390f35b610264600480360381019061025f9190611a8e565b610fd2565b6040516102719190611156565b60405180910390f35b60008060008060008573ffffffffffffffffffffffffffffffffffffffff1673ffffffffffffffffffffffffffffffffffffffff168152602001908152602001600020600001546000808673ffffffffffffffffffffffffffffffffffffffff1673ffffffffffffffffffffffffffffffffffffffff168152602001908152602001600020600101546000808773ffffffffffffffffffffffffffffffffffffffff1673ffffffffffffffffffffffffffffffffffffffff16815260200190815260200160002060020160009054906101000a900460ff169250925092509193909250565b6000600115156000808473ffffffffffffffffffffffffffffffffffffffff1673ffffffffffffffffffffffffffffffffffffffff16815260200190815260200160002060020160009054906101000a900460ff161515149050919050565b60606002805480602002602001604051908101604052809291908181526020016000905b82821015610538578382906000526020600020906002020160405180604001604052908160008201805461041590611b06565b80601f016020809104026020016040519081016040528092919081815260200182805461044190611b06565b801561048e5780601f106104635761010080835404028352916020019161048e565b820191906000526020600020905b81548152906001019060200180831161047157829003601f168201915b505050505081526020016001820180546104a790611b06565b80601f01602080910402602001604051908101604052809291908181526020018280546104d390611b06565b80156105205780601f106104f557610100808354040283529160200191610520565b820191906000526020600020905b81548152906001019060200180831161050357829003601f168201915b505050505081525050815260200190600101906103e2565b50505050905090565b600380600001805461055290611b06565b80601f016020809104026020016040519081016040528092919081815260200182805461057e90611b06565b80156105cb5780601f106105a0576101008083540402835291602001916105cb565b820191906000526020600020905b8154815290600101906020018083116105ae57829003601f168201915b5050505050908060010160009054906101000a900473ffffffffffffffffffffffffffffffffffffffff169080600201805461060690611b06565b80601f016020809104026020016040519081016040528092919081815260200182805461063290611b06565b801561067f5780601f106106545761010080835404028352916020019161067f565b820191906000526020600020905b81548152906001019060200180831161066257829003601f168201915b5050505050905083565b600360010160009054906101000a900473ffffffffffffffffffffffffffffffffffffffff1673ffffffffffffffffffffffffffffffffffffffff163373ffffffffffffffffffffffffffffffffffffffff161461071c576040517f08c379a000000000000000000000000000000000000000000000000000000000815260040161071390611ba9565b60405180910390fd5b6000808273ffffffffffffffffffffffffffffffffffffffff1673ffffffffffffffffffffffffffffffffffffffff16815260200190815260200160002060008082016000905560018201600090556002820160006101000a81549060ff0219169055505050565b61078c611007565b60036040518060a00160405290816000820180546107a990611b06565b80601f01602080910402602001604051908101604052809291908181526020018280546107d590611b06565b80156108225780601f106107f757610100808354040283529160200191610822565b820191906000526020600020905b81548152906001019060200180831161080557829003601f168201915b505050505081526020016001820160009054906101000a900473ffffffffffffffffffffffffffffffffffffffff1673ffffffffffffffffffffffffffffffffffffffff1673ffffffffffffffffffffffffffffffffffffffff16815260200160028201805461089190611b06565b80601f01602080910402602001604051908101604052809291908181526020018280546108bd90611b06565b801561090a5780601f106108df5761010080835404028352916020019161090a565b820191906000526020600020905b8154815290600101906020018083116108ed57829003601f168201915b5050505050815260200160038201805480602002602001604051908101604052809291908181526020016000905b828210156109e457838290600052602060002001805461095790611b06565b80601f016020809104026020016040519081016040528092919081815260200182805461098390611b06565b80156109d05780601f106109a5576101008083540402835291602001916109d0565b820191906000526020600020905b8154815290600101906020018083116109b357829003601f168201915b505050505081526020019060010190610938565b50505050815260200160048201805480602002602001604051908101604052809291908181526020016000905b82821015610abd578382906000526020600020018054610a3090611b06565b80601f0160208091040260200160405190810160405280929190818152602001828054610a5c90611b06565b8015610aa95780601f10610a7e57610100808354040283529160200191610aa9565b820191906000526020600020905b815481529060010190602001808311610a8c57829003601f168201915b505050505081526020019060010190610a11565b5050505081525050905090565b60005b8151811015610bd8576000828281518110610aeb57610aea611bc9565b5b6020026020010151905060008160000151905060018082604051610b0f9190611c34565b908152602001604051809103902060006101000a81548160ff02191690831515021790555060028290806001815401808255809150506001900390600052602060002090600202016000909190919091506000820151816000019081610b759190611df7565b506020820151816001019081610b8b9190611df7565b5050507f166b96a382dc3abc86ba052ca9c020cfd7022d2d3059e868918a3d20779e41cc604051610bbb90611f3b565b60405180910390a150508080610bd090611f8a565b915050610acd565b5050565b60028181548110610bec57600080fd5b9060005260206000209060020201600091509050806000018054610c0f90611b06565b80601f0160208091040260200160405190810160405280929190818152602001828054610c3b90611b06565b8015610c885780601f10610c5d57610100808354040283529160200191610c88565b820191906000526020600020905b815481529060010190602001808311610c6b57829003601f168201915b505050505090806001018054610c9d90611b06565b80601f0160208091040260200160405190810160405280929190818152602001828054610cc990611b06565b8015610d165780601f10610ceb57610100808354040283529160200191610d16565b820191906000526020600020905b815481529060010190602001808311610cf957829003601f168201915b5050505050905082565b600360010160009054906101000a900473ffffffffffffffffffffffffffffffffffffffff1673ffffffffffffffffffffffffffffffffffffffff163373ffffffffffffffffffffffffffffffffffffffff1614610db3576040517f08c379a0000000000000000000000000000000000000000000000000000000008152600401610daa90611ba9565b60405180910390fd5b6040518060600160405280838152602001828152602001600115158152506000808573ffffffffffffffffffffffffffffffffffffffff1673ffffffffffffffffffffffffffffffffffffffff168152602001908152602001600020600082015181600001556020820151816001015560408201518160020160006101000a81548160ff021916908315150217905550905050505050565b600360010160009054906101000a900473ffffffffffffffffffffffffffffffffffffffff1673ffffffffffffffffffffffffffffffffffffffff163373ffffffffffffffffffffffffffffffffffffffff1614610ede576040517f08c379a0000000000000000000000000000000000000000000000000000000008152600401610ed590611ba9565b60405180910390fd5b60005b8151811015610f6257610f4f828281518110610f0057610eff611bc9565b5b602002602001015160000151838381518110610f1f57610f1e611bc9565b5b602002602001015160200151848481518110610f3e57610f3d611bc9565b5b602002602001015160400151610d20565b8080610f5a90611f8a565b915050610ee1565b507f166b96a382dc3abc86ba052ca9c020cfd7022d2d3059e868918a3d20779e41cc604051610f9090612044565b60405180910390a150565b60006020528060005260406000206000915090508060000154908060010154908060020160009054906101000a900460ff16905083565b6000600182604051610fe49190611c34565b908152602001604051809103902060009054906101000a900460ff169050919050565b6040518060a0016040528060608152602001600073ffffffffffffffffffffffffffffffffffffffff1681526020016060815260200160608152602001606081525090565b6000604051905090565b600080fd5b600080fd5b600073ffffffffffffffffffffffffffffffffffffffff82169050919050565b600061108b82611060565b9050919050565b61109b81611080565b81146110a657600080fd5b50565b6000813590506110b881611092565b92915050565b6000602082840312156110d4576110d3611056565b5b60006110e2848285016110a9565b91505092915050565b6000819050919050565b6110fe816110eb565b82525050565b60008115159050919050565b61111981611104565b82525050565b600060608201905061113460008301866110f5565b61114160208301856110f5565b61114e6040830184611110565b949350505050565b600060208201905061116b6000830184611110565b92915050565b600081519050919050565b600082825260208201905092915050565b6000819050602082019050919050565b600081519050919050565b600082825260208201905092915050565b60005b838110156111d75780820151818401526020810190506111bc565b60008484015250505050565b6000601f19601f8301169050919050565b60006111ff8261119d565b61120981856111a8565b93506112198185602086016111b9565b611222816111e3565b840191505092915050565b6000604083016000830151848203600086015261124a82826111f4565b9150506020830151848203602086015261126482826111f4565b9150508091505092915050565b600061127d838361122d565b905092915050565b6000602082019050919050565b600061129d82611171565b6112a7818561117c565b9350836020820285016112b98561118d565b8060005b858110156112f557848403895281516112d68582611271565b94506112e183611285565b925060208a019950506001810190506112bd565b50829750879550505050505092915050565b600060208201905081810360008301526113218184611292565b905092915050565b600082825260208201905092915050565b60006113458261119d565b61134f8185611329565b935061135f8185602086016111b9565b611368816111e3565b840191505092915050565b61137c81611080565b82525050565b6000606082019050818103600083015261139c818661133a565b90506113ab6020830185611373565b81810360408301526113bd818461133a565b9050949350505050565b6113d081611080565b82525050565b600081519050919050565b600082825260208201905092915050565b6000819050602082019050919050565b600061140e83836111f4565b905092915050565b6000602082019050919050565b600061142e826113d6565b61143881856113e1565b93508360208202850161144a856113f2565b8060005b8581101561148657848403895281516114678582611402565b945061147283611416565b925060208a0199505060018101905061144e565b50829750879550505050505092915050565b600060a08301600083015184820360008601526114b582826111f4565b91505060208301516114ca60208601826113c7565b50604083015184820360408601526114e282826111f4565b915050606083015184820360608601526114fc8282611423565b915050608083015184820360808601526115168282611423565b9150508091505092915050565b6000602082019050818103600083015261153d8184611498565b905092915050565b600080fd5b7f4e487b7100000000000000000000000000000000000000000000000000000000600052604160045260246000fd5b611582826111e3565b810181811067ffffffffffffffff821117156115a1576115a061154a565b5b80604052505050565b60006115b461104c565b90506115c08282611579565b919050565b600067ffffffffffffffff8211156115e0576115df61154a565b5b602082029050602081019050919050565b600080fd5b600080fd5b600080fd5b600080fd5b600067ffffffffffffffff8211156116205761161f61154a565b5b611629826111e3565b9050602081019050919050565b82818337600083830152505050565b600061165861165384611605565b6115aa565b90508281526020810184848401111561167457611673611600565b5b61167f848285611636565b509392505050565b600082601f83011261169c5761169b611545565b5b81356116ac848260208601611645565b91505092915050565b6000604082840312156116cb576116ca6115f6565b5b6116d560406115aa565b9050600082013567ffffffffffffffff8111156116f5576116f46115fb565b5b61170184828501611687565b600083015250602082013567ffffffffffffffff811115611725576117246115fb565b5b61173184828501611687565b60208301525092915050565b600061175061174b846115c5565b6115aa565b90508083825260208201905060208402830185811115611773576117726115f1565b5b835b818110156117ba57803567ffffffffffffffff81111561179857611797611545565b5b8086016117a589826116b5565b85526020850194505050602081019050611775565b5050509392505050565b600082601f8301126117d9576117d8611545565b5b81356117e984826020860161173d565b91505092915050565b60006020828403121561180857611807611056565b5b600082013567ffffffffffffffff8111156118265761182561105b565b5b611832848285016117c4565b91505092915050565b611844816110eb565b811461184f57600080fd5b50565b6000813590506118618161183b565b92915050565b60006020828403121561187d5761187c611056565b5b600061188b84828501611852565b91505092915050565b600060408201905081810360008301526118ae818561133a565b905081810360208301526118c2818461133a565b90509392505050565b6000806000606084860312156118e4576118e3611056565b5b60006118f2868287016110a9565b935050602061190386828701611852565b925050604061191486828701611852565b9150509250925092565b600067ffffffffffffffff8211156119395761193861154a565b5b602082029050602081019050919050565b6000606082840312156119605761195f6115f6565b5b61196a60606115aa565b9050600061197a848285016110a9565b600083015250602061198e84828501611852565b60208301525060406119a284828501611852565b60408301525092915050565b60006119c16119bc8461191e565b6115aa565b905080838252602082019050606084028301858111156119e4576119e36115f1565b5b835b81811015611a0d57806119f9888261194a565b8452602084019350506060810190506119e6565b5050509392505050565b600082601f830112611a2c57611a2b611545565b5b8135611a3c8482602086016119ae565b91505092915050565b600060208284031215611a5b57611a5a611056565b5b600082013567ffffffffffffffff811115611a7957611a7861105b565b5b611a8584828501611a17565b91505092915050565b600060208284031215611aa457611aa3611056565b5b600082013567ffffffffffffffff811115611ac257611ac161105b565b5b611ace84828501611687565b91505092915050565b7f4e487b7100000000000000000000000000000000000000000000000000000000600052602260045260246000fd5b60006002820490506001821680611b1e57607f821691505b602082108103611b3157611b30611ad7565b5b50919050565b7f4f6e6c792067726f7570206f776e65722063616e2063616c6c2074686973206660008201527f756e6374696f6e00000000000000000000000000000000000000000000000000602082015250565b6000611b93602783611329565b9150611b9e82611b37565b604082019050919050565b60006020820190508181036000830152611bc281611b86565b9050919050565b7f4e487b7100000000000000000000000000000000000000000000000000000000600052603260045260246000fd5b600081905092915050565b6000611c0e8261119d565b611c188185611bf8565b9350611c288185602086016111b9565b80840191505092915050565b6000611c408284611c03565b915081905092915050565b60008190508160005260206000209050919050565b60006020601f8301049050919050565b600082821b905092915050565b600060088302611cad7fffffffffffffffffffffffffffffffffffffffffffffffffffffffffffffffff82611c70565b611cb78683611c70565b95508019841693508086168417925050509392505050565b6000819050919050565b6000611cf4611cef611cea846110eb565b611ccf565b6110eb565b9050919050565b6000819050919050565b611d0e83611cd9565b611d22611d1a82611cfb565b848454611c7d565b825550505050565b600090565b611d37611d2a565b611d42818484611d05565b505050565b5b81811015611d6657611d5b600082611d2f565b600181019050611d48565b5050565b601f821115611dab57611d7c81611c4b565b611d8584611c60565b81016020851015611d94578190505b611da8611da085611c60565b830182611d47565b50505b505050565b600082821c905092915050565b6000611dce60001984600802611db0565b1980831691505092915050565b6000611de78383611dbd565b9150826002028217905092915050565b611e008261119d565b67ffffffffffffffff811115611e1957611e1861154a565b5b611e238254611b06565b611e2e828285611d6a565b600060209050601f831160018114611e615760008415611e4f578287015190505b611e598582611ddb565b865550611ec1565b601f198416611e6f86611c4b565b60005b82811015611e9757848901518255600182019150602085019450602081019050611e72565b86831015611eb45784890151611eb0601f891682611dbd565b8355505b6001600288020188555050505b505050505050565b7f46696c6573207375636365737366756c6c6c792073686172656420696e20746860008201527f652067726f757000000000000000000000000000000000000000000000000000602082015250565b6000611f25602783611329565b9150611f3082611ec9565b604082019050919050565b60006020820190508181036000830152611f5481611f18565b9050919050565b7f4e487b7100000000000000000000000000000000000000000000000000000000600052601160045260246000fd5b6000611f95826110eb565b91507fffffffffffffffffffffffffffffffffffffffffffffffffffffffffffffffff8203611fc757611fc6611f5b565b5b600182019050919050565b7f5573657273207375636365737366756c6c7920616464656420746f207468652060008201527f67726f7570000000000000000000000000000000000000000000000000000000602082015250565b600061202e602583611329565b915061203982611fd2565b604082019050919050565b6000602082019050818103600083015261205d81612021565b905091905056fea26469706673582212203fe35e5d1d901d9c194598debd2cbdda6fe4b3b73f833039b1193d05ebe6abe164736f6c63430008130033a2646970667358221220f028d84fdca0147005e19920e373cdf62dec6860c88383b2b4f27a58bd3b009e64736f6c63430008130033",
  "immutableReferences": {},
  "source": "// SPDX-License-Identifier: MIT\r\npragma solidity >=0.7.0 <0.9.0;\r\n\r\nimport \"./GroupContract.sol\";\r\n\r\ncontract PolicyManager {\r\n    mapping(address => address[]) private ownerToGroupContracts;\r\n\r\n    event GroupContractCreated(string indexed group, address childContract, string message);\r\n\r\n    function createGroupContract(\r\n        string memory _groupName,\r\n        string memory _permissions,\r\n        string[] memory _organizations,\r\n        string[] memory _countries\r\n    ) external {\r\n        require(msg.sender != address(0), \"Invalid data owner address\");\r\n        require(bytes(_groupName).length > 0, \"Group name cannot be empty\");\r\n\r\n        GroupContract groupContract = new GroupContract(\r\n            _groupName,\r\n            msg.sender,\r\n            _permissions,\r\n            _organizations,\r\n            _countries\r\n        );\r\n\r\n        ownerToGroupContracts[msg.sender].push(address(groupContract));\r\n\r\n        emit GroupContractCreated(_groupName, address(groupContract), \"Group contract created successfully!!\");\r\n    }\r\n\r\n    function getGroupContractAddresses(address ownerAddress) public view returns (address[] memory) {\r\n        return ownerToGroupContracts[ownerAddress];\r\n    }\r\n}\r\n",
  "sourcePath": "C:\\Users\\sheej\\OneDrive\\Desktop\\Thesis\\Thesis\\contracts\\PolicyManager.sol",
  "compiler": {
    "name": "solc",
    "version": "0.8.19+commit.7dd6d404.Emscripten.clang"
  },
  "schemaVersion": "3.4.16",
  "updatedAt": "2023-11-14T14:27:30.674Z",
  "networkType": "ethereum",
  "devdoc": {
    "kind": "dev",
    "methods": {},
    "version": 1
  },
  "userdoc": {
    "kind": "user",
    "methods": {},
    "version": 1
  }
}