{
  "contractName": "PolicyManager",
  "abi": [
    {
      "inputs": [],
      "stateMutability": "nonpayable",
      "type": "constructor"
    },
    {
      "anonymous": false,
      "inputs": [
        {
          "indexed": true,
          "internalType": "string",
          "name": "group",
          "type": "string"
        },
        {
          "indexed": false,
          "internalType": "address",
          "name": "childContract",
          "type": "address"
        }
      ],
      "name": "ChildContractCreated",
      "type": "event"
    },
    {
      "anonymous": false,
      "inputs": [
        {
          "indexed": true,
          "internalType": "address",
          "name": "fileContractAddress",
          "type": "address"
        },
        {
          "indexed": true,
          "internalType": "address",
          "name": "owner",
          "type": "address"
        }
      ],
      "name": "FileContractCreated",
      "type": "event"
    },
    {
      "anonymous": false,
      "inputs": [
        {
          "indexed": false,
          "internalType": "string",
          "name": "message",
          "type": "string"
        }
      ],
      "name": "Success",
      "type": "event"
    },
    {
      "inputs": [
        {
          "internalType": "uint256",
          "name": "",
          "type": "uint256"
        }
      ],
      "name": "deployedContracts",
      "outputs": [
        {
          "internalType": "address",
          "name": "contractAddress",
          "type": "address"
        }
      ],
      "stateMutability": "view",
      "type": "function",
      "constant": true
    },
    {
      "inputs": [],
      "name": "owner",
      "outputs": [
        {
          "internalType": "address",
          "name": "",
          "type": "address"
        }
      ],
      "stateMutability": "view",
      "type": "function",
      "constant": true
    },
    {
      "inputs": [
        {
          "internalType": "string",
          "name": "_fileName",
          "type": "string"
        },
        {
          "internalType": "string",
          "name": "_ipfsHash",
          "type": "string"
        }
      ],
      "name": "createFileContract",
      "outputs": [],
      "stateMutability": "nonpayable",
      "type": "function"
    },
    {
      "inputs": [
        {
          "internalType": "string",
          "name": "_groupName",
          "type": "string"
        },
        {
          "internalType": "address",
          "name": "_groupOwnerAddress",
          "type": "address"
        },
        {
          "internalType": "string",
          "name": "_permissions",
          "type": "string"
        },
        {
          "internalType": "string[]",
          "name": "_organizations",
          "type": "string[]"
        },
        {
          "internalType": "string[]",
          "name": "_countries",
          "type": "string[]"
        }
      ],
      "name": "createChildContract",
      "outputs": [],
      "stateMutability": "nonpayable",
      "type": "function"
    },
    {
      "inputs": [],
      "name": "getDeployedContractAddresses",
      "outputs": [
        {
          "internalType": "contract ChildContract[]",
          "name": "",
          "type": "address[]"
        }
      ],
      "stateMutability": "view",
      "type": "function",
      "constant": true
    },
    {
      "inputs": [],
      "name": "getChildContractAddresses",
      "outputs": [
        {
          "internalType": "address[]",
          "name": "",
          "type": "address[]"
        }
      ],
      "stateMutability": "view",
      "type": "function",
      "constant": true
    },
    {
      "inputs": [],
      "name": "getDeployedContractsCount",
      "outputs": [
        {
          "internalType": "uint256",
          "name": "",
          "type": "uint256"
        }
      ],
      "stateMutability": "view",
      "type": "function",
      "constant": true
    },
    {
      "inputs": [
        {
          "internalType": "uint256",
          "name": "index",
          "type": "uint256"
        }
      ],
      "name": "getContractMetadata",
      "outputs": [
        {
          "internalType": "address",
          "name": "",
          "type": "address"
        }
      ],
      "stateMutability": "view",
      "type": "function",
      "constant": true
    }
  ],
  "bytecode": "0x608060405234801561001057600080fd5b50336000806101000a81548173ffffffffffffffffffffffffffffffffffffffff021916908373ffffffffffffffffffffffffffffffffffffffff1602179055506148f1806100606000396000f3fe60806040523480156200001157600080fd5b5060043610620000945760003560e01c80638da5cb5b11620000635780638da5cb5b146200011f57806397c8fbc814620001415780639ad1ee101462000177578063e7f8e34b14620001ad5762000094565b8063242041a114620000995780635b49ae0214620000bb5780635cac9f9a14620000dd5780635fc7f33414620000fd575b600080fd5b620000a3620001cd565b604051620000b2919062000912565b60405180910390f35b620000c5620002e6565b604051620000d4919062000a4d565b60405180910390f35b620000fb6004803603810190620000f5919062000d14565b62000376565b005b6200010762000640565b60405162000116919062000e33565b60405180910390f35b620001296200064d565b60405162000138919062000e61565b60405180910390f35b6200015f600480360381019062000159919062000eaf565b62000671565b6040516200016e919062000e61565b60405180910390f35b6200019560048036038101906200018f919062000eaf565b62000709565b604051620001a4919062000e61565b60405180910390f35b620001cb6004803603810190620001c5919062000ee1565b62000754565b005b6060600060028054905067ffffffffffffffff811115620001f357620001f262000aa0565b5b604051908082528060200260200182016040528015620002225781602001602082028036833780820191505090505b50905060005b600280549050811015620002de57600281815481106200024d576200024c62000f66565b5b9060005260206000200160009054906101000a900473ffffffffffffffffffffffffffffffffffffffff168282815181106200028e576200028d62000f66565b5b602002602001019073ffffffffffffffffffffffffffffffffffffffff16908173ffffffffffffffffffffffffffffffffffffffff16815250508080620002d59062000fc4565b91505062000228565b508091505090565b606060028054806020026020016040519081016040528092919081815260200182805480156200036c57602002820191906000526020600020905b8160009054906101000a900473ffffffffffffffffffffffffffffffffffffffff1673ffffffffffffffffffffffffffffffffffffffff168152602001906001019080831162000321575b5050505050905090565b600073ffffffffffffffffffffffffffffffffffffffff168473ffffffffffffffffffffffffffffffffffffffff1603620003e8576040517f08c379a0000000000000000000000000000000000000000000000000000000008152600401620003df9062001072565b60405180910390fd5b60008054906101000a900473ffffffffffffffffffffffffffffffffffffffff1673ffffffffffffffffffffffffffffffffffffffff168473ffffffffffffffffffffffffffffffffffffffff161462000479576040517f08c379a000000000000000000000000000000000000000000000000000000000815260040162000470906200110a565b60405180910390fd5b6001856040516200048b9190620011a5565b908152602001604051809103902083604051620004a99190620011a5565b908152602001604051809103902060009054906101000a900460ff161562000508576040517f08c379a0000000000000000000000000000000000000000000000000000000008152600401620004ff906200125a565b60405180910390fd5b600085858585856040516200051d90620007f4565b6200052d959493929190620013df565b604051809103906000f0801580156200054a573d6000803e3d6000fd5b5090506002819080600181540180825580915050600190039060005260206000200160009091909190916101000a81548173ffffffffffffffffffffffffffffffffffffffff021916908373ffffffffffffffffffffffffffffffffffffffff16021790555085604051620005c09190620011a5565b60405180910390207f550dac6993e962fb8c25a025712b36ae55d105880de2b57da803bd9831dffc1382604051620005f9919062000e61565b60405180910390a27f166b96a382dc3abc86ba052ca9c020cfd7022d2d3059e868918a3d20779e41cc6040516200063090620014ce565b60405180910390a1505050505050565b6000600380549050905090565b60008054906101000a900473ffffffffffffffffffffffffffffffffffffffff1681565b60006003805490508210620006bd576040517f08c379a0000000000000000000000000000000000000000000000000000000008152600401620006b49062001540565b60405180910390fd5b60038281548110620006d457620006d362000f66565b5b9060005260206000200160000160009054906101000a900473ffffffffffffffffffffffffffffffffffffffff169050919050565b600381815481106200071a57600080fd5b906000526020600020016000915090508060000160009054906101000a900473ffffffffffffffffffffffffffffffffffffffff16905081565b6000828233604051620007679062000802565b620007759392919062001562565b604051809103906000f08015801562000792573d6000803e3d6000fd5b5090503373ffffffffffffffffffffffffffffffffffffffff168173ffffffffffffffffffffffffffffffffffffffff167f1c38dc39eef74e4fc5029346b92642c6755f206a4881218854c1eb0c8a9c38ac60405160405180910390a3505050565b61290f80620015ae83390190565b6109ff8062003ebd83390190565b600081519050919050565b600082825260208201905092915050565b6000819050602082019050919050565b600073ffffffffffffffffffffffffffffffffffffffff82169050919050565b600062000869826200083c565b9050919050565b6200087b816200085c565b82525050565b60006200088f838362000870565b60208301905092915050565b6000602082019050919050565b6000620008b58262000810565b620008c181856200081b565b9350620008ce836200082c565b8060005b8381101562000905578151620008e9888262000881565b9750620008f6836200089b565b925050600181019050620008d2565b5085935050505092915050565b600060208201905081810360008301526200092e8184620008a8565b905092915050565b600081519050919050565b6000819050602082019050919050565b6000819050919050565b60006200097c6200097662000970846200083c565b62000951565b6200083c565b9050919050565b600062000990826200095b565b9050919050565b6000620009a48262000983565b9050919050565b620009b68162000997565b82525050565b6000620009ca8383620009ab565b60208301905092915050565b6000602082019050919050565b6000620009f08262000936565b620009fc81856200081b565b935062000a098362000941565b8060005b8381101562000a4057815162000a248882620009bc565b975062000a3183620009d6565b92505060018101905062000a0d565b5085935050505092915050565b6000602082019050818103600083015262000a698184620009e3565b905092915050565b6000604051905090565b600080fd5b600080fd5b600080fd5b600080fd5b6000601f19601f8301169050919050565b7f4e487b7100000000000000000000000000000000000000000000000000000000600052604160045260246000fd5b62000ada8262000a8f565b810181811067ffffffffffffffff8211171562000afc5762000afb62000aa0565b5b80604052505050565b600062000b1162000a71565b905062000b1f828262000acf565b919050565b600067ffffffffffffffff82111562000b425762000b4162000aa0565b5b62000b4d8262000a8f565b9050602081019050919050565b82818337600083830152505050565b600062000b8062000b7a8462000b24565b62000b05565b90508281526020810184848401111562000b9f5762000b9e62000a8a565b5b62000bac84828562000b5a565b509392505050565b600082601f83011262000bcc5762000bcb62000a85565b5b813562000bde84826020860162000b69565b91505092915050565b62000bf2816200085c565b811462000bfe57600080fd5b50565b60008135905062000c128162000be7565b92915050565b600067ffffffffffffffff82111562000c365762000c3562000aa0565b5b602082029050602081019050919050565b600080fd5b600062000c6362000c5d8462000c18565b62000b05565b9050808382526020820190506020840283018581111562000c895762000c8862000c47565b5b835b8181101562000cd757803567ffffffffffffffff81111562000cb25762000cb162000a85565b5b80860162000cc1898262000bb4565b8552602085019450505060208101905062000c8b565b5050509392505050565b600082601f83011262000cf95762000cf862000a85565b5b813562000d0b84826020860162000c4c565b91505092915050565b600080600080600060a0868803121562000d335762000d3262000a7b565b5b600086013567ffffffffffffffff81111562000d545762000d5362000a80565b5b62000d628882890162000bb4565b955050602062000d758882890162000c01565b945050604086013567ffffffffffffffff81111562000d995762000d9862000a80565b5b62000da78882890162000bb4565b935050606086013567ffffffffffffffff81111562000dcb5762000dca62000a80565b5b62000dd98882890162000ce1565b925050608086013567ffffffffffffffff81111562000dfd5762000dfc62000a80565b5b62000e0b8882890162000ce1565b9150509295509295909350565b6000819050919050565b62000e2d8162000e18565b82525050565b600060208201905062000e4a600083018462000e22565b92915050565b62000e5b816200085c565b82525050565b600060208201905062000e78600083018462000e50565b92915050565b62000e898162000e18565b811462000e9557600080fd5b50565b60008135905062000ea98162000e7e565b92915050565b60006020828403121562000ec85762000ec762000a7b565b5b600062000ed88482850162000e98565b91505092915050565b6000806040838503121562000efb5762000efa62000a7b565b5b600083013567ffffffffffffffff81111562000f1c5762000f1b62000a80565b5b62000f2a8582860162000bb4565b925050602083013567ffffffffffffffff81111562000f4e5762000f4d62000a80565b5b62000f5c8582860162000bb4565b9150509250929050565b7f4e487b7100000000000000000000000000000000000000000000000000000000600052603260045260246000fd5b7f4e487b7100000000000000000000000000000000000000000000000000000000600052601160045260246000fd5b600062000fd18262000e18565b91507fffffffffffffffffffffffffffffffffffffffffffffffffffffffffffffffff820362001006576200100562000f95565b5b600182019050919050565b600082825260208201905092915050565b7f496e76616c69642064617461206f776e65722061646472657373000000000000600082015250565b60006200105a601a8362001011565b9150620010678262001022565b602082019050919050565b600060208201905081810360008301526200108d816200104b565b9050919050565b7f4f6e6c79206f776e65722063616e20696e766f6b6520746865206368696c642060008201527f636f6e7472616374206372656174696f6e000000000000000000000000000000602082015250565b6000620010f260318362001011565b9150620010ff8262001094565b604082019050919050565b600060208201905081810360008301526200112581620010e3565b9050919050565b600081519050919050565b600081905092915050565b60005b838110156200116257808201518184015260208101905062001145565b60008484015250505050565b60006200117b826200112c565b62001187818562001137565b93506200119981856020860162001142565b80840191505092915050565b6000620011b382846200116e565b915081905092915050565b7f506f6c69637920436f6e747261637420616c726561647920657869737473206660008201527f6f7220746869732067726f75702c20737065636966696320746f20746869732060208201527f6173736574000000000000000000000000000000000000000000000000000000604082015250565b60006200124260458362001011565b91506200124f82620011be565b606082019050919050565b60006020820190508181036000830152620012758162001233565b9050919050565b600062001289826200112c565b62001295818562001011565b9350620012a781856020860162001142565b620012b28162000a8f565b840191505092915050565b600081519050919050565b600082825260208201905092915050565b6000819050602082019050919050565b600082825260208201905092915050565b600062001307826200112c565b620013138185620012e9565b93506200132581856020860162001142565b620013308162000a8f565b840191505092915050565b6000620013498383620012fa565b905092915050565b6000602082019050919050565b60006200136b82620012bd565b620013778185620012c8565b9350836020820285016200138b85620012d9565b8060005b85811015620013cd5784840389528151620013ab85826200133b565b9450620013b88362001351565b925060208a019950506001810190506200138f565b50829750879550505050505092915050565b600060a0820190508181036000830152620013fb81886200127c565b90506200140c602083018762000e50565b81810360408301526200142081866200127c565b905081810360608301526200143681856200135e565b905081810360808301526200144c81846200135e565b90509695505050505050565b7f5573657220506f6c69637920446566696e6974696f6e7320726567697374657260008201527f6564207375636365737366756c6c792121000000000000000000000000000000602082015250565b6000620014b660318362001011565b9150620014c38262001458565b604082019050919050565b60006020820190508181036000830152620014e981620014a7565b9050919050565b7f496e76616c696420696e64657800000000000000000000000000000000000000600082015250565b600062001528600d8362001011565b91506200153582620014f0565b602082019050919050565b600060208201905081810360008301526200155b8162001519565b9050919050565b600060608201905081810360008301526200157e81866200127c565b905081810360208301526200159481856200127c565b9050620015a5604083018462000e50565b94935050505056fe60806040523480156200001157600080fd5b506040516200290f3803806200290f83398181016040528101906200003791906200055a565b6040518060a001604052808681526020018573ffffffffffffffffffffffffffffffffffffffff16815260200184815260200183815260200182815250600460008201518160000190816200008d9190620008a9565b5060208201518160010160006101000a81548173ffffffffffffffffffffffffffffffffffffffff021916908373ffffffffffffffffffffffffffffffffffffffff1602179055506040820151816002019081620000ec9190620008a9565b5060608201518160030190805190602001906200010b92919062000179565b5060808201518160040190805190602001906200012a92919062000179565b50905050336000806101000a81548173ffffffffffffffffffffffffffffffffffffffff021916908373ffffffffffffffffffffffffffffffffffffffff160217905550505050505062000990565b828054828255906000526020600020908101928215620001c6579160200282015b82811115620001c5578251829081620001b49190620008a9565b50916020019190600101906200019a565b5b509050620001d59190620001d9565b5090565b5b80821115620001fd5760008181620001f3919062000201565b50600101620001da565b5090565b5080546200020f9062000698565b6000825580601f1062000223575062000244565b601f01602090049060005260206000209081019062000243919062000247565b5b50565b5b808211156200026257600081600090555060010162000248565b5090565b6000604051905090565b600080fd5b600080fd5b600080fd5b600080fd5b6000601f19601f8301169050919050565b7f4e487b7100000000000000000000000000000000000000000000000000000000600052604160045260246000fd5b620002cf8262000284565b810181811067ffffffffffffffff82111715620002f157620002f062000295565b5b80604052505050565b60006200030662000266565b9050620003148282620002c4565b919050565b600067ffffffffffffffff82111562000337576200033662000295565b5b620003428262000284565b9050602081019050919050565b60005b838110156200036f57808201518184015260208101905062000352565b60008484015250505050565b6000620003926200038c8462000319565b620002fa565b905082815260208101848484011115620003b157620003b06200027f565b5b620003be8482856200034f565b509392505050565b600082601f830112620003de57620003dd6200027a565b5b8151620003f08482602086016200037b565b91505092915050565b600073ffffffffffffffffffffffffffffffffffffffff82169050919050565b60006200042682620003f9565b9050919050565b620004388162000419565b81146200044457600080fd5b50565b60008151905062000458816200042d565b92915050565b600067ffffffffffffffff8211156200047c576200047b62000295565b5b602082029050602081019050919050565b600080fd5b6000620004a9620004a3846200045e565b620002fa565b90508083825260208201905060208402830185811115620004cf57620004ce6200048d565b5b835b818110156200051d57805167ffffffffffffffff811115620004f857620004f76200027a565b5b808601620005078982620003c6565b85526020850194505050602081019050620004d1565b5050509392505050565b600082601f8301126200053f576200053e6200027a565b5b81516200055184826020860162000492565b91505092915050565b600080600080600060a0868803121562000579576200057862000270565b5b600086015167ffffffffffffffff8111156200059a576200059962000275565b5b620005a888828901620003c6565b9550506020620005bb8882890162000447565b945050604086015167ffffffffffffffff811115620005df57620005de62000275565b5b620005ed88828901620003c6565b935050606086015167ffffffffffffffff81111562000611576200061062000275565b5b6200061f8882890162000527565b925050608086015167ffffffffffffffff81111562000643576200064262000275565b5b620006518882890162000527565b9150509295509295909350565b600081519050919050565b7f4e487b7100000000000000000000000000000000000000000000000000000000600052602260045260246000fd5b60006002820490506001821680620006b157607f821691505b602082108103620006c757620006c662000669565b5b50919050565b60008190508160005260206000209050919050565b60006020601f8301049050919050565b600082821b905092915050565b600060088302620007317fffffffffffffffffffffffffffffffffffffffffffffffffffffffffffffffff82620006f2565b6200073d8683620006f2565b95508019841693508086168417925050509392505050565b6000819050919050565b6000819050919050565b60006200078a620007846200077e8462000755565b6200075f565b62000755565b9050919050565b6000819050919050565b620007a68362000769565b620007be620007b58262000791565b848454620006ff565b825550505050565b600090565b620007d5620007c6565b620007e28184846200079b565b505050565b5b818110156200080a57620007fe600082620007cb565b600181019050620007e8565b5050565b601f82111562000859576200082381620006cd565b6200082e84620006e2565b810160208510156200083e578190505b620008566200084d85620006e2565b830182620007e7565b50505b505050565b600082821c905092915050565b60006200087e600019846008026200085e565b1980831691505092915050565b60006200089983836200086b565b9150826002028217905092915050565b620008b4826200065e565b67ffffffffffffffff811115620008d057620008cf62000295565b5b620008dc825462000698565b620008e98282856200080e565b600060209050601f8311600181146200092157600084156200090c578287015190505b6200091885826200088b565b86555062000988565b601f1984166200093186620006cd565b60005b828110156200095b5784890151825560018201915060208501945060208101905062000934565b868310156200097b578489015162000977601f8916826200086b565b8355505b6001600288020188555050505b505050505050565b611f6f80620009a06000396000f3fe608060405234801561001057600080fd5b50600436106100a95760003560e01c8063c995498511610071578063c995498514610159578063dd59be1414610175578063e0a160f9146101a6578063e3e21307146101c2578063f4d914c5146101f2578063fb11a14a1461020e576100a9565b806310c584bc146100ae57806339571d6e146100cc5780633ecc6589146100ec57806340aef2a41461010a5780635d1f8ad21461013b575b600080fd5b6100b661023e565b6040516100c3919061109a565b60405180910390f35b6100d46103c1565b6040516100e393929190611147565b60405180910390f35b6100f4610509565b60405161010191906112e8565b60405180910390f35b610124600480360381019061011f919061134a565b61084f565b604051610132929190611390565b60405180910390f35b6101436108e1565b60405161015091906113b9565b60405180910390f35b610173600480360381019061016e9190611681565b610905565b005b61018f600480360381019061018a91906116f6565b610ac7565b60405161019d929190611723565b60405180910390f35b6101c060048036038101906101bb919061175a565b610c0b565b005b6101dc60048036038101906101d7919061134a565b610cde565b6040516101e991906117c8565b60405180910390f35b61020c6004803603810190610207919061183e565b610d34565b005b6102286004803603810190610223919061188b565b610e8a565b60405161023591906117c8565b60405180910390f35b60606003805480602002602001604051908101604052809291908181526020016000905b828210156103b8578382906000526020600020906002020160405180604001604052908160008201805461029590611903565b80601f01602080910402602001604051908101604052809291908181526020018280546102c190611903565b801561030e5780601f106102e35761010080835404028352916020019161030e565b820191906000526020600020905b8154815290600101906020018083116102f157829003601f168201915b5050505050815260200160018201805461032790611903565b80601f016020809104026020016040519081016040528092919081815260200182805461035390611903565b80156103a05780601f10610375576101008083540402835291602001916103a0565b820191906000526020600020905b81548152906001019060200180831161038357829003601f168201915b50505050508152505081526020019060010190610262565b50505050905090565b60048060000180546103d290611903565b80601f01602080910402602001604051908101604052809291908181526020018280546103fe90611903565b801561044b5780601f106104205761010080835404028352916020019161044b565b820191906000526020600020905b81548152906001019060200180831161042e57829003601f168201915b5050505050908060010160009054906101000a900473ffffffffffffffffffffffffffffffffffffffff169080600201805461048690611903565b80601f01602080910402602001604051908101604052809291908181526020018280546104b290611903565b80156104ff5780601f106104d4576101008083540402835291602001916104ff565b820191906000526020600020905b8154815290600101906020018083116104e257829003601f168201915b5050505050905083565b610511610ebf565b60046040518060a001604052908160008201805461052e90611903565b80601f016020809104026020016040519081016040528092919081815260200182805461055a90611903565b80156105a75780601f1061057c576101008083540402835291602001916105a7565b820191906000526020600020905b81548152906001019060200180831161058a57829003601f168201915b505050505081526020016001820160009054906101000a900473ffffffffffffffffffffffffffffffffffffffff1673ffffffffffffffffffffffffffffffffffffffff1673ffffffffffffffffffffffffffffffffffffffff16815260200160028201805461061690611903565b80601f016020809104026020016040519081016040528092919081815260200182805461064290611903565b801561068f5780601f106106645761010080835404028352916020019161068f565b820191906000526020600020905b81548152906001019060200180831161067257829003601f168201915b5050505050815260200160038201805480602002602001604051908101604052809291908181526020016000905b828210156107695783829060005260206000200180546106dc90611903565b80601f016020809104026020016040519081016040528092919081815260200182805461070890611903565b80156107555780601f1061072a57610100808354040283529160200191610755565b820191906000526020600020905b81548152906001019060200180831161073857829003601f168201915b5050505050815260200190600101906106bd565b50505050815260200160048201805480602002602001604051908101604052809291908181526020016000905b828210156108425783829060005260206000200180546107b590611903565b80601f01602080910402602001604051908101604052809291908181526020018280546107e190611903565b801561082e5780601f106108035761010080835404028352916020019161082e565b820191906000526020600020905b81548152906001019060200180831161081157829003601f168201915b505050505081526020019060010190610796565b5050505081525050905090565b600080600960008473ffffffffffffffffffffffffffffffffffffffff1673ffffffffffffffffffffffffffffffffffffffff16815260200190815260200160002060010154600960008573ffffffffffffffffffffffffffffffffffffffff1673ffffffffffffffffffffffffffffffffffffffff1681526020019081526020016000206002015491509150915091565b60008054906101000a900473ffffffffffffffffffffffffffffffffffffffff1681565b60005b8151811015610ac357600082828151811061092657610925611934565b5b60200260200101519050600081600001519050600081511161097d576040517f08c379a0000000000000000000000000000000000000000000000000000000008152600401610974906119af565b60405180910390fd5b60018160405161098d9190611a0b565b908152602001604051809103902060009054906101000a900460ff16156109e9576040517f08c379a00000000000000000000000000000000000000000000000000000000081526004016109e090611a94565b60405180910390fd5b600180826040516109fa9190611a0b565b908152602001604051809103902060006101000a81548160ff02191690831515021790555060038290806001815401808255809150506001900390600052602060002090600202016000909190919091506000820151816000019081610a609190611c60565b506020820151816001019081610a769190611c60565b5050507f166b96a382dc3abc86ba052ca9c020cfd7022d2d3059e868918a3d20779e41cc604051610aa690611d7e565b60405180910390a150508080610abb90611dcd565b915050610908565b5050565b60038181548110610ad757600080fd5b9060005260206000209060020201600091509050806000018054610afa90611903565b80601f0160208091040260200160405190810160405280929190818152602001828054610b2690611903565b8015610b735780601f10610b4857610100808354040283529160200191610b73565b820191906000526020600020905b815481529060010190602001808311610b5657829003601f168201915b505050505090806001018054610b8890611903565b80601f0160208091040260200160405190810160405280929190818152602001828054610bb490611903565b8015610c015780601f10610bd657610100808354040283529160200191610c01565b820191906000526020600020905b815481529060010190602001808311610be457829003601f168201915b5050505050905082565b60405180606001604052808473ffffffffffffffffffffffffffffffffffffffff16815260200183815260200182815250600960008573ffffffffffffffffffffffffffffffffffffffff1673ffffffffffffffffffffffffffffffffffffffff16815260200190815260200160002060008201518160000160006101000a81548173ffffffffffffffffffffffffffffffffffffffff021916908373ffffffffffffffffffffffffffffffffffffffff1602179055506020820151816001015560408201518160020155905050505050565b6000600260008373ffffffffffffffffffffffffffffffffffffffff1673ffffffffffffffffffffffffffffffffffffffff16815260200190815260200160002060009054906101000a900460ff169050919050565b60008054906101000a900473ffffffffffffffffffffffffffffffffffffffff1673ffffffffffffffffffffffffffffffffffffffff163373ffffffffffffffffffffffffffffffffffffffff1614610dc2576040517f08c379a0000000000000000000000000000000000000000000000000000000008152600401610db990611e87565b60405180910390fd5b60005b82829050811015610e5057610e3d838383818110610de657610de5611934565b5b9050606002016000016020810190610dfe919061134a565b848484818110610e1157610e10611934565b5b90506060020160200135858585818110610e2e57610e2d611934565b5b90506060020160400135610c0b565b8080610e4890611dcd565b915050610dc5565b507f166b96a382dc3abc86ba052ca9c020cfd7022d2d3059e868918a3d20779e41cc604051610e7e90611f19565b60405180910390a15050565b6000600182604051610e9c9190611a0b565b908152602001604051809103902060009054906101000a900460ff169050919050565b6040518060a0016040528060608152602001600073ffffffffffffffffffffffffffffffffffffffff1681526020016060815260200160608152602001606081525090565b600081519050919050565b600082825260208201905092915050565b6000819050602082019050919050565b600081519050919050565b600082825260208201905092915050565b60005b83811015610f6a578082015181840152602081019050610f4f565b60008484015250505050565b6000601f19601f8301169050919050565b6000610f9282610f30565b610f9c8185610f3b565b9350610fac818560208601610f4c565b610fb581610f76565b840191505092915050565b60006040830160008301518482036000860152610fdd8282610f87565b91505060208301518482036020860152610ff78282610f87565b9150508091505092915050565b60006110108383610fc0565b905092915050565b6000602082019050919050565b600061103082610f04565b61103a8185610f0f565b93508360208202850161104c85610f20565b8060005b8581101561108857848403895281516110698582611004565b945061107483611018565b925060208a01995050600181019050611050565b50829750879550505050505092915050565b600060208201905081810360008301526110b48184611025565b905092915050565b600082825260208201905092915050565b60006110d882610f30565b6110e281856110bc565b93506110f2818560208601610f4c565b6110fb81610f76565b840191505092915050565b600073ffffffffffffffffffffffffffffffffffffffff82169050919050565b600061113182611106565b9050919050565b61114181611126565b82525050565b6000606082019050818103600083015261116181866110cd565b90506111706020830185611138565b818103604083015261118281846110cd565b9050949350505050565b61119581611126565b82525050565b600081519050919050565b600082825260208201905092915050565b6000819050602082019050919050565b60006111d38383610f87565b905092915050565b6000602082019050919050565b60006111f38261119b565b6111fd81856111a6565b93508360208202850161120f856111b7565b8060005b8581101561124b578484038952815161122c85826111c7565b9450611237836111db565b925060208a01995050600181019050611213565b50829750879550505050505092915050565b600060a083016000830151848203600086015261127a8282610f87565b915050602083015161128f602086018261118c565b50604083015184820360408601526112a78282610f87565b915050606083015184820360608601526112c182826111e8565b915050608083015184820360808601526112db82826111e8565b9150508091505092915050565b60006020820190508181036000830152611302818461125d565b905092915050565b6000604051905090565b600080fd5b600080fd5b61132781611126565b811461133257600080fd5b50565b6000813590506113448161131e565b92915050565b6000602082840312156113605761135f611314565b5b600061136e84828501611335565b91505092915050565b6000819050919050565b61138a81611377565b82525050565b60006040820190506113a56000830185611381565b6113b26020830184611381565b9392505050565b60006020820190506113ce6000830184611138565b92915050565b600080fd5b7f4e487b7100000000000000000000000000000000000000000000000000000000600052604160045260246000fd5b61141182610f76565b810181811067ffffffffffffffff821117156114305761142f6113d9565b5b80604052505050565b600061144361130a565b905061144f8282611408565b919050565b600067ffffffffffffffff82111561146f5761146e6113d9565b5b602082029050602081019050919050565b600080fd5b600080fd5b600080fd5b600080fd5b600067ffffffffffffffff8211156114af576114ae6113d9565b5b6114b882610f76565b9050602081019050919050565b82818337600083830152505050565b60006114e76114e284611494565b611439565b9050828152602081018484840111156115035761150261148f565b5b61150e8482856114c5565b509392505050565b600082601f83011261152b5761152a6113d4565b5b813561153b8482602086016114d4565b91505092915050565b60006040828403121561155a57611559611485565b5b6115646040611439565b9050600082013567ffffffffffffffff8111156115845761158361148a565b5b61159084828501611516565b600083015250602082013567ffffffffffffffff8111156115b4576115b361148a565b5b6115c084828501611516565b60208301525092915050565b60006115df6115da84611454565b611439565b9050808382526020820190506020840283018581111561160257611601611480565b5b835b8181101561164957803567ffffffffffffffff811115611627576116266113d4565b5b8086016116348982611544565b85526020850194505050602081019050611604565b5050509392505050565b600082601f830112611668576116676113d4565b5b81356116788482602086016115cc565b91505092915050565b60006020828403121561169757611696611314565b5b600082013567ffffffffffffffff8111156116b5576116b4611319565b5b6116c184828501611653565b91505092915050565b6116d381611377565b81146116de57600080fd5b50565b6000813590506116f0816116ca565b92915050565b60006020828403121561170c5761170b611314565b5b600061171a848285016116e1565b91505092915050565b6000604082019050818103600083015261173d81856110cd565b9050818103602083015261175181846110cd565b90509392505050565b60008060006060848603121561177357611772611314565b5b600061178186828701611335565b9350506020611792868287016116e1565b92505060406117a3868287016116e1565b9150509250925092565b60008115159050919050565b6117c2816117ad565b82525050565b60006020820190506117dd60008301846117b9565b92915050565b600080fd5b60008083601f8401126117fe576117fd6113d4565b5b8235905067ffffffffffffffff81111561181b5761181a6117e3565b5b60208301915083606082028301111561183757611836611480565b5b9250929050565b6000806020838503121561185557611854611314565b5b600083013567ffffffffffffffff81111561187357611872611319565b5b61187f858286016117e8565b92509250509250929050565b6000602082840312156118a1576118a0611314565b5b600082013567ffffffffffffffff8111156118bf576118be611319565b5b6118cb84828501611516565b91505092915050565b7f4e487b7100000000000000000000000000000000000000000000000000000000600052602260045260246000fd5b6000600282049050600182168061191b57607f821691505b60208210810361192e5761192d6118d4565b5b50919050565b7f4e487b7100000000000000000000000000000000000000000000000000000000600052603260045260246000fd5b7f496e76616c696420495046532068617368000000000000000000000000000000600082015250565b60006119996011836110bc565b91506119a482611963565b602082019050919050565b600060208201905081810360008301526119c88161198c565b9050919050565b600081905092915050565b60006119e582610f30565b6119ef81856119cf565b93506119ff818560208601610f4c565b80840191505092915050565b6000611a1782846119da565b915081905092915050565b7f49504653206861736820616c726561647920736861726564207769746820746860008201527f697320636f6e7472616374000000000000000000000000000000000000000000602082015250565b6000611a7e602b836110bc565b9150611a8982611a22565b604082019050919050565b60006020820190508181036000830152611aad81611a71565b9050919050565b60008190508160005260206000209050919050565b60006020601f8301049050919050565b600082821b905092915050565b600060088302611b167fffffffffffffffffffffffffffffffffffffffffffffffffffffffffffffffff82611ad9565b611b208683611ad9565b95508019841693508086168417925050509392505050565b6000819050919050565b6000611b5d611b58611b5384611377565b611b38565b611377565b9050919050565b6000819050919050565b611b7783611b42565b611b8b611b8382611b64565b848454611ae6565b825550505050565b600090565b611ba0611b93565b611bab818484611b6e565b505050565b5b81811015611bcf57611bc4600082611b98565b600181019050611bb1565b5050565b601f821115611c1457611be581611ab4565b611bee84611ac9565b81016020851015611bfd578190505b611c11611c0985611ac9565b830182611bb0565b50505b505050565b600082821c905092915050565b6000611c3760001984600802611c19565b1980831691505092915050565b6000611c508383611c26565b9150826002028217905092915050565b611c6982610f30565b67ffffffffffffffff811115611c8257611c816113d9565b5b611c8c8254611903565b611c97828285611bd3565b600060209050601f831160018114611cca5760008415611cb8578287015190505b611cc28582611c44565b865550611d2a565b601f198416611cd886611ab4565b60005b82811015611d0057848901518255600182019150602085019450602081019050611cdb565b86831015611d1d5784890151611d19601f891682611c26565b8355505b6001600288020188555050505b505050505050565b7f5472616e73616374696f6e207375636365737366756c00000000000000000000600082015250565b6000611d686016836110bc565b9150611d7382611d32565b602082019050919050565b60006020820190508181036000830152611d9781611d5b565b9050919050565b7f4e487b7100000000000000000000000000000000000000000000000000000000600052601160045260246000fd5b6000611dd882611377565b91507fffffffffffffffffffffffffffffffffffffffffffffffffffffffffffffffff8203611e0a57611e09611d9e565b5b600182019050919050565b7f4f6e6c792067726f7570206f776e65722063616e20706572666f726d2074686960008201527f73206f7065726174696f6e000000000000000000000000000000000000000000602082015250565b6000611e71602b836110bc565b9150611e7c82611e15565b604082019050919050565b60006020820190508181036000830152611ea081611e64565b9050919050565b7f5573657273207375636365737366756c6c7920616464656420746f207468652060008201527f67726f7570000000000000000000000000000000000000000000000000000000602082015250565b6000611f036025836110bc565b9150611f0e82611ea7565b604082019050919050565b60006020820190508181036000830152611f3281611ef6565b905091905056fea2646970667358221220b501a68297820c91f45430bf5fc9fe56ddcfcd1a82006b37cebef7684bfb5c8f64736f6c6343000813003360806040523480156200001157600080fd5b50604051620009ff380380620009ff83398181016040528101906200003791906200029d565b826000908162000048919062000582565b5081600190816200005a919062000582565b5080600260006101000a81548173ffffffffffffffffffffffffffffffffffffffff021916908373ffffffffffffffffffffffffffffffffffffffff16021790555050505062000669565b6000604051905090565b600080fd5b600080fd5b600080fd5b600080fd5b6000601f19601f8301169050919050565b7f4e487b7100000000000000000000000000000000000000000000000000000000600052604160045260246000fd5b6200010e82620000c3565b810181811067ffffffffffffffff8211171562000130576200012f620000d4565b5b80604052505050565b600062000145620000a5565b905062000153828262000103565b919050565b600067ffffffffffffffff821115620001765762000175620000d4565b5b6200018182620000c3565b9050602081019050919050565b60005b83811015620001ae57808201518184015260208101905062000191565b60008484015250505050565b6000620001d1620001cb8462000158565b62000139565b905082815260208101848484011115620001f057620001ef620000be565b5b620001fd8482856200018e565b509392505050565b600082601f8301126200021d576200021c620000b9565b5b81516200022f848260208601620001ba565b91505092915050565b600073ffffffffffffffffffffffffffffffffffffffff82169050919050565b6000620002658262000238565b9050919050565b620002778162000258565b81146200028357600080fd5b50565b60008151905062000297816200026c565b92915050565b600080600060608486031215620002b957620002b8620000af565b5b600084015167ffffffffffffffff811115620002da57620002d9620000b4565b5b620002e88682870162000205565b935050602084015167ffffffffffffffff8111156200030c576200030b620000b4565b5b6200031a8682870162000205565b92505060406200032d8682870162000286565b9150509250925092565b600081519050919050565b7f4e487b7100000000000000000000000000000000000000000000000000000000600052602260045260246000fd5b600060028204905060018216806200038a57607f821691505b602082108103620003a0576200039f62000342565b5b50919050565b60008190508160005260206000209050919050565b60006020601f8301049050919050565b600082821b905092915050565b6000600883026200040a7fffffffffffffffffffffffffffffffffffffffffffffffffffffffffffffffff82620003cb565b620004168683620003cb565b95508019841693508086168417925050509392505050565b6000819050919050565b6000819050919050565b6000620004636200045d62000457846200042e565b62000438565b6200042e565b9050919050565b6000819050919050565b6200047f8362000442565b620004976200048e826200046a565b848454620003d8565b825550505050565b600090565b620004ae6200049f565b620004bb81848462000474565b505050565b5b81811015620004e357620004d7600082620004a4565b600181019050620004c1565b5050565b601f8211156200053257620004fc81620003a6565b6200050784620003bb565b8101602085101562000517578190505b6200052f6200052685620003bb565b830182620004c0565b50505b505050565b600082821c905092915050565b6000620005576000198460080262000537565b1980831691505092915050565b600062000572838362000544565b9150826002028217905092915050565b6200058d8262000337565b67ffffffffffffffff811115620005a957620005a8620000d4565b5b620005b5825462000371565b620005c2828285620004e7565b600060209050601f831160018114620005fa5760008415620005e5578287015190505b620005f1858262000564565b86555062000661565b601f1984166200060a86620003a6565b60005b8281101562000634578489015182556001820191506020850194506020810190506200060d565b8683101562000654578489015162000650601f89168262000544565b8355505b6001600288020188555050505b505050505050565b61038680620006796000396000f3fe608060405234801561001057600080fd5b50600436106100415760003560e01c80637fb6c4fa146100465780638da5cb5b14610064578063c623674f14610082575b600080fd5b61004e6100a0565b60405161005b9190610272565b60405180910390f35b61006c61012e565b60405161007991906102d5565b60405180910390f35b61008a610154565b6040516100979190610272565b60405180910390f35b600080546100ad9061031f565b80601f01602080910402602001604051908101604052809291908181526020018280546100d99061031f565b80156101265780601f106100fb57610100808354040283529160200191610126565b820191906000526020600020905b81548152906001019060200180831161010957829003601f168201915b505050505081565b600260009054906101000a900473ffffffffffffffffffffffffffffffffffffffff1681565b600180546101619061031f565b80601f016020809104026020016040519081016040528092919081815260200182805461018d9061031f565b80156101da5780601f106101af576101008083540402835291602001916101da565b820191906000526020600020905b8154815290600101906020018083116101bd57829003601f168201915b505050505081565b600081519050919050565b600082825260208201905092915050565b60005b8381101561021c578082015181840152602081019050610201565b60008484015250505050565b6000601f19601f8301169050919050565b6000610244826101e2565b61024e81856101ed565b935061025e8185602086016101fe565b61026781610228565b840191505092915050565b6000602082019050818103600083015261028c8184610239565b905092915050565b600073ffffffffffffffffffffffffffffffffffffffff82169050919050565b60006102bf82610294565b9050919050565b6102cf816102b4565b82525050565b60006020820190506102ea60008301846102c6565b92915050565b7f4e487b7100000000000000000000000000000000000000000000000000000000600052602260045260246000fd5b6000600282049050600182168061033757607f821691505b60208210810361034a576103496102f0565b5b5091905056fea2646970667358221220137f4c6abcda1441015bafdd9d4a371c877c3628f1fb353694d3a911dd7542db64736f6c63430008130033a26469706673582212205d408844b50eda07d5cb80d78f37b55e6e00e0aa6ee44aea2ea74fcc86364d9664736f6c63430008130033",
  "immutableReferences": {},
  "source": "// SPDX-License-Identifier: MIT\r\npragma solidity >=0.7.0 <0.9.0;\r\n\r\nimport \"./ChildContract.sol\";\r\nimport \"./FileContract.sol\";\r\n\r\ncontract PolicyManager {\r\n    address public owner;\r\n    mapping(string => mapping(string => bool)) private groupToContractExists;\r\n    ChildContract[] policies;\r\n    ContractMetadata[] public deployedContracts;\r\n\r\n    // ChildContract reference and other essential variables.\r\n    // mapping(address => mapping(string => ChildContract)) public policies;\r\n\r\n    struct ContractMetadata {\r\n        address contractAddress;\r\n    }\r\n\r\n    event ChildContractCreated(string indexed group, address childContract);\r\n    event Success(string message);\r\n\r\n    constructor() {\r\n        owner = msg.sender;\r\n    }\r\n\r\n    //code to generate a new File contract\r\n    event FileContractCreated(address indexed fileContractAddress, address indexed owner);\r\n\r\n    function createFileContract(string memory _fileName, string memory _ipfsHash) public {\r\n        FileContract newFileContract = new FileContract(_fileName, _ipfsHash, msg.sender);\r\n        emit FileContractCreated(address(newFileContract), msg.sender);\r\n    }\r\n\r\n    //code to generate a new group contract\r\n\r\n    function createChildContract(\r\n        string memory _groupName,\r\n        address _groupOwnerAddress,\r\n        string memory _permissions,\r\n        string[] memory _organizations,\r\n        string[] memory _countries\r\n    ) external {\r\n        require(_groupOwnerAddress != address(0), \"Invalid data owner address\");\r\n        require(_groupOwnerAddress == owner, \"Only owner can invoke the child contract creation\");\r\n        require(!groupToContractExists[_groupName][_permissions], \"Policy Contract already exists for this group, specific to this asset\");\r\n\r\n        ChildContract childContract = new ChildContract(\r\n            _groupName,\r\n            _groupOwnerAddress,\r\n            _permissions,\r\n            _organizations,\r\n            _countries\r\n        );\r\n\r\n        policies.push(childContract);\r\n\r\n        emit ChildContractCreated(_groupName, address(childContract));\r\n        emit Success(\"User Policy Definitions registered successfully!!\");\r\n    }\r\n\r\n    function getDeployedContractAddresses() public view returns (ChildContract[] memory) {\r\n        return policies;\r\n    }\r\n\r\n    function getChildContractAddresses() public view returns (address[] memory) {\r\n        address[] memory childContractAddresses = new address[](policies.length);\r\n        for (uint256 i = 0; i < policies.length; i++) {\r\n            childContractAddresses[i] = address(policies[i]);\r\n        }\r\n        return childContractAddresses;\r\n    }\r\n     \r\n\r\n    function getDeployedContractsCount() public view returns (uint256) {\r\n        return deployedContracts.length;\r\n    }\r\n\r\n    function getContractMetadata(uint256 index) public view returns (address) {\r\n        require(index < deployedContracts.length, \"Invalid index\");\r\n        return deployedContracts[index].contractAddress;\r\n    }\r\n}\r\n",
  "sourcePath": "C:\\Users\\sheej\\OneDrive\\Desktop\\Thesis\\Thesis\\contracts\\PolicyManager.sol",
  "compiler": {
    "name": "solc",
    "version": "0.8.19+commit.7dd6d404.Emscripten.clang"
  },
  "schemaVersion": "3.4.16",
  "updatedAt": "2023-11-05T19:18:43.894Z",
  "networkType": "ethereum",
  "devdoc": {
    "kind": "dev",
    "methods": {},
    "version": 1
  },
  "userdoc": {
    "kind": "user",
    "methods": {},
    "version": 1
  }
}