{
  "contractName": "PolicyManager",
  "abi": [
    {
      "anonymous": false,
      "inputs": [
        {
          "indexed": true,
          "internalType": "string",
          "name": "group",
          "type": "string"
        },
        {
          "indexed": false,
          "internalType": "address",
          "name": "childContract",
          "type": "address"
        }
      ],
      "name": "ChildContractCreated",
      "type": "event"
    },
    {
      "anonymous": false,
      "inputs": [
        {
          "indexed": true,
          "internalType": "address",
          "name": "fileContractAddress",
          "type": "address"
        },
        {
          "indexed": true,
          "internalType": "address",
          "name": "owner",
          "type": "address"
        }
      ],
      "name": "FileContractCreated",
      "type": "event"
    },
    {
      "anonymous": false,
      "inputs": [
        {
          "indexed": false,
          "internalType": "string",
          "name": "message",
          "type": "string"
        }
      ],
      "name": "Success",
      "type": "event"
    },
    {
      "inputs": [
        {
          "internalType": "uint256",
          "name": "",
          "type": "uint256"
        }
      ],
      "name": "deployedContracts",
      "outputs": [
        {
          "internalType": "address",
          "name": "contractAddress",
          "type": "address"
        }
      ],
      "stateMutability": "view",
      "type": "function",
      "constant": true
    },
    {
      "inputs": [],
      "name": "owner",
      "outputs": [
        {
          "internalType": "address",
          "name": "",
          "type": "address"
        }
      ],
      "stateMutability": "view",
      "type": "function",
      "constant": true
    },
    {
      "inputs": [
        {
          "internalType": "string",
          "name": "_fileName",
          "type": "string"
        },
        {
          "internalType": "string",
          "name": "_ipfsHash",
          "type": "string"
        }
      ],
      "name": "createFileContract",
      "outputs": [],
      "stateMutability": "nonpayable",
      "type": "function"
    },
    {
      "inputs": [
        {
          "internalType": "string",
          "name": "_groupName",
          "type": "string"
        },
        {
          "internalType": "address",
          "name": "_groupOwnerAddress",
          "type": "address"
        },
        {
          "internalType": "string",
          "name": "_permissions",
          "type": "string"
        },
        {
          "internalType": "string[]",
          "name": "_organizations",
          "type": "string[]"
        },
        {
          "internalType": "string[]",
          "name": "_countries",
          "type": "string[]"
        }
      ],
      "name": "createChildContract",
      "outputs": [],
      "stateMutability": "nonpayable",
      "type": "function"
    },
    {
      "inputs": [],
      "name": "getDeployedContractAddresses",
      "outputs": [
        {
          "internalType": "contract ChildContract[]",
          "name": "",
          "type": "address[]"
        }
      ],
      "stateMutability": "view",
      "type": "function",
      "constant": true
    },
    {
      "inputs": [],
      "name": "getChildContractAddresses",
      "outputs": [
        {
          "internalType": "address[]",
          "name": "",
          "type": "address[]"
        }
      ],
      "stateMutability": "view",
      "type": "function",
      "constant": true
    },
    {
      "inputs": [],
      "name": "getDeployedContractsCount",
      "outputs": [
        {
          "internalType": "uint256",
          "name": "",
          "type": "uint256"
        }
      ],
      "stateMutability": "view",
      "type": "function",
      "constant": true
    },
    {
      "inputs": [
        {
          "internalType": "uint256",
          "name": "index",
          "type": "uint256"
        }
      ],
      "name": "getContractMetadata",
      "outputs": [
        {
          "internalType": "address",
          "name": "",
          "type": "address"
        }
      ],
      "stateMutability": "view",
      "type": "function",
      "constant": true
    }
  ],
  "bytecode": "0x608060405234801561001057600080fd5b50614702806100206000396000f3fe60806040523480156200001157600080fd5b5060043610620000945760003560e01c80638da5cb5b11620000635780638da5cb5b146200011f57806397c8fbc814620001415780639ad1ee101462000177578063e7f8e34b14620001ad5762000094565b8063242041a114620000995780635b49ae0214620000bb5780635cac9f9a14620000dd5780635fc7f33414620000fd575b600080fd5b620000a3620001cd565b604051620000b2919062000881565b60405180910390f35b620000c5620002e6565b604051620000d49190620009bc565b60405180910390f35b620000fb6004803603810190620000f5919062000c83565b62000376565b005b62000107620005af565b60405162000116919062000da2565b60405180910390f35b62000129620005bc565b60405162000138919062000dd0565b60405180910390f35b6200015f600480360381019062000159919062000e1e565b620005e0565b6040516200016e919062000dd0565b60405180910390f35b6200019560048036038101906200018f919062000e1e565b62000678565b604051620001a4919062000dd0565b60405180910390f35b620001cb6004803603810190620001c5919062000e50565b620006c3565b005b6060600060028054905067ffffffffffffffff811115620001f357620001f262000a0f565b5b604051908082528060200260200182016040528015620002225781602001602082028036833780820191505090505b50905060005b600280549050811015620002de57600281815481106200024d576200024c62000ed5565b5b9060005260206000200160009054906101000a900473ffffffffffffffffffffffffffffffffffffffff168282815181106200028e576200028d62000ed5565b5b602002602001019073ffffffffffffffffffffffffffffffffffffffff16908173ffffffffffffffffffffffffffffffffffffffff16815250508080620002d59062000f33565b91505062000228565b508091505090565b606060028054806020026020016040519081016040528092919081815260200182805480156200036c57602002820191906000526020600020905b8160009054906101000a900473ffffffffffffffffffffffffffffffffffffffff1673ffffffffffffffffffffffffffffffffffffffff168152602001906001019080831162000321575b5050505050905090565b600073ffffffffffffffffffffffffffffffffffffffff168473ffffffffffffffffffffffffffffffffffffffff1603620003e8576040517f08c379a0000000000000000000000000000000000000000000000000000000008152600401620003df9062000fe1565b60405180910390fd5b600185604051620003fa91906200107c565b9081526020016040518091039020836040516200041891906200107c565b908152602001604051809103902060009054906101000a900460ff161562000477576040517f08c379a00000000000000000000000000000000000000000000000000000000081526004016200046e9062001131565b60405180910390fd5b600085858585856040516200048c9062000763565b6200049c959493929190620012b6565b604051809103906000f080158015620004b9573d6000803e3d6000fd5b5090506002819080600181540180825580915050600190039060005260206000200160009091909190916101000a81548173ffffffffffffffffffffffffffffffffffffffff021916908373ffffffffffffffffffffffffffffffffffffffff160217905550856040516200052f91906200107c565b60405180910390207f550dac6993e962fb8c25a025712b36ae55d105880de2b57da803bd9831dffc138260405162000568919062000dd0565b60405180910390a27f166b96a382dc3abc86ba052ca9c020cfd7022d2d3059e868918a3d20779e41cc6040516200059f90620013a5565b60405180910390a1505050505050565b6000600380549050905090565b60008054906101000a900473ffffffffffffffffffffffffffffffffffffffff1681565b600060038054905082106200062c576040517f08c379a0000000000000000000000000000000000000000000000000000000008152600401620006239062001417565b60405180910390fd5b6003828154811062000643576200064262000ed5565b5b9060005260206000200160000160009054906101000a900473ffffffffffffffffffffffffffffffffffffffff169050919050565b600381815481106200068957600080fd5b906000526020600020016000915090508060000160009054906101000a900473ffffffffffffffffffffffffffffffffffffffff16905081565b6000828233604051620006d69062000771565b620006e49392919062001439565b604051809103906000f08015801562000701573d6000803e3d6000fd5b5090503373ffffffffffffffffffffffffffffffffffffffff168173ffffffffffffffffffffffffffffffffffffffff167f1c38dc39eef74e4fc5029346b92642c6755f206a4881218854c1eb0c8a9c38ac60405160405180910390a3505050565b612849806200148583390190565b6109ff8062003cce83390190565b600081519050919050565b600082825260208201905092915050565b6000819050602082019050919050565b600073ffffffffffffffffffffffffffffffffffffffff82169050919050565b6000620007d882620007ab565b9050919050565b620007ea81620007cb565b82525050565b6000620007fe8383620007df565b60208301905092915050565b6000602082019050919050565b600062000824826200077f565b6200083081856200078a565b93506200083d836200079b565b8060005b8381101562000874578151620008588882620007f0565b975062000865836200080a565b92505060018101905062000841565b5085935050505092915050565b600060208201905081810360008301526200089d818462000817565b905092915050565b600081519050919050565b6000819050602082019050919050565b6000819050919050565b6000620008eb620008e5620008df84620007ab565b620008c0565b620007ab565b9050919050565b6000620008ff82620008ca565b9050919050565b60006200091382620008f2565b9050919050565b620009258162000906565b82525050565b60006200093983836200091a565b60208301905092915050565b6000602082019050919050565b60006200095f82620008a5565b6200096b81856200078a565b93506200097883620008b0565b8060005b83811015620009af5781516200099388826200092b565b9750620009a08362000945565b9250506001810190506200097c565b5085935050505092915050565b60006020820190508181036000830152620009d8818462000952565b905092915050565b6000604051905090565b600080fd5b600080fd5b600080fd5b600080fd5b6000601f19601f8301169050919050565b7f4e487b7100000000000000000000000000000000000000000000000000000000600052604160045260246000fd5b62000a4982620009fe565b810181811067ffffffffffffffff8211171562000a6b5762000a6a62000a0f565b5b80604052505050565b600062000a80620009e0565b905062000a8e828262000a3e565b919050565b600067ffffffffffffffff82111562000ab15762000ab062000a0f565b5b62000abc82620009fe565b9050602081019050919050565b82818337600083830152505050565b600062000aef62000ae98462000a93565b62000a74565b90508281526020810184848401111562000b0e5762000b0d620009f9565b5b62000b1b84828562000ac9565b509392505050565b600082601f83011262000b3b5762000b3a620009f4565b5b813562000b4d84826020860162000ad8565b91505092915050565b62000b6181620007cb565b811462000b6d57600080fd5b50565b60008135905062000b818162000b56565b92915050565b600067ffffffffffffffff82111562000ba55762000ba462000a0f565b5b602082029050602081019050919050565b600080fd5b600062000bd262000bcc8462000b87565b62000a74565b9050808382526020820190506020840283018581111562000bf85762000bf762000bb6565b5b835b8181101562000c4657803567ffffffffffffffff81111562000c215762000c20620009f4565b5b80860162000c30898262000b23565b8552602085019450505060208101905062000bfa565b5050509392505050565b600082601f83011262000c685762000c67620009f4565b5b813562000c7a84826020860162000bbb565b91505092915050565b600080600080600060a0868803121562000ca25762000ca1620009ea565b5b600086013567ffffffffffffffff81111562000cc35762000cc2620009ef565b5b62000cd18882890162000b23565b955050602062000ce48882890162000b70565b945050604086013567ffffffffffffffff81111562000d085762000d07620009ef565b5b62000d168882890162000b23565b935050606086013567ffffffffffffffff81111562000d3a5762000d39620009ef565b5b62000d488882890162000c50565b925050608086013567ffffffffffffffff81111562000d6c5762000d6b620009ef565b5b62000d7a8882890162000c50565b9150509295509295909350565b6000819050919050565b62000d9c8162000d87565b82525050565b600060208201905062000db9600083018462000d91565b92915050565b62000dca81620007cb565b82525050565b600060208201905062000de7600083018462000dbf565b92915050565b62000df88162000d87565b811462000e0457600080fd5b50565b60008135905062000e188162000ded565b92915050565b60006020828403121562000e375762000e36620009ea565b5b600062000e478482850162000e07565b91505092915050565b6000806040838503121562000e6a5762000e69620009ea565b5b600083013567ffffffffffffffff81111562000e8b5762000e8a620009ef565b5b62000e998582860162000b23565b925050602083013567ffffffffffffffff81111562000ebd5762000ebc620009ef565b5b62000ecb8582860162000b23565b9150509250929050565b7f4e487b7100000000000000000000000000000000000000000000000000000000600052603260045260246000fd5b7f4e487b7100000000000000000000000000000000000000000000000000000000600052601160045260246000fd5b600062000f408262000d87565b91507fffffffffffffffffffffffffffffffffffffffffffffffffffffffffffffffff820362000f755762000f7462000f04565b5b600182019050919050565b600082825260208201905092915050565b7f496e76616c69642064617461206f776e65722061646472657373000000000000600082015250565b600062000fc9601a8362000f80565b915062000fd68262000f91565b602082019050919050565b6000602082019050818103600083015262000ffc8162000fba565b9050919050565b600081519050919050565b600081905092915050565b60005b83811015620010395780820151818401526020810190506200101c565b60008484015250505050565b6000620010528262001003565b6200105e81856200100e565b93506200107081856020860162001019565b80840191505092915050565b60006200108a828462001045565b915081905092915050565b7f506f6c69637920436f6e747261637420616c726561647920657869737473206660008201527f6f7220746869732067726f75702c20737065636966696320746f20746869732060208201527f6173736574000000000000000000000000000000000000000000000000000000604082015250565b60006200111960458362000f80565b9150620011268262001095565b606082019050919050565b600060208201905081810360008301526200114c816200110a565b9050919050565b6000620011608262001003565b6200116c818562000f80565b93506200117e81856020860162001019565b6200118981620009fe565b840191505092915050565b600081519050919050565b600082825260208201905092915050565b6000819050602082019050919050565b600082825260208201905092915050565b6000620011de8262001003565b620011ea8185620011c0565b9350620011fc81856020860162001019565b6200120781620009fe565b840191505092915050565b6000620012208383620011d1565b905092915050565b6000602082019050919050565b6000620012428262001194565b6200124e81856200119f565b9350836020820285016200126285620011b0565b8060005b85811015620012a4578484038952815162001282858262001212565b94506200128f8362001228565b925060208a0199505060018101905062001266565b50829750879550505050505092915050565b600060a0820190508181036000830152620012d2818862001153565b9050620012e3602083018762000dbf565b8181036040830152620012f7818662001153565b905081810360608301526200130d818562001235565b9050818103608083015262001323818462001235565b90509695505050505050565b7f5573657220506f6c69637920446566696e6974696f6e7320726567697374657260008201527f6564207375636365737366756c6c792121000000000000000000000000000000602082015250565b60006200138d60318362000f80565b91506200139a826200132f565b604082019050919050565b60006020820190508181036000830152620013c0816200137e565b9050919050565b7f496e76616c696420696e64657800000000000000000000000000000000000000600082015250565b6000620013ff600d8362000f80565b91506200140c82620013c7565b602082019050919050565b600060208201905081810360008301526200143281620013f0565b9050919050565b6000606082019050818103600083015262001455818662001153565b905081810360208301526200146b818562001153565b90506200147c604083018462000dbf565b94935050505056fe60806040523480156200001157600080fd5b50604051620028493803806200284983398181016040528101906200003791906200051a565b6040518060a001604052808681526020018573ffffffffffffffffffffffffffffffffffffffff16815260200184815260200183815260200182815250600360008201518160000190816200008d919062000869565b5060208201518160010160006101000a81548173ffffffffffffffffffffffffffffffffffffffff021916908373ffffffffffffffffffffffffffffffffffffffff1602179055506040820151816002019081620000ec919062000869565b5060608201518160030190805190602001906200010b92919062000139565b5060808201518160040190805190602001906200012a92919062000139565b50905050505050505062000950565b82805482825590600052602060002090810192821562000186579160200282015b828111156200018557825182908162000174919062000869565b50916020019190600101906200015a565b5b50905062000195919062000199565b5090565b5b80821115620001bd5760008181620001b39190620001c1565b506001016200019a565b5090565b508054620001cf9062000658565b6000825580601f10620001e3575062000204565b601f01602090049060005260206000209081019062000203919062000207565b5b50565b5b808211156200022257600081600090555060010162000208565b5090565b6000604051905090565b600080fd5b600080fd5b600080fd5b600080fd5b6000601f19601f8301169050919050565b7f4e487b7100000000000000000000000000000000000000000000000000000000600052604160045260246000fd5b6200028f8262000244565b810181811067ffffffffffffffff82111715620002b157620002b062000255565b5b80604052505050565b6000620002c662000226565b9050620002d4828262000284565b919050565b600067ffffffffffffffff821115620002f757620002f662000255565b5b620003028262000244565b9050602081019050919050565b60005b838110156200032f57808201518184015260208101905062000312565b60008484015250505050565b6000620003526200034c84620002d9565b620002ba565b9050828152602081018484840111156200037157620003706200023f565b5b6200037e8482856200030f565b509392505050565b600082601f8301126200039e576200039d6200023a565b5b8151620003b08482602086016200033b565b91505092915050565b600073ffffffffffffffffffffffffffffffffffffffff82169050919050565b6000620003e682620003b9565b9050919050565b620003f881620003d9565b81146200040457600080fd5b50565b6000815190506200041881620003ed565b92915050565b600067ffffffffffffffff8211156200043c576200043b62000255565b5b602082029050602081019050919050565b600080fd5b60006200046962000463846200041e565b620002ba565b905080838252602082019050602084028301858111156200048f576200048e6200044d565b5b835b81811015620004dd57805167ffffffffffffffff811115620004b857620004b76200023a565b5b808601620004c7898262000386565b8552602085019450505060208101905062000491565b5050509392505050565b600082601f830112620004ff57620004fe6200023a565b5b81516200051184826020860162000452565b91505092915050565b600080600080600060a0868803121562000539576200053862000230565b5b600086015167ffffffffffffffff8111156200055a576200055962000235565b5b620005688882890162000386565b95505060206200057b8882890162000407565b945050604086015167ffffffffffffffff8111156200059f576200059e62000235565b5b620005ad8882890162000386565b935050606086015167ffffffffffffffff811115620005d157620005d062000235565b5b620005df88828901620004e7565b925050608086015167ffffffffffffffff81111562000603576200060262000235565b5b6200061188828901620004e7565b9150509295509295909350565b600081519050919050565b7f4e487b7100000000000000000000000000000000000000000000000000000000600052602260045260246000fd5b600060028204905060018216806200067157607f821691505b60208210810362000687576200068662000629565b5b50919050565b60008190508160005260206000209050919050565b60006020601f8301049050919050565b600082821b905092915050565b600060088302620006f17fffffffffffffffffffffffffffffffffffffffffffffffffffffffffffffffff82620006b2565b620006fd8683620006b2565b95508019841693508086168417925050509392505050565b6000819050919050565b6000819050919050565b60006200074a620007446200073e8462000715565b6200071f565b62000715565b9050919050565b6000819050919050565b620007668362000729565b6200077e620007758262000751565b848454620006bf565b825550505050565b600090565b6200079562000786565b620007a28184846200075b565b505050565b5b81811015620007ca57620007be6000826200078b565b600181019050620007a8565b5050565b601f8211156200081957620007e3816200068d565b620007ee84620006a2565b81016020851015620007fe578190505b620008166200080d85620006a2565b830182620007a7565b50505b505050565b600082821c905092915050565b60006200083e600019846008026200081e565b1980831691505092915050565b60006200085983836200082b565b9150826002028217905092915050565b62000874826200061e565b67ffffffffffffffff81111562000890576200088f62000255565b5b6200089c825462000658565b620008a9828285620007ce565b600060209050601f831160018114620008e15760008415620008cc578287015190505b620008d885826200084b565b86555062000948565b601f198416620008f1866200068d565b60005b828110156200091b57848901518255600182019150602085019450602081019050620008f4565b868310156200093b578489015162000937601f8916826200082b565b8355505b6001600288020188555050505b505050505050565b611ee980620009606000396000f3fe608060405234801561001057600080fd5b50600436106100a95760003560e01c8063c995498511610071578063c99549851461016b578063dd59be1414610187578063e0a160f9146101b8578063f4d914c5146101d4578063f9185b1c146101f0578063fb11a14a14610222576100a9565b80630a9832f4146100ae57806310c584bc146100de57806339571d6e146100fc5780633ecc65891461011c57806340aef2a41461013a575b600080fd5b6100c860048036038101906100c39190610f66565b610252565b6040516100d59190610fae565b60405180910390f35b6100e66102ec565b6040516100f3919061115f565b60405180910390f35b61010461046f565b604051610113939291906111da565b60405180910390f35b6101246105b7565b604051610131919061137b565b60405180910390f35b610154600480360381019061014f9190610f66565b6108fd565b6040516101629291906113b6565b60405180910390f35b6101856004803603810190610180919061168c565b61098f565b005b6101a1600480360381019061019c9190611701565b610b52565b6040516101af92919061172e565b60405180910390f35b6101d260048036038101906101cd9190611765565b610c96565b005b6101ee60048036038101906101e99190611813565b610d69565b005b61020a60048036038101906102059190610f66565b610e31565b60405161021993929190611860565b60405180910390f35b61023c60048036038101906102379190611897565b610e7b565b6040516102499190610fae565b60405180910390f35b60008173ffffffffffffffffffffffffffffffffffffffff16600860008473ffffffffffffffffffffffffffffffffffffffff1673ffffffffffffffffffffffffffffffffffffffff16815260200190815260200160002060000160009054906101000a900473ffffffffffffffffffffffffffffffffffffffff1673ffffffffffffffffffffffffffffffffffffffff16149050919050565b60606002805480602002602001604051908101604052809291908181526020016000905b8282101561046657838290600052602060002090600202016040518060400160405290816000820180546103439061190f565b80601f016020809104026020016040519081016040528092919081815260200182805461036f9061190f565b80156103bc5780601f10610391576101008083540402835291602001916103bc565b820191906000526020600020905b81548152906001019060200180831161039f57829003601f168201915b505050505081526020016001820180546103d59061190f565b80601f01602080910402602001604051908101604052809291908181526020018280546104019061190f565b801561044e5780601f106104235761010080835404028352916020019161044e565b820191906000526020600020905b81548152906001019060200180831161043157829003601f168201915b50505050508152505081526020019060010190610310565b50505050905090565b60038060000180546104809061190f565b80601f01602080910402602001604051908101604052809291908181526020018280546104ac9061190f565b80156104f95780601f106104ce576101008083540402835291602001916104f9565b820191906000526020600020905b8154815290600101906020018083116104dc57829003601f168201915b5050505050908060010160009054906101000a900473ffffffffffffffffffffffffffffffffffffffff16908060020180546105349061190f565b80601f01602080910402602001604051908101604052809291908181526020018280546105609061190f565b80156105ad5780601f10610582576101008083540402835291602001916105ad565b820191906000526020600020905b81548152906001019060200180831161059057829003601f168201915b5050505050905083565b6105bf610eaf565b60036040518060a00160405290816000820180546105dc9061190f565b80601f01602080910402602001604051908101604052809291908181526020018280546106089061190f565b80156106555780601f1061062a57610100808354040283529160200191610655565b820191906000526020600020905b81548152906001019060200180831161063857829003601f168201915b505050505081526020016001820160009054906101000a900473ffffffffffffffffffffffffffffffffffffffff1673ffffffffffffffffffffffffffffffffffffffff1673ffffffffffffffffffffffffffffffffffffffff1681526020016002820180546106c49061190f565b80601f01602080910402602001604051908101604052809291908181526020018280546106f09061190f565b801561073d5780601f106107125761010080835404028352916020019161073d565b820191906000526020600020905b81548152906001019060200180831161072057829003601f168201915b5050505050815260200160038201805480602002602001604051908101604052809291908181526020016000905b8282101561081757838290600052602060002001805461078a9061190f565b80601f01602080910402602001604051908101604052809291908181526020018280546107b69061190f565b80156108035780601f106107d857610100808354040283529160200191610803565b820191906000526020600020905b8154815290600101906020018083116107e657829003601f168201915b50505050508152602001906001019061076b565b50505050815260200160048201805480602002602001604051908101604052809291908181526020016000905b828210156108f05783829060005260206000200180546108639061190f565b80601f016020809104026020016040519081016040528092919081815260200182805461088f9061190f565b80156108dc5780601f106108b1576101008083540402835291602001916108dc565b820191906000526020600020905b8154815290600101906020018083116108bf57829003601f168201915b505050505081526020019060010190610844565b5050505081525050905090565b600080600860008473ffffffffffffffffffffffffffffffffffffffff1673ffffffffffffffffffffffffffffffffffffffff16815260200190815260200160002060010154600860008573ffffffffffffffffffffffffffffffffffffffff1673ffffffffffffffffffffffffffffffffffffffff1681526020019081526020016000206002015491509150915091565b60005b8151811015610b4e5760008282815181106109b0576109af611940565b5b602002602001015190506000816000015190506000815111610a07576040517f08c379a00000000000000000000000000000000000000000000000000000000081526004016109fe906119bb565b60405180910390fd5b600081604051610a179190611a17565b908152602001604051809103902060009054906101000a900460ff1615610a73576040517f08c379a0000000000000000000000000000000000000000000000000000000008152600401610a6a90611aa0565b60405180910390fd5b6001600082604051610a859190611a17565b908152602001604051809103902060006101000a81548160ff02191690831515021790555060028290806001815401808255809150506001900390600052602060002090600202016000909190919091506000820151816000019081610aeb9190611c6c565b506020820151816001019081610b019190611c6c565b5050507f166b96a382dc3abc86ba052ca9c020cfd7022d2d3059e868918a3d20779e41cc604051610b3190611d8a565b60405180910390a150508080610b4690611dd9565b915050610992565b5050565b60028181548110610b6257600080fd5b9060005260206000209060020201600091509050806000018054610b859061190f565b80601f0160208091040260200160405190810160405280929190818152602001828054610bb19061190f565b8015610bfe5780601f10610bd357610100808354040283529160200191610bfe565b820191906000526020600020905b815481529060010190602001808311610be157829003601f168201915b505050505090806001018054610c139061190f565b80601f0160208091040260200160405190810160405280929190818152602001828054610c3f9061190f565b8015610c8c5780601f10610c6157610100808354040283529160200191610c8c565b820191906000526020600020905b815481529060010190602001808311610c6f57829003601f168201915b5050505050905082565b60405180606001604052808473ffffffffffffffffffffffffffffffffffffffff16815260200183815260200182815250600860008573ffffffffffffffffffffffffffffffffffffffff1673ffffffffffffffffffffffffffffffffffffffff16815260200190815260200160002060008201518160000160006101000a81548173ffffffffffffffffffffffffffffffffffffffff021916908373ffffffffffffffffffffffffffffffffffffffff1602179055506020820151816001015560408201518160020155905050505050565b60005b82829050811015610df757610de4838383818110610d8d57610d8c611940565b5b9050606002016000016020810190610da59190610f66565b848484818110610db857610db7611940565b5b90506060020160200135858585818110610dd557610dd4611940565b5b90506060020160400135610c96565b8080610def90611dd9565b915050610d6c565b507f166b96a382dc3abc86ba052ca9c020cfd7022d2d3059e868918a3d20779e41cc604051610e2590611e93565b60405180910390a15050565b60086020528060005260406000206000915090508060000160009054906101000a900473ffffffffffffffffffffffffffffffffffffffff16908060010154908060020154905083565b60008082604051610e8c9190611a17565b908152602001604051809103902060009054906101000a900460ff169050919050565b6040518060a0016040528060608152602001600073ffffffffffffffffffffffffffffffffffffffff1681526020016060815260200160608152602001606081525090565b6000604051905090565b600080fd5b600080fd5b600073ffffffffffffffffffffffffffffffffffffffff82169050919050565b6000610f3382610f08565b9050919050565b610f4381610f28565b8114610f4e57600080fd5b50565b600081359050610f6081610f3a565b92915050565b600060208284031215610f7c57610f7b610efe565b5b6000610f8a84828501610f51565b91505092915050565b60008115159050919050565b610fa881610f93565b82525050565b6000602082019050610fc36000830184610f9f565b92915050565b600081519050919050565b600082825260208201905092915050565b6000819050602082019050919050565b600081519050919050565b600082825260208201905092915050565b60005b8381101561102f578082015181840152602081019050611014565b60008484015250505050565b6000601f19601f8301169050919050565b600061105782610ff5565b6110618185611000565b9350611071818560208601611011565b61107a8161103b565b840191505092915050565b600060408301600083015184820360008601526110a2828261104c565b915050602083015184820360208601526110bc828261104c565b9150508091505092915050565b60006110d58383611085565b905092915050565b6000602082019050919050565b60006110f582610fc9565b6110ff8185610fd4565b93508360208202850161111185610fe5565b8060005b8581101561114d578484038952815161112e85826110c9565b9450611139836110dd565b925060208a01995050600181019050611115565b50829750879550505050505092915050565b6000602082019050818103600083015261117981846110ea565b905092915050565b600082825260208201905092915050565b600061119d82610ff5565b6111a78185611181565b93506111b7818560208601611011565b6111c08161103b565b840191505092915050565b6111d481610f28565b82525050565b600060608201905081810360008301526111f48186611192565b905061120360208301856111cb565b81810360408301526112158184611192565b9050949350505050565b61122881610f28565b82525050565b600081519050919050565b600082825260208201905092915050565b6000819050602082019050919050565b6000611266838361104c565b905092915050565b6000602082019050919050565b60006112868261122e565b6112908185611239565b9350836020820285016112a28561124a565b8060005b858110156112de57848403895281516112bf858261125a565b94506112ca8361126e565b925060208a019950506001810190506112a6565b50829750879550505050505092915050565b600060a083016000830151848203600086015261130d828261104c565b9150506020830151611322602086018261121f565b506040830151848203604086015261133a828261104c565b91505060608301518482036060860152611354828261127b565b9150506080830151848203608086015261136e828261127b565b9150508091505092915050565b6000602082019050818103600083015261139581846112f0565b905092915050565b6000819050919050565b6113b08161139d565b82525050565b60006040820190506113cb60008301856113a7565b6113d860208301846113a7565b9392505050565b600080fd5b7f4e487b7100000000000000000000000000000000000000000000000000000000600052604160045260246000fd5b61141c8261103b565b810181811067ffffffffffffffff8211171561143b5761143a6113e4565b5b80604052505050565b600061144e610ef4565b905061145a8282611413565b919050565b600067ffffffffffffffff82111561147a576114796113e4565b5b602082029050602081019050919050565b600080fd5b600080fd5b600080fd5b600080fd5b600067ffffffffffffffff8211156114ba576114b96113e4565b5b6114c38261103b565b9050602081019050919050565b82818337600083830152505050565b60006114f26114ed8461149f565b611444565b90508281526020810184848401111561150e5761150d61149a565b5b6115198482856114d0565b509392505050565b600082601f830112611536576115356113df565b5b81356115468482602086016114df565b91505092915050565b60006040828403121561156557611564611490565b5b61156f6040611444565b9050600082013567ffffffffffffffff81111561158f5761158e611495565b5b61159b84828501611521565b600083015250602082013567ffffffffffffffff8111156115bf576115be611495565b5b6115cb84828501611521565b60208301525092915050565b60006115ea6115e58461145f565b611444565b9050808382526020820190506020840283018581111561160d5761160c61148b565b5b835b8181101561165457803567ffffffffffffffff811115611632576116316113df565b5b80860161163f898261154f565b8552602085019450505060208101905061160f565b5050509392505050565b600082601f830112611673576116726113df565b5b81356116838482602086016115d7565b91505092915050565b6000602082840312156116a2576116a1610efe565b5b600082013567ffffffffffffffff8111156116c0576116bf610f03565b5b6116cc8482850161165e565b91505092915050565b6116de8161139d565b81146116e957600080fd5b50565b6000813590506116fb816116d5565b92915050565b60006020828403121561171757611716610efe565b5b6000611725848285016116ec565b91505092915050565b600060408201905081810360008301526117488185611192565b9050818103602083015261175c8184611192565b90509392505050565b60008060006060848603121561177e5761177d610efe565b5b600061178c86828701610f51565b935050602061179d868287016116ec565b92505060406117ae868287016116ec565b9150509250925092565b600080fd5b60008083601f8401126117d3576117d26113df565b5b8235905067ffffffffffffffff8111156117f0576117ef6117b8565b5b60208301915083606082028301111561180c5761180b61148b565b5b9250929050565b6000806020838503121561182a57611829610efe565b5b600083013567ffffffffffffffff81111561184857611847610f03565b5b611854858286016117bd565b92509250509250929050565b600060608201905061187560008301866111cb565b61188260208301856113a7565b61188f60408301846113a7565b949350505050565b6000602082840312156118ad576118ac610efe565b5b600082013567ffffffffffffffff8111156118cb576118ca610f03565b5b6118d784828501611521565b91505092915050565b7f4e487b7100000000000000000000000000000000000000000000000000000000600052602260045260246000fd5b6000600282049050600182168061192757607f821691505b60208210810361193a576119396118e0565b5b50919050565b7f4e487b7100000000000000000000000000000000000000000000000000000000600052603260045260246000fd5b7f496e76616c696420495046532068617368000000000000000000000000000000600082015250565b60006119a5601183611181565b91506119b08261196f565b602082019050919050565b600060208201905081810360008301526119d481611998565b9050919050565b600081905092915050565b60006119f182610ff5565b6119fb81856119db565b9350611a0b818560208601611011565b80840191505092915050565b6000611a2382846119e6565b915081905092915050565b7f49504653206861736820616c726561647920736861726564207769746820746860008201527f697320636f6e7472616374000000000000000000000000000000000000000000602082015250565b6000611a8a602b83611181565b9150611a9582611a2e565b604082019050919050565b60006020820190508181036000830152611ab981611a7d565b9050919050565b60008190508160005260206000209050919050565b60006020601f8301049050919050565b600082821b905092915050565b600060088302611b227fffffffffffffffffffffffffffffffffffffffffffffffffffffffffffffffff82611ae5565b611b2c8683611ae5565b95508019841693508086168417925050509392505050565b6000819050919050565b6000611b69611b64611b5f8461139d565b611b44565b61139d565b9050919050565b6000819050919050565b611b8383611b4e565b611b97611b8f82611b70565b848454611af2565b825550505050565b600090565b611bac611b9f565b611bb7818484611b7a565b505050565b5b81811015611bdb57611bd0600082611ba4565b600181019050611bbd565b5050565b601f821115611c2057611bf181611ac0565b611bfa84611ad5565b81016020851015611c09578190505b611c1d611c1585611ad5565b830182611bbc565b50505b505050565b600082821c905092915050565b6000611c4360001984600802611c25565b1980831691505092915050565b6000611c5c8383611c32565b9150826002028217905092915050565b611c7582610ff5565b67ffffffffffffffff811115611c8e57611c8d6113e4565b5b611c98825461190f565b611ca3828285611bdf565b600060209050601f831160018114611cd65760008415611cc4578287015190505b611cce8582611c50565b865550611d36565b601f198416611ce486611ac0565b60005b82811015611d0c57848901518255600182019150602085019450602081019050611ce7565b86831015611d295784890151611d25601f891682611c32565b8355505b6001600288020188555050505b505050505050565b7f5472616e73616374696f6e207375636365737366756c00000000000000000000600082015250565b6000611d74601683611181565b9150611d7f82611d3e565b602082019050919050565b60006020820190508181036000830152611da381611d67565b9050919050565b7f4e487b7100000000000000000000000000000000000000000000000000000000600052601160045260246000fd5b6000611de48261139d565b91507fffffffffffffffffffffffffffffffffffffffffffffffffffffffffffffffff8203611e1657611e15611daa565b5b600182019050919050565b7f5573657273207375636365737366756c6c7920616464656420746f207468652060008201527f67726f7570000000000000000000000000000000000000000000000000000000602082015250565b6000611e7d602583611181565b9150611e8882611e21565b604082019050919050565b60006020820190508181036000830152611eac81611e70565b905091905056fea26469706673582212200a4b4f5bc63cdecad946e34621ac3fa37eb322ba3ab02d670b00102cd71ce93d64736f6c6343000813003360806040523480156200001157600080fd5b50604051620009ff380380620009ff83398181016040528101906200003791906200029d565b826000908162000048919062000582565b5081600190816200005a919062000582565b5080600260006101000a81548173ffffffffffffffffffffffffffffffffffffffff021916908373ffffffffffffffffffffffffffffffffffffffff16021790555050505062000669565b6000604051905090565b600080fd5b600080fd5b600080fd5b600080fd5b6000601f19601f8301169050919050565b7f4e487b7100000000000000000000000000000000000000000000000000000000600052604160045260246000fd5b6200010e82620000c3565b810181811067ffffffffffffffff8211171562000130576200012f620000d4565b5b80604052505050565b600062000145620000a5565b905062000153828262000103565b919050565b600067ffffffffffffffff821115620001765762000175620000d4565b5b6200018182620000c3565b9050602081019050919050565b60005b83811015620001ae57808201518184015260208101905062000191565b60008484015250505050565b6000620001d1620001cb8462000158565b62000139565b905082815260208101848484011115620001f057620001ef620000be565b5b620001fd8482856200018e565b509392505050565b600082601f8301126200021d576200021c620000b9565b5b81516200022f848260208601620001ba565b91505092915050565b600073ffffffffffffffffffffffffffffffffffffffff82169050919050565b6000620002658262000238565b9050919050565b620002778162000258565b81146200028357600080fd5b50565b60008151905062000297816200026c565b92915050565b600080600060608486031215620002b957620002b8620000af565b5b600084015167ffffffffffffffff811115620002da57620002d9620000b4565b5b620002e88682870162000205565b935050602084015167ffffffffffffffff8111156200030c576200030b620000b4565b5b6200031a8682870162000205565b92505060406200032d8682870162000286565b9150509250925092565b600081519050919050565b7f4e487b7100000000000000000000000000000000000000000000000000000000600052602260045260246000fd5b600060028204905060018216806200038a57607f821691505b602082108103620003a0576200039f62000342565b5b50919050565b60008190508160005260206000209050919050565b60006020601f8301049050919050565b600082821b905092915050565b6000600883026200040a7fffffffffffffffffffffffffffffffffffffffffffffffffffffffffffffffff82620003cb565b620004168683620003cb565b95508019841693508086168417925050509392505050565b6000819050919050565b6000819050919050565b6000620004636200045d62000457846200042e565b62000438565b6200042e565b9050919050565b6000819050919050565b6200047f8362000442565b620004976200048e826200046a565b848454620003d8565b825550505050565b600090565b620004ae6200049f565b620004bb81848462000474565b505050565b5b81811015620004e357620004d7600082620004a4565b600181019050620004c1565b5050565b601f8211156200053257620004fc81620003a6565b6200050784620003bb565b8101602085101562000517578190505b6200052f6200052685620003bb565b830182620004c0565b50505b505050565b600082821c905092915050565b6000620005576000198460080262000537565b1980831691505092915050565b600062000572838362000544565b9150826002028217905092915050565b6200058d8262000337565b67ffffffffffffffff811115620005a957620005a8620000d4565b5b620005b5825462000371565b620005c2828285620004e7565b600060209050601f831160018114620005fa5760008415620005e5578287015190505b620005f1858262000564565b86555062000661565b601f1984166200060a86620003a6565b60005b8281101562000634578489015182556001820191506020850194506020810190506200060d565b8683101562000654578489015162000650601f89168262000544565b8355505b6001600288020188555050505b505050505050565b61038680620006796000396000f3fe608060405234801561001057600080fd5b50600436106100415760003560e01c80637fb6c4fa146100465780638da5cb5b14610064578063c623674f14610082575b600080fd5b61004e6100a0565b60405161005b9190610272565b60405180910390f35b61006c61012e565b60405161007991906102d5565b60405180910390f35b61008a610154565b6040516100979190610272565b60405180910390f35b600080546100ad9061031f565b80601f01602080910402602001604051908101604052809291908181526020018280546100d99061031f565b80156101265780601f106100fb57610100808354040283529160200191610126565b820191906000526020600020905b81548152906001019060200180831161010957829003601f168201915b505050505081565b600260009054906101000a900473ffffffffffffffffffffffffffffffffffffffff1681565b600180546101619061031f565b80601f016020809104026020016040519081016040528092919081815260200182805461018d9061031f565b80156101da5780601f106101af576101008083540402835291602001916101da565b820191906000526020600020905b8154815290600101906020018083116101bd57829003601f168201915b505050505081565b600081519050919050565b600082825260208201905092915050565b60005b8381101561021c578082015181840152602081019050610201565b60008484015250505050565b6000601f19601f8301169050919050565b6000610244826101e2565b61024e81856101ed565b935061025e8185602086016101fe565b61026781610228565b840191505092915050565b6000602082019050818103600083015261028c8184610239565b905092915050565b600073ffffffffffffffffffffffffffffffffffffffff82169050919050565b60006102bf82610294565b9050919050565b6102cf816102b4565b82525050565b60006020820190506102ea60008301846102c6565b92915050565b7f4e487b7100000000000000000000000000000000000000000000000000000000600052602260045260246000fd5b6000600282049050600182168061033757607f821691505b60208210810361034a576103496102f0565b5b5091905056fea2646970667358221220137f4c6abcda1441015bafdd9d4a371c877c3628f1fb353694d3a911dd7542db64736f6c63430008130033a2646970667358221220d13fd08cddeadc3c026cc1e6208a961a8c70dcb35c15c60bff5f824a079659e064736f6c63430008130033",
  "immutableReferences": {},
  "source": "// SPDX-License-Identifier: MIT\r\npragma solidity >=0.7.0 <0.9.0;\r\n\r\nimport \"./ChildContract.sol\";\r\nimport \"./FileContract.sol\";\r\n\r\ncontract PolicyManager {\r\n    address public owner;\r\n    mapping(string => mapping(string => bool)) private groupToContractExists;\r\n    ChildContract[] policies;\r\n    ContractMetadata[] public deployedContracts;\r\n\r\n    // ChildContract reference and other essential variables.\r\n    // mapping(address => mapping(string => ChildContract)) public policies;\r\n\r\n    struct ContractMetadata {\r\n        address contractAddress;\r\n    }\r\n\r\n    event ChildContractCreated(string indexed group, address childContract);\r\n    event Success(string message);\r\n\r\n    //code to generate a new File contract\r\n    event FileContractCreated(address indexed fileContractAddress, address indexed owner);\r\n\r\n    function createFileContract(string memory _fileName, string memory _ipfsHash) public {\r\n        FileContract newFileContract = new FileContract(_fileName, _ipfsHash, msg.sender);\r\n        emit FileContractCreated(address(newFileContract), msg.sender);\r\n    }\r\n\r\n    //code to generate a new group contract\r\n\r\n    function createChildContract(\r\n        string memory _groupName,\r\n        address _groupOwnerAddress,\r\n        string memory _permissions,\r\n        string[] memory _organizations,\r\n        string[] memory _countries\r\n    ) external {\r\n        require(_groupOwnerAddress != address(0), \"Invalid data owner address\");\r\n        require(!groupToContractExists[_groupName][_permissions], \"Policy Contract already exists for this group, specific to this asset\");\r\n\r\n        ChildContract childContract = new ChildContract(\r\n            _groupName,\r\n            _groupOwnerAddress,\r\n            _permissions,\r\n            _organizations,\r\n            _countries\r\n        );\r\n\r\n        policies.push(childContract);\r\n\r\n        emit ChildContractCreated(_groupName, address(childContract));\r\n        emit Success(\"User Policy Definitions registered successfully!!\");\r\n    }\r\n\r\n    function getDeployedContractAddresses() public view returns (ChildContract[] memory) {\r\n        // emit Debug(\"Inside getChildContractDetails\"); // Add this line for debugging\r\n        return policies;\r\n    }\r\n\r\n    function getChildContractAddresses() public view returns (address[] memory) {\r\n        address[] memory childContractAddresses = new address[](policies.length);\r\n        for (uint256 i = 0; i < policies.length; i++) {\r\n            childContractAddresses[i] = address(policies[i]);\r\n        }\r\n        return childContractAddresses;\r\n    }\r\n     \r\n\r\n    function getDeployedContractsCount() public view returns (uint256) {\r\n        return deployedContracts.length;\r\n    }\r\n\r\n    function getContractMetadata(uint256 index) public view returns (address) {\r\n        require(index < deployedContracts.length, \"Invalid index\");\r\n        return deployedContracts[index].contractAddress;\r\n    }\r\n}\r\n",
  "sourcePath": "C:\\Users\\sheej\\OneDrive\\Desktop\\Thesis\\Thesis\\contracts\\PolicyManager.sol",
  "compiler": {
    "name": "solc",
    "version": "0.8.19+commit.7dd6d404.Emscripten.clang"
  },
  "schemaVersion": "3.4.16",
  "updatedAt": "2023-11-06T12:36:20.523Z",
  "networkType": "ethereum",
  "devdoc": {
    "kind": "dev",
    "methods": {},
    "version": 1
  },
  "userdoc": {
    "kind": "user",
    "methods": {},
    "version": 1
  }
}