{
  "contractName": "SmartContractFactory",
  "abi": [
    {
      "anonymous": false,
      "inputs": [
        {
          "indexed": true,
          "internalType": "address",
          "name": "creator",
          "type": "address"
        },
        {
          "indexed": false,
          "internalType": "address",
          "name": "smartContractAddress",
          "type": "address"
        },
        {
          "indexed": true,
          "internalType": "address",
          "name": "dataRequester",
          "type": "address"
        },
        {
          "indexed": false,
          "internalType": "string",
          "name": "permission",
          "type": "string"
        },
        {
          "indexed": false,
          "internalType": "uint256",
          "name": "startTime",
          "type": "uint256"
        },
        {
          "indexed": false,
          "internalType": "uint256",
          "name": "endTime",
          "type": "uint256"
        }
      ],
      "name": "NewSmartContract",
      "type": "event"
    },
    {
      "inputs": [
        {
          "internalType": "uint256",
          "name": "",
          "type": "uint256"
        }
      ],
      "name": "policies",
      "outputs": [
        {
          "internalType": "address",
          "name": "user",
          "type": "address"
        },
        {
          "internalType": "string",
          "name": "permission",
          "type": "string"
        },
        {
          "internalType": "uint256",
          "name": "startTime",
          "type": "uint256"
        },
        {
          "internalType": "uint256",
          "name": "endTime",
          "type": "uint256"
        }
      ],
      "stateMutability": "view",
      "type": "function"
    },
    {
      "inputs": [
        {
          "internalType": "address",
          "name": "user",
          "type": "address"
        },
        {
          "internalType": "string",
          "name": "permission",
          "type": "string"
        },
        {
          "internalType": "uint256",
          "name": "startTime",
          "type": "uint256"
        },
        {
          "internalType": "uint256",
          "name": "endTime",
          "type": "uint256"
        }
      ],
      "name": "addPolicy",
      "outputs": [],
      "stateMutability": "nonpayable",
      "type": "function"
    },
    {
      "inputs": [],
      "name": "createSmartContracts",
      "outputs": [],
      "stateMutability": "nonpayable",
      "type": "function"
    }
  ],
  "bytecode": "0x608060405234801561000f575f80fd5b506116668061001d5f395ff3fe608060405234801562000010575f80fd5b506004361062000044575f3560e01c8063d343bc661462000048578063d3e894831462000054578063dc41b17a146200008d575b5f80fd5b62000052620000ad565b005b6200007260048036038101906200006c9190620004e6565b620002d1565b604051620000849493929190620005fe565b60405180910390f35b620000ab6004803603810190620000a59190620007c7565b620003b9565b005b5f5b5f80549050811015620002ce575f808281548110620000d357620000d262000855565b5b905f5260205f2090600402016040518060800160405290815f82015f9054906101000a900473ffffffffffffffffffffffffffffffffffffffff1673ffffffffffffffffffffffffffffffffffffffff1673ffffffffffffffffffffffffffffffffffffffff1681526020016001820180546200015090620008af565b80601f01602080910402602001604051908101604052809291908181526020018280546200017e90620008af565b8015620001cd5780601f10620001a357610100808354040283529160200191620001cd565b820191905f5260205f20905b815481529060010190602001808311620001af57829003601f168201915b505050505081526020016002820154815260200160038201548152505090505f815f01518260200151836040015184606001516040516200020e906200048f565b6200021d9493929190620005fe565b604051809103905ff08015801562000237573d5f803e3d5ffd5b509050815f015173ffffffffffffffffffffffffffffffffffffffff163373ffffffffffffffffffffffffffffffffffffffff167f3f38270e0f0ff6cd6c17a191c905df1665005f30b4c315dc3a57fb0be48b0f9c83856020015186604001518760600151604051620002ae9493929190620005fe565b60405180910390a350508080620002c59062000910565b915050620000af565b50565b5f8181548110620002e0575f80fd5b905f5260205f2090600402015f91509050805f015f9054906101000a900473ffffffffffffffffffffffffffffffffffffffff16908060010180546200032690620008af565b80601f01602080910402602001604051908101604052809291908181526020018280546200035490620008af565b8015620003a35780601f106200037957610100808354040283529160200191620003a3565b820191905f5260205f20905b8154815290600101906020018083116200038557829003601f168201915b5050505050908060020154908060030154905084565b5f60405180608001604052808673ffffffffffffffffffffffffffffffffffffffff16815260200185815260200184815260200183815250908060018154018082558091505060019003905f5260205f2090600402015f909190919091505f820151815f015f6101000a81548173ffffffffffffffffffffffffffffffffffffffff021916908373ffffffffffffffffffffffffffffffffffffffff160217905550602082015181600101908162000472919062000b1f565b506040820151816002015560608201518160030155505050505050565b610a2d8062000c0483390190565b5f604051905090565b5f80fd5b5f80fd5b5f819050919050565b620004c281620004ae565b8114620004cd575f80fd5b50565b5f81359050620004e081620004b7565b92915050565b5f60208284031215620004fe57620004fd620004a6565b5b5f6200050d84828501620004d0565b91505092915050565b5f73ffffffffffffffffffffffffffffffffffffffff82169050919050565b5f620005418262000516565b9050919050565b620005538162000535565b82525050565b5f81519050919050565b5f82825260208201905092915050565b5f5b838110156200059257808201518184015260208101905062000575565b5f8484015250505050565b5f601f19601f8301169050919050565b5f620005b98262000559565b620005c5818562000563565b9350620005d781856020860162000573565b620005e2816200059d565b840191505092915050565b620005f881620004ae565b82525050565b5f608082019050620006135f83018762000548565b8181036020830152620006278186620005ad565b9050620006386040830185620005ed565b620006476060830184620005ed565b95945050505050565b6200065b8162000535565b811462000666575f80fd5b50565b5f81359050620006798162000650565b92915050565b5f80fd5b5f80fd5b7f4e487b71000000000000000000000000000000000000000000000000000000005f52604160045260245ffd5b620006bf826200059d565b810181811067ffffffffffffffff82111715620006e157620006e062000687565b5b80604052505050565b5f620006f56200049d565b9050620007038282620006b4565b919050565b5f67ffffffffffffffff82111562000725576200072462000687565b5b62000730826200059d565b9050602081019050919050565b828183375f83830152505050565b5f620007616200075b8462000708565b620006ea565b90508281526020810184848401111562000780576200077f62000683565b5b6200078d8482856200073d565b509392505050565b5f82601f830112620007ac57620007ab6200067f565b5b8135620007be8482602086016200074b565b91505092915050565b5f805f8060808587031215620007e257620007e1620004a6565b5b5f620007f18782880162000669565b945050602085013567ffffffffffffffff811115620008155762000814620004aa565b5b620008238782880162000795565b93505060406200083687828801620004d0565b92505060606200084987828801620004d0565b91505092959194509250565b7f4e487b71000000000000000000000000000000000000000000000000000000005f52603260045260245ffd5b7f4e487b71000000000000000000000000000000000000000000000000000000005f52602260045260245ffd5b5f6002820490506001821680620008c757607f821691505b602082108103620008dd57620008dc62000882565b5b50919050565b7f4e487b71000000000000000000000000000000000000000000000000000000005f52601160045260245ffd5b5f6200091c82620004ae565b91507fffffffffffffffffffffffffffffffffffffffffffffffffffffffffffffffff8203620009515762000950620008e3565b5b600182019050919050565b5f819050815f5260205f209050919050565b5f6020601f8301049050919050565b5f82821b905092915050565b5f60088302620009ba7fffffffffffffffffffffffffffffffffffffffffffffffffffffffffffffffff826200097d565b620009c686836200097d565b95508019841693508086168417925050509392505050565b5f819050919050565b5f62000a0762000a01620009fb84620004ae565b620009de565b620004ae565b9050919050565b5f819050919050565b62000a2283620009e7565b62000a3a62000a318262000a0e565b84845462000989565b825550505050565b5f90565b62000a5062000a42565b62000a5d81848462000a17565b505050565b5b8181101562000a845762000a785f8262000a46565b60018101905062000a63565b5050565b601f82111562000ad35762000a9d816200095c565b62000aa8846200096e565b8101602085101562000ab8578190505b62000ad062000ac7856200096e565b83018262000a62565b50505b505050565b5f82821c905092915050565b5f62000af55f198460080262000ad8565b1980831691505092915050565b5f62000b0f838362000ae4565b9150826002028217905092915050565b62000b2a8262000559565b67ffffffffffffffff81111562000b465762000b4562000687565b5b62000b528254620008af565b62000b5f82828562000a88565b5f60209050601f83116001811462000b95575f841562000b80578287015190505b62000b8c858262000b02565b86555062000bfb565b601f19841662000ba5866200095c565b5f5b8281101562000bce5784890151825560018201915060208501945060208101905062000ba7565b8683101562000bee578489015162000bea601f89168262000ae4565b8355505b6001600288020188555050505b50505050505056fe608060405234801562000010575f80fd5b5060405162000a2d38038062000a2d8339818101604052810190620000369190620002bd565b835f806101000a81548173ffffffffffffffffffffffffffffffffffffffff021916908373ffffffffffffffffffffffffffffffffffffffff160217905550826001908162000086919062000579565b508160028190555080600381905550505050506200065d565b5f604051905090565b5f80fd5b5f80fd5b5f73ffffffffffffffffffffffffffffffffffffffff82169050919050565b5f620000db82620000b0565b9050919050565b620000ed81620000cf565b8114620000f8575f80fd5b50565b5f815190506200010b81620000e2565b92915050565b5f80fd5b5f80fd5b5f601f19601f8301169050919050565b7f4e487b71000000000000000000000000000000000000000000000000000000005f52604160045260245ffd5b620001618262000119565b810181811067ffffffffffffffff8211171562000183576200018262000129565b5b80604052505050565b5f620001976200009f565b9050620001a5828262000156565b919050565b5f67ffffffffffffffff821115620001c757620001c662000129565b5b620001d28262000119565b9050602081019050919050565b5f5b83811015620001fe578082015181840152602081019050620001e1565b5f8484015250505050565b5f6200021f6200021984620001aa565b6200018c565b9050828152602081018484840111156200023e576200023d62000115565b5b6200024b848285620001df565b509392505050565b5f82601f8301126200026a576200026962000111565b5b81516200027c84826020860162000209565b91505092915050565b5f819050919050565b620002998162000285565b8114620002a4575f80fd5b50565b5f81519050620002b7816200028e565b92915050565b5f805f8060808587031215620002d857620002d7620000a8565b5b5f620002e787828801620000fb565b945050602085015167ffffffffffffffff8111156200030b576200030a620000ac565b5b620003198782880162000253565b93505060406200032c87828801620002a7565b92505060606200033f87828801620002a7565b91505092959194509250565b5f81519050919050565b7f4e487b71000000000000000000000000000000000000000000000000000000005f52602260045260245ffd5b5f60028204905060018216806200039a57607f821691505b602082108103620003b057620003af62000355565b5b50919050565b5f819050815f5260205f209050919050565b5f6020601f8301049050919050565b5f82821b905092915050565b5f60088302620004147fffffffffffffffffffffffffffffffffffffffffffffffffffffffffffffffff82620003d7565b620004208683620003d7565b95508019841693508086168417925050509392505050565b5f819050919050565b5f620004616200045b620004558462000285565b62000438565b62000285565b9050919050565b5f819050919050565b6200047c8362000441565b620004946200048b8262000468565b848454620003e3565b825550505050565b5f90565b620004aa6200049c565b620004b781848462000471565b505050565b5b81811015620004de57620004d25f82620004a0565b600181019050620004bd565b5050565b601f8211156200052d57620004f781620003b6565b6200050284620003c8565b8101602085101562000512578190505b6200052a6200052185620003c8565b830182620004bc565b50505b505050565b5f82821c905092915050565b5f6200054f5f198460080262000532565b1980831691505092915050565b5f6200056983836200053e565b9150826002028217905092915050565b62000584826200034b565b67ffffffffffffffff811115620005a0576200059f62000129565b5b620005ac825462000382565b620005b9828285620004e2565b5f60209050601f831160018114620005ef575f8415620005da578287015190505b620005e685826200055c565b86555062000655565b601f198416620005ff86620003b6565b5f5b82811015620006285784890151825560018201915060208501945060208101905062000601565b8683101562000648578489015162000644601f8916826200053e565b8355505b6001600288020188555050505b505050505050565b6103c2806200066b5f395ff3fe608060405234801561000f575f80fd5b5060043610610055575f3560e01c80632ac756e3146100595780633197cbb61461007757806378e9792514610095578063e799c438146100b3578063f3b0c8b7146100d1575b5f80fd5b6100616100ef565b60405161006e9190610208565b60405180910390f35b61007f610112565b60405161008c9190610239565b60405180910390f35b61009d610118565b6040516100aa9190610239565b60405180910390f35b6100bb61011e565b6040516100c8919061026c565b60405180910390f35b6100d961013d565b6040516100e6919061030f565b60405180910390f35b5f8054906101000a900473ffffffffffffffffffffffffffffffffffffffff1681565b60035481565b60025481565b5f80429050600254811015801561013757506003548111155b91505090565b6001805461014a9061035c565b80601f01602080910402602001604051908101604052809291908181526020018280546101769061035c565b80156101c15780601f10610198576101008083540402835291602001916101c1565b820191905f5260205f20905b8154815290600101906020018083116101a457829003601f168201915b505050505081565b5f73ffffffffffffffffffffffffffffffffffffffff82169050919050565b5f6101f2826101c9565b9050919050565b610202816101e8565b82525050565b5f60208201905061021b5f8301846101f9565b92915050565b5f819050919050565b61023381610221565b82525050565b5f60208201905061024c5f83018461022a565b92915050565b5f8115159050919050565b61026681610252565b82525050565b5f60208201905061027f5f83018461025d565b92915050565b5f81519050919050565b5f82825260208201905092915050565b5f5b838110156102bc5780820151818401526020810190506102a1565b5f8484015250505050565b5f601f19601f8301169050919050565b5f6102e182610285565b6102eb818561028f565b93506102fb81856020860161029f565b610304816102c7565b840191505092915050565b5f6020820190508181035f83015261032781846102d7565b905092915050565b7f4e487b71000000000000000000000000000000000000000000000000000000005f52602260045260245ffd5b5f600282049050600182168061037357607f821691505b6020821081036103865761038561032f565b5b5091905056fea2646970667358221220155aa800849f09f5d768493ce8b1231cf11cbce1e5e7000b44361dd22eb814ba64736f6c63430008150033a2646970667358221220337b029aa05585b2c4d8682039f65a80d3e1db5c6900bdea850da652e39d751964736f6c63430008150033",
  "immutableReferences": {},
  "source": "// SPDX-License-Identifier: MIT\r\npragma solidity ^0.8.6;\r\n\r\nimport \"./EnforceablePolicy.sol\";\r\n\r\ncontract SmartContractFactory {\r\n    event NewSmartContract(address indexed creator, address smartContractAddress, address indexed dataRequester, string permission, uint256 startTime, uint256 endTime);\r\n\r\n    struct Policy {\r\n        address user;\r\n        string permission;\r\n        uint256 startTime;\r\n        uint256 endTime;\r\n    }\r\n\r\n    Policy[] public policies;\r\n\r\n    function addPolicy(address user, string memory permission, uint256 startTime, uint256 endTime) public {\r\n        policies.push(Policy(user, permission, startTime, endTime));\r\n    }\r\n\r\n    function createSmartContracts() public {\r\n        for (uint256 i = 0; i < policies.length; i++) {\r\n            Policy memory policy = policies[i];\r\n            EnforceableSmartContract newSmartContract = new EnforceableSmartContract(policy.user, policy.permission, policy.startTime, policy.endTime);\r\n            emit NewSmartContract(msg.sender, address(newSmartContract), policy.user, policy.permission, policy.startTime, policy.endTime);\r\n        }\r\n    }\r\n}",
  "sourcePath": "C:\\Users\\sheej\\OneDrive\\Desktop\\Thesis\\Thesis\\contracts\\PolicyFactory.sol",
  "compiler": {
    "name": "solc",
    "version": "0.8.21+commit.d9974bed.Emscripten.clang"
  },
  "schemaVersion": "3.4.16",
  "updatedAt": "2023-09-19T10:52:10.648Z",
  "devdoc": {
    "kind": "dev",
    "methods": {},
    "version": 1
  },
  "userdoc": {
    "kind": "user",
    "methods": {},
    "version": 1
  }
}