{
  "contractName": "UserMetadata",
  "abi": [
    {
      "inputs": [
        {
          "internalType": "address",
          "name": "_userAddress",
          "type": "address"
        },
        {
          "internalType": "string",
          "name": "_organization",
          "type": "string"
        },
        {
          "internalType": "string",
          "name": "_country",
          "type": "string"
        }
      ],
      "stateMutability": "nonpayable",
      "type": "constructor"
    },
    {
      "anonymous": false,
      "inputs": [
        {
          "indexed": true,
          "internalType": "address",
          "name": "userAddress",
          "type": "address"
        },
        {
          "indexed": false,
          "internalType": "string",
          "name": "name",
          "type": "string"
        },
        {
          "indexed": false,
          "internalType": "string",
          "name": "IPFSHash",
          "type": "string"
        }
      ],
      "name": "FileUploaded",
      "type": "event"
    },
    {
      "anonymous": false,
      "inputs": [
        {
          "indexed": true,
          "internalType": "address",
          "name": "userAddress",
          "type": "address"
        },
        {
          "indexed": false,
          "internalType": "string",
          "name": "groupName",
          "type": "string"
        },
        {
          "indexed": false,
          "internalType": "address",
          "name": "groupContractAddress",
          "type": "address"
        }
      ],
      "name": "UserAssociatedToGroup",
      "type": "event"
    },
    {
      "anonymous": false,
      "inputs": [
        {
          "indexed": true,
          "internalType": "address",
          "name": "userAddress",
          "type": "address"
        },
        {
          "indexed": false,
          "internalType": "string",
          "name": "organization",
          "type": "string"
        },
        {
          "indexed": false,
          "internalType": "string",
          "name": "country",
          "type": "string"
        }
      ],
      "name": "UserRegistered",
      "type": "event"
    },
    {
      "inputs": [
        {
          "internalType": "address",
          "name": "userAddress",
          "type": "address"
        }
      ],
      "name": "getUserMetadata",
      "outputs": [
        {
          "internalType": "string",
          "name": "organization",
          "type": "string"
        },
        {
          "internalType": "string",
          "name": "country",
          "type": "string"
        },
        {
          "internalType": "bool",
          "name": "isAuthorized",
          "type": "bool"
        }
      ],
      "stateMutability": "view",
      "type": "function"
    },
    {
      "inputs": [
        {
          "internalType": "address",
          "name": "userAddress",
          "type": "address"
        },
        {
          "internalType": "string",
          "name": "fileName",
          "type": "string"
        }
      ],
      "name": "getUserFiles",
      "outputs": [
        {
          "internalType": "string",
          "name": "name",
          "type": "string"
        },
        {
          "internalType": "string",
          "name": "IpfsHash",
          "type": "string"
        }
      ],
      "stateMutability": "view",
      "type": "function"
    },
    {
      "inputs": [
        {
          "internalType": "address",
          "name": "userAddress",
          "type": "address"
        }
      ],
      "name": "getUserGroupInfo",
      "outputs": [
        {
          "components": [
            {
              "internalType": "string",
              "name": "groupName",
              "type": "string"
            },
            {
              "internalType": "address",
              "name": "groupContractAddress",
              "type": "address"
            }
          ],
          "internalType": "struct UserMetadata.GroupInfo[]",
          "name": "",
          "type": "tuple[]"
        }
      ],
      "stateMutability": "view",
      "type": "function"
    },
    {
      "inputs": [
        {
          "components": [
            {
              "internalType": "string",
              "name": "IpfsHash",
              "type": "string"
            },
            {
              "internalType": "string",
              "name": "Timestamp",
              "type": "string"
            },
            {
              "internalType": "string",
              "name": "name",
              "type": "string"
            }
          ],
          "internalType": "struct UserMetadata.FileDetails[]",
          "name": "fileDetails",
          "type": "tuple[]"
        }
      ],
      "name": "uploadFiles",
      "outputs": [],
      "stateMutability": "nonpayable",
      "type": "function"
    },
    {
      "inputs": [
        {
          "internalType": "string",
          "name": "groupName",
          "type": "string"
        },
        {
          "internalType": "address",
          "name": "groupContractAddress",
          "type": "address"
        }
      ],
      "name": "associateToGroup",
      "outputs": [],
      "stateMutability": "nonpayable",
      "type": "function"
    }
  ],
  "bytecode": "0x60806040523480156200001157600080fd5b50604051620021cd380380620021cd833981810160405281019062000037919062000312565b60008060008573ffffffffffffffffffffffffffffffffffffffff1673ffffffffffffffffffffffffffffffffffffffff1681526020019081526020016000209050828160000190816200008c9190620005f7565b5081816001019081620000a09190620005f7565b5060018160020160006101000a81548160ff0219169083151502179055508373ffffffffffffffffffffffffffffffffffffffff167f92822564bab8864c3a47b34e8d23fbce5c46234eb5da261f94087b995ac0f33b84846040516200010892919062000730565b60405180910390a2505050506200076b565b6000604051905090565b600080fd5b600080fd5b600073ffffffffffffffffffffffffffffffffffffffff82169050919050565b60006200015b826200012e565b9050919050565b6200016d816200014e565b81146200017957600080fd5b50565b6000815190506200018d8162000162565b92915050565b600080fd5b600080fd5b6000601f19601f8301169050919050565b7f4e487b7100000000000000000000000000000000000000000000000000000000600052604160045260246000fd5b620001e8826200019d565b810181811067ffffffffffffffff821117156200020a5762000209620001ae565b5b80604052505050565b60006200021f6200011a565b90506200022d8282620001dd565b919050565b600067ffffffffffffffff82111562000250576200024f620001ae565b5b6200025b826200019d565b9050602081019050919050565b60005b83811015620002885780820151818401526020810190506200026b565b60008484015250505050565b6000620002ab620002a58462000232565b62000213565b905082815260208101848484011115620002ca57620002c962000198565b5b620002d784828562000268565b509392505050565b600082601f830112620002f757620002f662000193565b5b81516200030984826020860162000294565b91505092915050565b6000806000606084860312156200032e576200032d62000124565b5b60006200033e868287016200017c565b935050602084015167ffffffffffffffff81111562000362576200036162000129565b5b6200037086828701620002df565b925050604084015167ffffffffffffffff81111562000394576200039362000129565b5b620003a286828701620002df565b9150509250925092565b600081519050919050565b7f4e487b7100000000000000000000000000000000000000000000000000000000600052602260045260246000fd5b60006002820490506001821680620003ff57607f821691505b602082108103620004155762000414620003b7565b5b50919050565b60008190508160005260206000209050919050565b60006020601f8301049050919050565b600082821b905092915050565b6000600883026200047f7fffffffffffffffffffffffffffffffffffffffffffffffffffffffffffffffff8262000440565b6200048b868362000440565b95508019841693508086168417925050509392505050565b6000819050919050565b6000819050919050565b6000620004d8620004d2620004cc84620004a3565b620004ad565b620004a3565b9050919050565b6000819050919050565b620004f483620004b7565b6200050c6200050382620004df565b8484546200044d565b825550505050565b600090565b6200052362000514565b62000530818484620004e9565b505050565b5b8181101562000558576200054c60008262000519565b60018101905062000536565b5050565b601f821115620005a75762000571816200041b565b6200057c8462000430565b810160208510156200058c578190505b620005a46200059b8562000430565b83018262000535565b50505b505050565b600082821c905092915050565b6000620005cc60001984600802620005ac565b1980831691505092915050565b6000620005e78383620005b9565b9150826002028217905092915050565b6200060282620003ac565b67ffffffffffffffff8111156200061e576200061d620001ae565b5b6200062a8254620003e6565b620006378282856200055c565b600060209050601f8311600181146200066f57600084156200065a578287015190505b620006668582620005d9565b865550620006d6565b601f1984166200067f866200041b565b60005b82811015620006a95784890151825560018201915060208501945060208101905062000682565b86831015620006c95784890151620006c5601f891682620005b9565b8355505b6001600288020188555050505b505050505050565b600082825260208201905092915050565b6000620006fc82620003ac565b620007088185620006de565b93506200071a81856020860162000268565b62000725816200019d565b840191505092915050565b600060408201905081810360008301526200074c8185620006ef565b90508181036020830152620007628184620006ef565b90509392505050565b611a52806200077b6000396000f3fe608060405234801561001057600080fd5b50600436106100575760003560e01c8063088954251461005c5780630976372714610078578063211295be146100a9578063db0c716c146100d9578063ef2a8764146100f5575b600080fd5b61007660048036038101906100719190610f06565b610127565b005b610092600480360381019061008d9190610f62565b610406565b6040516100a092919061103d565b60405180910390f35b6100c360048036038101906100be9190611074565b610600565b6040516100d091906111f9565b60405180910390f35b6100f360048036038101906100ee91906113c3565b610921565b005b61010f600480360381019061010a9190611074565b610b2d565b60405161011e93929190611427565b60405180910390f35b338073ffffffffffffffffffffffffffffffffffffffff163373ffffffffffffffffffffffffffffffffffffffff1614610196576040517f08c379a000000000000000000000000000000000000000000000000000000000815260040161018d906114de565b60405180910390fd5b60008351116101da576040517f08c379a00000000000000000000000000000000000000000000000000000000081526004016101d19061154a565b60405180910390fd5b60008060003373ffffffffffffffffffffffffffffffffffffffff1673ffffffffffffffffffffffffffffffffffffffff1681526020019081526020016000209050600073ffffffffffffffffffffffffffffffffffffffff16816004018560405161024691906115a6565b908152602001604051809103902060010160009054906101000a900473ffffffffffffffffffffffffffffffffffffffff1673ffffffffffffffffffffffffffffffffffffffff16146102ce576040517f08c379a00000000000000000000000000000000000000000000000000000000081526004016102c59061162f565b60405180910390fd5b60405180604001604052808581526020018473ffffffffffffffffffffffffffffffffffffffff16815250816004018560405161030b91906115a6565b9081526020016040518091039020600082015181600001908161032e9190611865565b5060208201518160010160006101000a81548173ffffffffffffffffffffffffffffffffffffffff021916908373ffffffffffffffffffffffffffffffffffffffff16021790555090505080600501849080600181540180825580915050600190039060005260206000200160009091909190915090816103af9190611865565b503373ffffffffffffffffffffffffffffffffffffffff167f49601793ec42143ac6291ff5d1df07e790a68ad9f1bae1d086853339af881c4585856040516103f8929190611946565b60405180910390a250505050565b606080838073ffffffffffffffffffffffffffffffffffffffff163373ffffffffffffffffffffffffffffffffffffffff1614610478576040517f08c379a000000000000000000000000000000000000000000000000000000000815260040161046f906114de565b60405180910390fd5b60008060008773ffffffffffffffffffffffffffffffffffffffff1673ffffffffffffffffffffffffffffffffffffffff168152602001908152602001600020600301856040516104c991906115a6565b908152602001604051809103902090508060020180546104e89061167e565b80601f01602080910402602001604051908101604052809291908181526020018280546105149061167e565b80156105615780601f1061053657610100808354040283529160200191610561565b820191906000526020600020905b81548152906001019060200180831161054457829003601f168201915b505050505093508060000180546105779061167e565b80601f01602080910402602001604051908101604052809291908181526020018280546105a39061167e565b80156105f05780601f106105c5576101008083540402835291602001916105f0565b820191906000526020600020905b8154815290600101906020018083116105d357829003601f168201915b5050505050925050509250929050565b6060818073ffffffffffffffffffffffffffffffffffffffff163373ffffffffffffffffffffffffffffffffffffffff1614610671576040517f08c379a0000000000000000000000000000000000000000000000000000000008152600401610668906114de565b60405180910390fd5b60008060008573ffffffffffffffffffffffffffffffffffffffff1673ffffffffffffffffffffffffffffffffffffffff168152602001908152602001600020905060008160050180549050905060008167ffffffffffffffff8111156106db576106da610d7d565b5b60405190808252806020026020018201604052801561071457816020015b610701610d1e565b8152602001906001900390816106f95790505b50905060005b8281101561091457600084600501828154811061073a57610739611976565b5b90600052602060002001805461074f9061167e565b80601f016020809104026020016040519081016040528092919081815260200182805461077b9061167e565b80156107c85780601f1061079d576101008083540402835291602001916107c8565b820191906000526020600020905b8154815290600101906020018083116107ab57829003601f168201915b5050505050905084600401816040516107e191906115a6565b908152602001604051809103902060405180604001604052908160008201805461080a9061167e565b80601f01602080910402602001604051908101604052809291908181526020018280546108369061167e565b80156108835780601f1061085857610100808354040283529160200191610883565b820191906000526020600020905b81548152906001019060200180831161086657829003601f168201915b505050505081526020016001820160009054906101000a900473ffffffffffffffffffffffffffffffffffffffff1673ffffffffffffffffffffffffffffffffffffffff1673ffffffffffffffffffffffffffffffffffffffff16815250508383815181106108f5576108f4611976565b5b602002602001018190525050808061090c906119d4565b91505061071a565b5080945050505050919050565b338073ffffffffffffffffffffffffffffffffffffffff163373ffffffffffffffffffffffffffffffffffffffff1614610990576040517f08c379a0000000000000000000000000000000000000000000000000000000008152600401610987906114de565b60405180910390fd5b60005b8251811015610b285760008382815181106109b1576109b0611976565b5b602002602001015160000151905060008483815181106109d4576109d3611976565b5b602002602001015160200151905060008584815181106109f7576109f6611976565b5b60200260200101516040015190506040518060600160405280848152602001838152602001828152506000803373ffffffffffffffffffffffffffffffffffffffff1673ffffffffffffffffffffffffffffffffffffffff16815260200190815260200160002060030182604051610a6f91906115a6565b90815260200160405180910390206000820151816000019081610a929190611865565b506020820151816001019081610aa89190611865565b506040820151816002019081610abe9190611865565b509050503373ffffffffffffffffffffffffffffffffffffffff167f2f82310531f67ec4eae39b4f0d4e2ea9a5e6da4bb8f084adb414ec441b761c5d8285604051610b0a92919061103d565b60405180910390a25050508080610b20906119d4565b915050610993565b505050565b6060806000838073ffffffffffffffffffffffffffffffffffffffff163373ffffffffffffffffffffffffffffffffffffffff1614610ba1576040517f08c379a0000000000000000000000000000000000000000000000000000000008152600401610b98906114de565b60405180910390fd5b60008060008773ffffffffffffffffffffffffffffffffffffffff1673ffffffffffffffffffffffffffffffffffffffff1681526020019081526020016000209050806000018054610bf29061167e565b80601f0160208091040260200160405190810160405280929190818152602001828054610c1e9061167e565b8015610c6b5780601f10610c4057610100808354040283529160200191610c6b565b820191906000526020600020905b815481529060010190602001808311610c4e57829003601f168201915b50505050509450806001018054610c819061167e565b80601f0160208091040260200160405190810160405280929190818152602001828054610cad9061167e565b8015610cfa5780601f10610ccf57610100808354040283529160200191610cfa565b820191906000526020600020905b815481529060010190602001808311610cdd57829003601f168201915b505050505093508060020160009054906101000a900460ff16925050509193909250565b604051806040016040528060608152602001600073ffffffffffffffffffffffffffffffffffffffff1681525090565b6000604051905090565b600080fd5b600080fd5b600080fd5b600080fd5b6000601f19601f8301169050919050565b7f4e487b7100000000000000000000000000000000000000000000000000000000600052604160045260246000fd5b610db582610d6c565b810181811067ffffffffffffffff82111715610dd457610dd3610d7d565b5b80604052505050565b6000610de7610d4e565b9050610df38282610dac565b919050565b600067ffffffffffffffff821115610e1357610e12610d7d565b5b610e1c82610d6c565b9050602081019050919050565b82818337600083830152505050565b6000610e4b610e4684610df8565b610ddd565b905082815260208101848484011115610e6757610e66610d67565b5b610e72848285610e29565b509392505050565b600082601f830112610e8f57610e8e610d62565b5b8135610e9f848260208601610e38565b91505092915050565b600073ffffffffffffffffffffffffffffffffffffffff82169050919050565b6000610ed382610ea8565b9050919050565b610ee381610ec8565b8114610eee57600080fd5b50565b600081359050610f0081610eda565b92915050565b60008060408385031215610f1d57610f1c610d58565b5b600083013567ffffffffffffffff811115610f3b57610f3a610d5d565b5b610f4785828601610e7a565b9250506020610f5885828601610ef1565b9150509250929050565b60008060408385031215610f7957610f78610d58565b5b6000610f8785828601610ef1565b925050602083013567ffffffffffffffff811115610fa857610fa7610d5d565b5b610fb485828601610e7a565b9150509250929050565b600081519050919050565b600082825260208201905092915050565b60005b83811015610ff8578082015181840152602081019050610fdd565b60008484015250505050565b600061100f82610fbe565b6110198185610fc9565b9350611029818560208601610fda565b61103281610d6c565b840191505092915050565b600060408201905081810360008301526110578185611004565b9050818103602083015261106b8184611004565b90509392505050565b60006020828403121561108a57611089610d58565b5b600061109884828501610ef1565b91505092915050565b600081519050919050565b600082825260208201905092915050565b6000819050602082019050919050565b600082825260208201905092915050565b60006110e982610fbe565b6110f381856110cd565b9350611103818560208601610fda565b61110c81610d6c565b840191505092915050565b61112081610ec8565b82525050565b6000604083016000830151848203600086015261114382826110de565b91505060208301516111586020860182611117565b508091505092915050565b600061116f8383611126565b905092915050565b6000602082019050919050565b600061118f826110a1565b61119981856110ac565b9350836020820285016111ab856110bd565b8060005b858110156111e757848403895281516111c88582611163565b94506111d383611177565b925060208a019950506001810190506111af565b50829750879550505050505092915050565b600060208201905081810360008301526112138184611184565b905092915050565b600067ffffffffffffffff82111561123657611235610d7d565b5b602082029050602081019050919050565b600080fd5b600080fd5b600080fd5b60006060828403121561126c5761126b61124c565b5b6112766060610ddd565b9050600082013567ffffffffffffffff81111561129657611295611251565b5b6112a284828501610e7a565b600083015250602082013567ffffffffffffffff8111156112c6576112c5611251565b5b6112d284828501610e7a565b602083015250604082013567ffffffffffffffff8111156112f6576112f5611251565b5b61130284828501610e7a565b60408301525092915050565b600061132161131c8461121b565b610ddd565b9050808382526020820190506020840283018581111561134457611343611247565b5b835b8181101561138b57803567ffffffffffffffff81111561136957611368610d62565b5b8086016113768982611256565b85526020850194505050602081019050611346565b5050509392505050565b600082601f8301126113aa576113a9610d62565b5b81356113ba84826020860161130e565b91505092915050565b6000602082840312156113d9576113d8610d58565b5b600082013567ffffffffffffffff8111156113f7576113f6610d5d565b5b61140384828501611395565b91505092915050565b60008115159050919050565b6114218161140c565b82525050565b600060608201905081810360008301526114418186611004565b905081810360208301526114558185611004565b90506114646040830184611418565b949350505050565b7f55736572206e6f742072656769737465726564206f7220756e617574686f726960008201527f7a65640000000000000000000000000000000000000000000000000000000000602082015250565b60006114c8602383610fc9565b91506114d38261146c565b604082019050919050565b600060208201905081810360008301526114f7816114bb565b9050919050565b7f47726f7570206e616d652063616e6e6f7420626520656d707479000000000000600082015250565b6000611534601a83610fc9565b915061153f826114fe565b602082019050919050565b6000602082019050818103600083015261156381611527565b9050919050565b600081905092915050565b600061158082610fbe565b61158a818561156a565b935061159a818560208601610fda565b80840191505092915050565b60006115b28284611575565b915081905092915050565b7f5573657220697320616c7265616479206173736f63696174656420776974682060008201527f746869732067726f757000000000000000000000000000000000000000000000602082015250565b6000611619602a83610fc9565b9150611624826115bd565b604082019050919050565b600060208201905081810360008301526116488161160c565b9050919050565b7f4e487b7100000000000000000000000000000000000000000000000000000000600052602260045260246000fd5b6000600282049050600182168061169657607f821691505b6020821081036116a9576116a861164f565b5b50919050565b60008190508160005260206000209050919050565b60006020601f8301049050919050565b600082821b905092915050565b6000600883026117117fffffffffffffffffffffffffffffffffffffffffffffffffffffffffffffffff826116d4565b61171b86836116d4565b95508019841693508086168417925050509392505050565b6000819050919050565b6000819050919050565b600061176261175d61175884611733565b61173d565b611733565b9050919050565b6000819050919050565b61177c83611747565b61179061178882611769565b8484546116e1565b825550505050565b600090565b6117a5611798565b6117b0818484611773565b505050565b5b818110156117d4576117c960008261179d565b6001810190506117b6565b5050565b601f821115611819576117ea816116af565b6117f3846116c4565b81016020851015611802578190505b61181661180e856116c4565b8301826117b5565b50505b505050565b600082821c905092915050565b600061183c6000198460080261181e565b1980831691505092915050565b6000611855838361182b565b9150826002028217905092915050565b61186e82610fbe565b67ffffffffffffffff81111561188757611886610d7d565b5b611891825461167e565b61189c8282856117d8565b600060209050601f8311600181146118cf57600084156118bd578287015190505b6118c78582611849565b86555061192f565b601f1984166118dd866116af565b60005b82811015611905578489015182556001820191506020850194506020810190506118e0565b86831015611922578489015161191e601f89168261182b565b8355505b6001600288020188555050505b505050505050565b61194081610ec8565b82525050565b600060408201905081810360008301526119608185611004565b905061196f6020830184611937565b9392505050565b7f4e487b7100000000000000000000000000000000000000000000000000000000600052603260045260246000fd5b7f4e487b7100000000000000000000000000000000000000000000000000000000600052601160045260246000fd5b60006119df82611733565b91507fffffffffffffffffffffffffffffffffffffffffffffffffffffffffffffffff8203611a1157611a106119a5565b5b60018201905091905056fea2646970667358221220e618329c1af4dc49a89efdbadd5b8ffb7521a74baf98c68d7e9655fc304900fd64736f6c63430008130033",
  "immutableReferences": {},
  "source": "// SPDX-License-Identifier: MIT\r\npragma solidity >=0.7.0 <0.9.0;\r\n\r\ncontract UserMetadata {\r\n\r\n    struct FileDetails {\r\n        string IpfsHash;\r\n        string Timestamp;\r\n        string name;\r\n    }\r\n\r\n    struct GroupInfo {\r\n        string groupName;\r\n        address groupContractAddress;\r\n    }\r\n\r\n    struct UserData {\r\n        string organization;\r\n        string country;\r\n        bool isAuthorized;\r\n        mapping(string => FileDetails) files;\r\n        mapping(string => GroupInfo) groupInfos; // Mapping from groupName to GroupInfo\r\n        string[] groupNames; // Array to store group names\r\n    }\r\n\r\n    mapping(address => UserData) private userMetadata;\r\n\r\n    event UserRegistered(address indexed userAddress, string organization, string country);\r\n    event FileUploaded(address indexed userAddress, string name, string IPFSHash);\r\n    event UserAssociatedToGroup(address indexed userAddress, string groupName, address groupContractAddress);\r\n\r\n    modifier onlyRegisteredUser(address userAddress) {\r\n        require(\r\n            msg.sender == userAddress, \r\n            \"User not registered or unauthorized\"\r\n        );\r\n        _;\r\n    }\r\n\r\n    constructor(address _userAddress, string memory _organization, string memory _country) {\r\n        UserData storage newUser = userMetadata[_userAddress];\r\n        newUser.organization = _organization;\r\n        newUser.country = _country;\r\n        newUser.isAuthorized = true;\r\n\r\n        emit UserRegistered(_userAddress, _organization, _country);\r\n        }\r\n\r\n\r\n    function getUserMetadata(address userAddress) public view onlyRegisteredUser(userAddress)\r\n        returns (string memory organization, string memory country, bool isAuthorized) {\r\n        UserData storage user = userMetadata[userAddress];\r\n        organization = user.organization;\r\n        country = user.country;\r\n        isAuthorized = user.isAuthorized;\r\n    }\r\n\r\n    function getUserFiles(address userAddress, string memory fileName) public view onlyRegisteredUser(userAddress)\r\n        returns (string memory name, string memory IpfsHash) {\r\n        FileDetails storage file = userMetadata[userAddress].files[fileName];\r\n        name = file.name;\r\n        IpfsHash = file.IpfsHash;\r\n    }\r\n\r\n   function getUserGroupInfo(address userAddress) public view onlyRegisteredUser(userAddress)\r\n        returns (GroupInfo[] memory) {\r\n\r\n        UserData storage user = userMetadata[userAddress];\r\n        uint256 groupCount = user.groupNames.length;\r\n\r\n        GroupInfo[] memory allGroupInfos = new GroupInfo[](groupCount);\r\n\r\n        for (uint256 i = 0; i < groupCount; i++) {\r\n            string memory groupName = user.groupNames[i];\r\n            allGroupInfos[i] = user.groupInfos[groupName];\r\n        }\r\n\r\n        return allGroupInfos;\r\n    }\r\n\r\n\r\n    function uploadFiles(FileDetails[] memory fileDetails) public onlyRegisteredUser(msg.sender) {\r\n    for (uint256 i = 0; i < fileDetails.length; i++) {\r\n        string memory IpfsHash = fileDetails[i].IpfsHash;\r\n        string memory Timestamp = fileDetails[i].Timestamp;\r\n        string memory name = fileDetails[i].name;\r\n\r\n        // Ensure unique file names\r\n\r\n        userMetadata[msg.sender].files[name] = FileDetails({\r\n            name: name,\r\n            IpfsHash: IpfsHash,\r\n            Timestamp: Timestamp\r\n        });\r\n\r\n        emit FileUploaded(msg.sender, name, IpfsHash);\r\n    }\r\n}\r\n\r\n    function associateToGroup(string memory groupName, address groupContractAddress) public onlyRegisteredUser(msg.sender) {\r\n        require(bytes(groupName).length > 0, \"Group name cannot be empty\");\r\n\r\n        UserData storage user = userMetadata[msg.sender];\r\n\r\n        // Check if the user is already associated with this group\r\n        require(user.groupInfos[groupName].groupContractAddress == address(0), \"User is already associated with this group\");\r\n\r\n        // Add group information to the mapping and array\r\n        user.groupInfos[groupName] = GroupInfo({\r\n            groupName: groupName,\r\n            groupContractAddress: groupContractAddress\r\n        });\r\n        user.groupNames.push(groupName);\r\n\r\n        emit UserAssociatedToGroup(msg.sender, groupName, groupContractAddress);\r\n    }\r\n}\r\n",
  "sourcePath": "C:\\Users\\sheej\\OneDrive\\Desktop\\Thesis\\Thesis\\contracts\\UserMetadata.sol",
  "compiler": {
    "name": "solc",
    "version": "0.8.19+commit.7dd6d404.Emscripten.clang"
  },
  "schemaVersion": "3.4.16",
  "updatedAt": "2023-11-14T14:27:29.930Z",
  "devdoc": {
    "kind": "dev",
    "methods": {},
    "version": 1
  },
  "userdoc": {
    "kind": "user",
    "methods": {},
    "version": 1
  }
}